:020000040800F2
:10800000282601209981000895E2000849CD000842
:1080100051E20008F59500080D5B01080000000022
:10802000000000000000000000000000C501010881
:108030006DA5000800000000F5EF0008E10E010842
:10804000B3810008B3810008B3810008B381000840
:10805000B3810008B3810008B3810008B381000830
:10806000B3810008B3810008B3810008B381000820
:10807000B3810008B3810008B3810008B381000810
:10808000B3810008B3810008999100087196000837
:1080900039960008B381000861960008F9C5000808
:1080A000B3810008D90F0108B3810008B38100082B
:1080B000B3810008A9130108B3810008ADCD000801
:1080C0008DCD0008B3810008B3810008B38100089A
:1080D000B3810008B3810008B3810008B3810008B0
:1080E0008DC40008B3810008B3810008B381000883
:1080F000B3810008B3810008B3810008B381000890
:10810000B3810008E5000108B3810008B3810008CD
:10811000B3810008B3810008B3810008B38100086F
:10812000B3810008B3810008B3810008B38100085F
:1081300059A20008B3810008B3810008DD96000849
:10814000A5960008B3810008CD9600086DE30008ED
:10815000B3810008B3810008B3810008B38100082F
:10816000B3810008B3810008B3810008B38100081F
:10817000B3810008B3810008B3810008B38100080F
:10818000B3810008DFF80CD000F042FD0048004742
:1081900061900108282601200648804706480047CC
:1081A000FEE7FEE7FEE7FEE7FEE7FEE7FEE7FEE7A7
:1081B000FEE7FEE7350F0108858100082DE9F04153
:1081C0000024061B254671F1000605DA012400276C
:1081D000D0EB070067EB0101161E73F1000605DA0C
:1081E0000027D2EB0702012567EB030300F064FBD5
:1081F00086460E4617469C46AC4204D00025D0EB7E
:10820000050E65EB010624B10020D2EB000760EB00
:10821000030C704631463A466346BDE8F0810000E3
:1082200000487047ACAB010810B50446FFF7F8FFF3
:108230000068005D00F0010010BDA0F16101192986
:1082400000D82038704740EA01039B0703D009E0BB
:1082500008C9121F08C0042AFAD203E011F8013B32
:1082600000F8013B521EF9D27047D2B201E000F88B
:10827000012B491EFBD270470022F6E710B51346CA
:108280000A4604461946FFF7F0FF204610BDCAB261
:10829000401E10F8011F8A4202D00029F9D10020A7
:1082A0007047421C10F8011B0029FBD1801A70474F
:1082B00010B54843044610F0DBFE002805D000212D
:1082C000002C02D0641E0155FAE710BD2DE9F047DD
:1082D00091460F4680460446002614F8015B2DB1F6
:1082E000FFF79EFF0068405DC007F6D12B2D02D03E
:1082F0002D2D18D0641E4A463946204600F03EFB1C
:1083000027B13968A14201D1C7F8008071054FF04B
:1083100002040BD54042002803DD0DF04FFD046040
:10832000A007BDE8F08746F48066E4E70028F8DAA5
:108330000DF044FD04606FF00040F2E770B50646B2
:108340000DF03CFD046805460A2200213046FFF787
:10835000BDFF2C6070BD30B480EA010202F0004520
:1083600030F0004221F0004013D090B1C30DD40D85
:10837000C2F31601C0F31600E41A41F4000140F400
:1083800000027D34914201D3641C00E04900002CBE
:1083900002DA30BC002070474FF400000023914205
:1083A00001D3891A034340084FEA4101F7D151B183
:1083B000914202D14FF0004105E002D24FF001019D
:1083C00001E06FF0010103EBC450284430BC00F021
:1083D00073BB2DE9FE4F804681EA0300C00F0C46B7
:1083E000009021F0004123F00045B8EB0200A941C4
:1083F00005D24046214690461C460B46024623F0D5
:108400000040104347D0270DC7F30A00C3F30A51B9
:108410000290401A019040286BDAC3F3130040F435
:10842000801B0098924620B10023D2EB030A63EB35
:108430000B0B01985946C0F14002504600F06DFA0E
:1084400006460D4650465946019A00F085FA10EB53
:1084500008006141002487EA115284EAE7731A4355
:1084600040D0009A62B3019A012A4FEA075215DC04
:10847000001B61EB02014FF0004202EA0752CDE916
:108480000042001C41F5801132462B4600F05AFB99
:1084900003B0BDE8F08F40462146F9E7001B61EBD1
:1084A0000201001C41F5801300185B412018A2F561
:1084B000001747EB030140EAD570B6196D4111E092
:1084C0006D084FEA360645EAC0754FEA0752001BB1
:1084D00061EB0201001C41F5801149084FEA3000B0
:1084E0000019514132462B4603B0BDE8F04F00F071
:1084F0001ABB0098012240000023D0EB020263EB7C
:10850000E073009821464FEAE074B8EB000061EB9D
:108510000401E9E783F000435BE781F0004158E79D
:108520002DE9FE4F81EA030404F0004421F00041EC
:1085300000944FF0000B23F0004350EA01045ED09A
:1085400052EA03045BD0C3F30A54C1F30A552C4426
:10855000A4F2F3340194A0FB0254C1F3130141F4DB
:108560008011C3F3130343F4801301FB024400FBA7
:10857000034E840A970A44EA815447EA8357A4FBCE
:10858000076802958D0A05FB07854FEA932C04FBCB
:108590000C542705029D4FEA065847EA1637B5EBFB
:1085A00008056EEB070C870E920E47EA811742EA28
:1085B0008312A7FB0201B6EB0B0164EB00042B0D49
:1085C00043EA0C335E1844EB1C50DA465146E7FB95
:1085D0000201C5F313044FEA0B3343EA14534FEA85
:1085E0000432019C43EA0603A4F10C040294009CAB
:1085F000CDE900B400F0A6FA03B0BDE8F08F00208A
:108600000146F9E72DE9F04D81EA030404F0004B3F
:1086100021F0004514464FF0000A23F0004150EAD3
:10862000050220D054EA01021DD0C5F30A570246C4
:10863000C5F31303C1F31300C1F30A5640F48015C8
:1086400043F48013A7EB0608101BD64608F2FD384A
:1086500073EB050002D308F1010801E092185B41B9
:10866000B8F1000F03DA00200146BDE8F08D0020CC
:108670004FF48011064684460EE0171B73EB050786
:1086800005D3121B63EB050306434CEA010C4908B2
:108690004FEA300092185B4150EA0107EDD152EAEF
:1086A000030012D082EA040083EA0501084305D0E2
:1086B000101BAB4106D20122002306E000224FF03E
:1086C000004302E06FF0010253101AEB06004CEB7E
:1086D000085110EB0A0041EB0B01BDE8F04D00F032
:1086E00022BA70B521F0004303430CD0C1F30A5500
:1086F0000024D5EB040564EB0403D617AD1AB3418F
:1087000002DB0020014670BD201841EB025170BD14
:10871000C10F80EAE0700844CA079623002100F0E8
:10872000D4B90EB5C10F80EAE0700844CA07002131
:1087300040F233438DE80E000A460B4600F002FA81
:1087400003B000BD0EB540F2334102910021CDE9E6
:1087500000110A460B4600F0F5F903B000BD70B5F4
:10876000C1F30A5201F000450024C1F3130140F2A5
:10877000FF3341F480119A4201DA002070BD40F2CB
:1087800033439A42A2F2334203DC524200F0D4F85F
:1087900000E090402C43F1D0404270BDC1F30A523A
:1087A00010B5C1F3130140F2FF3341F480119A4236
:1087B00001DA002010BD40F233439A42A2F2334264
:1087C00003DC524200F0B8F810BD904010BD00F03C
:1087D000004230F000400AD0C10D01F56071C0F3D5
:1087E000160042EA0151C2084007114370470020B9
:1087F0000146704730B5041E71F1000404DB4FF0F0
:108800000044404264EB0101141E73F1000405DBD7
:108810001C464FF00043524263EB04038B4208BFF7
:10882000824230BD30B5041E71F1000404DB4FF00C
:108830000044404264EB0101141E73F1000405DBA7
:108840001C464FF00043524263EB0403994208BFB9
:10885000904230BD01F0004330B421F0004150EAB5
:10886000010206D00A0DA2F56072C1F31301002ABD
:1088700002DC30BC00207047440F44EAC104C10050
:10888000E01830BC00EBC25000F016B930B50B4612
:10889000014600202022012409E021FA02F59D4230
:1088A00005D303FA02F5491B04FA02F52844151E04
:1088B000A2F10102F1DC30BD2DE9F05F0546002098
:1088C00092469B4688460646814640241BE0284641
:1088D00041464746224600F02FF853465A46C01AF2
:1088E000914110D311461846224600F016F82D1A71
:1088F00067EB01084F4622460120002100F00DF8E9
:1089000017EB00094E41201EA4F10104DFDC4846AC
:1089100031462A464346BDE8F09F202A04DB203A30
:1089200000FA02F1002070479140C2F1200320FAC2
:1089300003F3194390407047202A04DB203A21FAC0
:1089400002F00021704721FA02F3D040C2F1200268
:108950009140084319467047202A06DBCB17203A7E
:1089600041FA02F043EAE07306E041FA02F3D04034
:10897000C2F1200291400843194670472DE9F05F8B
:1089800082460078002715468B460AF10104B94655
:10899000302801D09DB113E014F8010B012778288D
:1089A00003D0582801D045B10AE00DB1102D07D1F0
:1089B0000027102514F8010B02E0082500E00A2525
:1089C0000026B0460EE005FB080005FB06F1012776
:1089D00001EB10461FFA80F8B6F5803F00D3B94688
:1089E00014F8010B294600F025F90028EBDABBF159
:1089F000000F05D00FB1641E00E05446CBF80040D4
:108A0000B9F1000F06D00DF0D9F902210160C81E9E
:108A1000BDE8F09F48EA0640FAE700000FB40023E3
:108A200000B589B00CA900910B996FF00042CB60A2
:108A30001E4B06931E4B07930423CDE901321D4ABA
:108A4000089202466B46002000F082F909B05DF8FA
:108A500014FB70B586B006464FF0FF300091CDE9AB
:108A60000101002015460C4604903246694604A8D0
:108A7000FFF7D4FF02460498211825B108B1084633
:108A800000E020462860049800280DD0002A02DD6E
:108A90000098884208D0081B0094CDE901043246B2
:108AA000694604A8FFF7BAFF06B070BD898F0008B9
:108AB000A78F0008298200080029A8BF7047401C22
:108AC000490008BF20F00100704710B4B0FA80FCE4
:108AD00000FA0CF050EA010404BF10BC704749B121
:108AE000CCF1200421FA04F411FA0CF118BF012191
:108AF00021430843A3EB0C01CB1D4FEA00614FEA71
:108B0000102042BF002010BC704700EBC35010443F
:108B10000029A4BF10BC7047401C490008BF20F0CA
:108B2000010010BC704710B5141E73F1000408DA80
:108B3000401C41F1000192185B411A4301D120F021
:108B4000010010BD2DE9F04D92469B4611B1B1FADE
:108B500081F202E0B0FA80F220329046FFF7DDFEAB
:108B600004460F4640EA0A0041EA0B0153465A46C2
:108B7000084313D0114653EA010019D0C8F140024E
:108B80005046FFF7D9FE05460E4650465946424626
:108B9000FFF7C3FE084305D0012004E02046394614
:108BA000BDE8F08D0020054346EAE0762C433743CC
:108BB0000A986305E40AA0EB08000022FD0A44EAD3
:108BC00047540A3002D500200146E9E70105101993
:108BD0006941DDE9084500196941BDE8F04DA2E7AA
:108BE000C1F30A52C1F3130140F2FF3341F4801183
:108BF0009A4202DA00200146704740F233439A421B
:108C0000A2F2334202DC5242FFF796BEFFF785BE66
:108C1000064C074D06E0E06840F0010394E80700C9
:108C200098471034AC42F6D3FFF7B0FA10AC010805
:108C300030AC01083A2800D2303820F02002412A16
:108C400001D3A2F13700884201D34FF0FF307047C3
:108C50002DE9FF4F087881B09946FF2805D0491CBF
:108C60002D2804D00024002308E000230BE0012479
:108C7000F9E703EB830300EB4303491C0878FF2863
:108C8000F7D104B15B4200200090147801462D2CEE
:108C900001D02B2C04D1521C2D2C12D00024009476
:108CA00000251678FF2E0ED00A24A0FB04C801FB75
:108CB0000481002700FB0711521C16EB0C006941D0
:108CC000EFE70124EBE7994450EA01020ED00024BB
:108CD000AA4D2646DFF8A88200F0C7F982468B46E7
:108CE000B9F1000009DAC9F100071BE00198002181
:108CF000C0E9001105B0BDE8F08F074612E0F807A3
:108D000007D022462B4630464146FFF709FC06466F
:108D1000884622462B4610461946FFF701FC0446BA
:108D20000D467F10002FEAD1B9F1000F32464346BD
:108D30005046594602DAFFF765FC01E0FFF7F0FB09
:108D4000009A0AB181F00041019AC2E90001D1E71D
:108D50002DE9FF4F1F468DB0D7E901464FF0FF3890
:108D60002E2045464FF000090B90B9696D1C0E98F6
:108D70008847396A824688470028F6D1BAF1FF3F12
:108D80000AD024F4D064002E11DDBAF12B0F08D0E4
:108D9000BAF12D0F0BD102E0404611B0ABE744F41D
:108DA0008064B9696D1C0E9888478246761E6946B4
:108DB000600501D52D2000E02B208DF8000001F189
:108DC000010B0DF1200809E0B9696D1C0E98884768
:108DD00082460F9844F40074761E0560002E02DD72
:108DE000BAF1300FF0D00B998A453ED144F080049F
:108DF00006E00F99681CA9F1010944F400740860A9
:108E0000B9696D1C761E0E98884782463028F0D0CE
:108E10002BE00B998A4505D1200603D444F0800449
:108E2000761E18E050460DF049FA08B30DF1130113
:108E3000761E44F400748B4508D2AAF130000BF87A
:108E4000010B200607D5A9F1010003E0200602D49A
:108E500009F101008146A00502D50F99681C086040
:108E6000B9696D1C0E9888478246002ED1DC53E00C
:108E7000002E51DDBAF1650F02D0BAF1450F4BD18A
:108E8000A00549D5B9696D1C24F44074761E0E986E
:108E900088478246002E0CDD2B2804D0BAF12D0F16
:108EA00007D144F48074B9696D1C0E9888478246D6
:108EB000761EE00501D52D2100E02B2108F8011BCD
:108EC000CDF82C8021E00DF12901761E44F40074C8
:108ED00088450CD2AAF1300010F0FF0088F800009D
:108EE00002D10B99884509D908F1010806E0E0058F
:108EF00001D5244801E042F20F708146B9696D1C2A
:108F00000E98884782460F980560002E04DD504673
:108F10000DF0D4F90028D6D1F9690E988847FF20C2
:108F20008BF8000088F800000020069007904B4660
:108F30006A4608A906A8FFF78BFEA00502D46FF0C9
:108F400001002AE714F0240F0AD0E00714D1DDE96C
:108F500006123868031D3B600068C0E900120BE090
:108F6000DDE90601FFF776FC0146E00704D1386829
:108F7000021D3A600068016028460EE700002440A8
:108F80000000F03FF1D8FFFF426842B1016811F8DC
:108F9000013B23B1521EC0E900121846704701215F
:108FA000C160881E704742685AB1C368016843B9FE
:108FB00083688B4205D0491E521CC0E90012002074
:108FC00070474FF0FF3070472DE9F04D00231A46EF
:108FD0001B1A8A4103DB00200146BDE8F08DC1F376
:108FE0000A52C1F3130141F480154FF0000BD10771
:108FF00002D100186D41521E0027044640F2FF11B5
:10900000384601EB620A3E468046024600204FF495
:109010008011FFF791FCC2197141BB1846EB0100AA
:10902000B4EB030C75EB000C04D3E41A65EB0005FC
:1090300017460E46241908F101006D418046342878
:10904000E3DDF91946EB0600091BA84103D24FF0F6
:10905000FF32134601E0002213461BEB070046EBEC
:109060000A51BDE8F04DFFF75EBD0EB540F2334248
:1090700002920022CDE900221346FFF763FD03B000
:1090800000BD70B58C1810F8015B15F0070301D115
:1090900010F8013B2A1106D110F8012B03E010F85B
:1090A000016B01F8016B5B1EF9D12B0705D400237E
:1090B000521E0DD401F8013BFAE710F8013BCB1A20
:1090C000921C03E013F8015B01F8015B521EF9D515
:1090D000A142D8D3002070BD4268024B1A400A4317
:1090E00042607047FFFD3FFF426822F01F020A43C3
:1090F000426070474162826270476FEA11210160ED
:1091000070470029816802D041F0010101E021F09F
:109110000101816070470000084B10B5D3F80423AB
:1091200007490A40D0E900142143D0E90240044332
:1091300021431143C3F8041310BD00000020014077
:10914000E030FCFF0021016041608160C160704738
:109150000029816802D041F4807101E021F480711E
:10916000816070470029816802D041F4007101E0FC
:1091700021F400718160704730B5024600205368C9
:109180000C0A01258D4011682B40214202D0002B92
:1091900000D0012030BD00002DE9F05FDFF8909194
:1091A0004FF4837841464846FFF7E6FFDFF884A195
:1091B000DFF884B1614F624D624C42F210760028B4
:1091C00036D041464846FFF798FF0021504608F048
:1091D00010F90021584608F00CF9206890F8481062
:1091E000490720D5008EC0041DD438680DF09EFCC0
:1091F000814628684FF4805390FBF6F106FB11017D
:109200002068026B50A00CF085FD286890FBF6F1F9
:1092100006FB11012068B0F9342053A00CF07AFD50
:1092200048460DF083FC2068016B41F480510163D6
:10923000DFF8489141464846FFF79EFF002836D0A8
:1092400041464846FFF759FF0021504608F0D1F843
:109250000021584608F0CDF8206890F848104907DA
:1092600020D5008EC0041DD438680DF05FFC814607
:1092700028684FF4805390FBF6F106FB110120683B
:10928000026B31A00CF046FD286890FBF6F106FB5E
:1092900011012068B0F9342033A00CF03BFD4846A2
:1092A0000DF044FC2068016B41F480510163DFF84C
:1092B000D09041464846FFF75FFF002836D0414630
:1092C0004846FFF71AFF0021504608F092F80021A7
:1092D000584608F08EF8206890F84810490720D5C5
:1092E000008EC0041DD438680DF020FC07462868A5
:1092F0004FF4805390FBF6F106FB11012068026BDE
:1093000011A00CF007FD286890FBF6F106FB110197
:109310002068B0F9342014A00CF0FCFC38460DF0A5
:1093200005FC2068016B41F480510163BDE8F09FAA
:109330000020014000000140000401401001002015
:109340005C010020500000203A2530346420657212
:10935000726F7220253034582C253034582C2073ED
:1093600065740D0A3E0000003A25303464207374A1
:1093700061747320253034580D0A3E0000210140ED
:109380000022014001238B4041680AB1194300E0EB
:10939000994341607047000030B542680F4B0C792B
:1093A0001A400B6842EA04221343436082680C4B64
:1093B0004D791A40D1E9034323438C6844EA4504BC
:1093C000234313438360C26A097D22F47002491E5D
:1093D000C9B242EA0151C16230BD0000FFFEFFFC8C
:1093E000FDF7FFC070B5072409290AD9C568A1F1A6
:1093F0000A0606EB4606B440A543B3401D43C560CC
:1094000007E0056901EB4106B440A543B3401D43A5
:1094100005611F23072A09D2446B521E02EB820208
:1094200093409C4391400C43446370BD0D2A09D284
:10943000046BD21F02EB820293409C4391400C4389
:10944000046370BDC46A0D3A02EB820293409C43F0
:1094500091400C43C46270BD816841F080418160DD
:10946000704700210160017141718160C16001613B
:10947000012101757047000070B501217F2006F0C1
:109480003BFA54210120FEF713FF3F4C00216422D8
:109490002065C180018181834281828201224280D4
:1094A0004FF47A728280028001834183C18202225A
:1094B0000282C2810C2242828281416281620284E4
:1094C000A0F850203C22A0F84020A0F84C10A0F8B2
:1094D0004E1004F0E1F94FF4612004F067FC2B4DCD
:1094E0002860002004F018F82949086003F06CFE99
:1094F00004F02EFA4CF25031582004F0F1F82549CE
:10950000086007F0F5FC206D416C41F004014164F6
:10951000A16807F04DFB206D06F034FF4FF4967004
:109520000CF0D0FB04F0A2F828680DF0FFFA7C20C4
:1095300006F07CFA01281CD07D2006F077FA01287D
:1095400019D07E2006F072FA012816D07B2006F092
:109550006DFA012813D07A2006F068FA06F014FAA2
:1095600000200DF0E3FABDE870400BA1002000F0F0
:109570000BBB0BA004E00FA002E013A000E017A0BB
:109580000CF0C8FBEAE70000000000200801002002
:10959000D4000020E40000206366672E696E690035
:1095A0000D202E2E2E205357522072657365740D98
:1095B0000A3E00000D202E2E2E20495744472072CF
:1095C000657365740D0A3E000D202E2E2E20575710
:1095D00044472072657365740D0A3E000D202E2EDF
:1095E0002E20706F776572206F6E207265736574C0
:1095F0000D0A3E00074800680DF098FA064800681A
:1096000042F2107190FBF1F201FB120103A00CF089
:1096100081FBFEE70C0100205C0100203A2530347C
:1096200064204275734661756C745F48616E646C4A
:1096300065720D0A3E00000000B585B06A46002143
:10964000054800F05DF90548142269460068006885
:109650000CF03EFD05B000BD00640040D4000020C9
:109660000248016841F00401016070470464004051
:109670000A4800B5006885B01422406869460CF0BD
:1096800011FD0100064804D0694600F091F905B0CB
:1096900000BD0022012100F0B7F8F8E7D400002057
:1096A0000064004000B585B06A460021054800F01E
:1096B00027F9054814226946006800680CF008FD87
:1096C00005B000BD00680040D400002002480168D9
:1096D00041F0040101607047046800400A4800B589
:1096E000006885B01422406869460CF0DBFC01007C
:1096F000064804D0694600F05BF905B000BD0022C1
:10970000012100F081F8F8E7D40000200068004053
:10971000094910B588424FF0010101D14C0601E022
:109720004FF08064204606F00BF92046BDE810405B
:10973000002106F005B9000000640040F0B5827A0F
:10974000012191402E4A136843F0010313602C4B12
:109750001C331C688C431C60294D067B294C0C353E
:10976000A6B92E688E432E604688C78846EA07460B
:10977000877A04EBC707C7F840660688878846EAF9
:109780000746877A04EBC707C7F84466067B012EB5
:1097900012D12E680E432E60867A056804EBC60649
:1097A0004FEA3545C6F84056867A456804EBC6044C
:1097B0004FEA3545C4F84456114CC57A241D002D96
:1097C000256806D00D4325600D4C0589143415B16C
:1097D00004E08D43F7E725688D4325600589012D59
:1097E00002D125680D432560407B012802D118680D
:1097F00008431860106820F001001060F0BD000000
:109800000066004000600040002A426901D00A431F
:1098100000E08A434261704710B50368002223F0DC
:1098200002030360036843F0010303604FF6FF7314
:1098300000E0521C4468E40701D19A42F9D1426821
:10984000D2073ED08A79012A02683CD022F08002F9
:109850000260CA79012A026838D022F04002026010
:109860000A7A012A026834D022F0200202604A7A81
:10987000012A026830D022F0100202608A7A012A9E
:1098800002682CD022F008020260CA7A012A02681B
:1098900028D022F0040202608A78CC78920742EA4B
:1098A00004620C7942EA04424C79098842EA045283
:1098B000491E0A43C261016821F0010101600021D3
:1098C00014E0002010BD42F08002C1E742F04002E7
:1098D000C5E742F02002C9E742F01002CDE742F0AE
:1098E0000802D1E742F00402D5E7491C4268D207DA
:1098F00001D09942F9D14068C007E2D1012010BDE2
:1099000010B500EB0113D3F8B04114F00404147245
:10991000D3F8B04134D0E408C2F80440D3F8B041E1
:1099200004F002045472D3F8B44104F00F049472AA
:10993000D3F8B441240AD474D3F8B841D472D3F81C
:10994000B841240A1473D3F8B841240C5473D3F8E3
:10995000B841240E9473D3F8BC41D473D3F8BC41FE
:10996000240A1474D3F8BC41240C5474D3F8BC31C9
:109970001B0E937439B1016941F02001016110BDE2
:10998000640D1460CAE7C16841F02001C16010BDD8
:1099900000218171C171017241728172C172817045
:1099A000C1700321017102214171012101807047C1
:1099B00030B50246002093685B0108D4906800012E
:1099C00001D5012003E09068C00037D5022002EBEA
:1099D0000012D2F8803103F00103C2F880310B7A13
:1099E00073B3D2F880414D681C434B7A43EAC503F8
:1099F0001C43C2F880418B7A03F00F038B72D2F8BC
:109A0000843123F00F03C2F88431D2F884318C7A88
:109A10002343C2F88431CB7ACC6843EA0423C2F8EA
:109A20008831CB7B096943EA0121C2F88C11D2F855
:109A3000801141F00101C2F8801130BD042030BD19
:109A4000D2F880314C7A23430C8843EA4453C2F85D
:109A50008031D0E710B50022044B03E050F82240DB
:109A60001C60521C8A42F9D3186810BD00300240B5
:109A70000149012088607047003002400FB470B582
:109A800088B0142236496846FEF7DDFB354C0C9849
:109A900008B10DAD3AE0344800682064002008B0F9
:109AA00070BC5DF814FB01CD059011F8012B05A8E1
:109AB0000C91632A17D006DC2E2A09D0452A0FD034
:109AC000502A23D10AE0692A11D0772A1ED10CE04E
:109AD000142268460599FEF7B6FB17E0402000E027
:109AE0004320009012E0002202E0012200E0032265
:109AF0000DF10B019DF80A6010F8013B73549DF8BD
:109B00000A305B1C8DF80A30521EF3D20C9908788B
:109B10000028C8D1206CD8B10DF008F8206413A03B
:109B200000990CF0F7F800256E4606E070192E211A
:109B3000C27A11A00CF0EEF86D1C9DF80A00A84244
:109B4000F4DC0FA00CF0E6F8206C0CF0EFFF2064C2
:109B50000C4814226946006840680CF0B9FA9EE788
:109B60009CA4010800000020540100202530325838
:109B70002E3C3C2E000000002563253032580000AA
:109B80000D0A3E00D4000020F0B5ADF2644D0C4645
:109B900006460DF06BFF002833D189A930460EF040
:109BA00039FC00282DD10122214668460EF046FCE2
:109BB000002826D1144C154DDDE90201884219D048
:109BC00020680CF0B3FF07460DF25C430122191F19
:109BD00068460EF004FD38B9DDF85C04012803D1B5
:109BE000DDF8580410F0AEFA38460CF09FFF2868F4
:109BF0008047E1E768460DF043FF002130460EF054
:109C000009FC0DF2644DF0BD080100201C0000208D
:109C1000044A01238340106809B1184300E09843C7
:109C2000106070470074004010B501214C072046B9
:109C300005F086FE2046BDE81040002105F080BEFC
:109C400005490028086802D040F0030001E020F038
:109C5000030008607047000004740040044908B520
:109C600001EB90002C300090006880B208BD00002D
:109C70000074004030B5084C236840F6FE72824004
:109C80009343D1E900252A43D1E902510D432A43E8
:109C900082401A43226030BD00740040082805D07D
:109CA00042EA0141034A10440162704742EA01213D
:109CB000F8E700000074004000210160416081600D
:109CC000C160704710B50A460C0601F07F0303EB34
:109CD000830100EBC10102D501F58E7101E001F5B0
:109CE0005D71D2090B704A700AF0AAFC002010BD09
:109CF0000A4610B5090602F07F0306D503EB83017F
:109D000000EBC10101F58E7105E002EB820100EB71
:109D1000C10101F55D7100248C700B70D2094A708D
:109D20000AF075FC002010BD10B50A0604D501F03C
:109D30007F010AF0B3FD01E00AF094FD002010BDA0
:109D400070B50C460E0601F07F0505EB850100EBB2
:109D5000C10102D501F58E7101E001F55D71E409E3
:109D60000D704C708A60CB7000D0CD80022B01D179
:109D700000220A710AF022FC002070BD10B501F02B
:109D80007F0404EB840100EBC101C1F88833C1F802
:109D900080230023C1F88C3381F8753381F8744334
:109DA000C37801F55D71012B00D10A6114F0FF0F3A
:109DB00003D00AF077FC002010BD0AF091FBFAE70F
:109DC0000069002261F30A120168114301607047C3
:109DD0000A4610B5090602F07F0306D503EB83019E
:109DE00000EBC10101F58E7105E002EB820100EB91
:109DF000C10101F55D7101248C700B70D2094A70AC
:109E00000AF038FC002010BD70B511F07F0404EB9F
:109E1000840100EBC1014FF0010581F81D5181F86B
:109E20001C41C1F82821C1F82C2101F58E714FF099
:109E30000002C1E9053203D00AF034FC002070BDF5
:109E40000AF04EFBFAE700002DE9F0410646002536
:109E50000AF0A8FE074655E0F80751D03069EAB28B
:109E60000369416BD14006EB820201F00101926966
:109E700043EAC11194680C40E1071AD00124426BF7
:109E800004FA05F18A43426306EB85008069846029
:109E90001F48E9B20068426830469047F0780128D0
:109EA00007D135B996F81101042802D130460AF0DD
:109EB00073FB200704D506EB8500082480698460C5
:109EC000E00604D506EB85001024806984606006F6
:109ED00004D506EB8500402480698460A00704D582
:109EE00006EB8500022480698460200608D5294697
:109EF000304600F067F906EB8501802089698860AB
:109F00007F086D1C002FA7D10120BDE8F081000063
:109F1000480200202DE9F041064600240AF048FEE0
:109F20000746DFF8988043E0F8073FD0E1B23046BB
:109F30000AF044FE0546C00725D006EB8400012543
:109F4000416D8D60F17801290CD1406D016904EB00
:109F5000840006EBC000C1F31201D0F87C23511A33
:109F6000C0F88C13D8F80000E1B202683046904780
:109F7000F078012807D134B996F81101052802D1EB
:109F800030460AF009FBA80704D506EB8400022539
:109F9000406D8560280709D5D8F8000081683046F3
:109FA000884706EB84010820496D88607F08641C9F
:109FB000002FB9D10120BDE8F08100004802002047
:109FC00070B50646C068816921F010018161F068B2
:109FD000056A05F00F0000EB800006EBC004C5F336
:109FE000434004F55D74072821D2DFE800F020200B
:109FF00004202020150047F6F070054217D0C5F365
:10A000000A152A463046E1680AF0E9FDE06828446E
:10A01000E060A069284409E0082206F2CC513046ED
:10A020000AF0DDFDA069C5F30A110844A061F068DB
:10A03000816941F010018161012070BD38B504468D
:10A0400000208DF8000094F812018DF800001548EA
:10A05000006841692046884720698068E2684FF4BB
:10A0600000615161A17AD1B1C00718D094F81501EF
:10A07000012814D19DF80000032810D1D4F80C0158
:10A08000016841F001010160D4F80C01016841F060
:10A09000030101600448016841F0060101600120EC
:10A0A00038BD00004802002010ED00E070B5044605
:10A0B000006900250126416821F00101416029461F
:10A0C00020460AF0EBFB0020FF2106E004EB8002B3
:10A0D00093699960526D9160401C62788242F5D814
:10A0E00021694FF0FF3088612846216966F30F002F
:10A0F00066F31F40C861216945F00B004861216982
:10A1000045F00B0008612069016821F4FE610160DF
:10A1100020460AF041FAE1684FF480504861034854
:10A120000068016920468847012070BD4802002070
:10A1300070B504460AF078FD0122002384F812214C
:10A1400084F814311946402511E000BF01EB81006D
:10A1500004EBC00080F81D2180F81C11A0F822112A
:10A1600080F81F31C0E94953491CC0F8303160788C
:10A170008842EBD8002110E001EB810004EBC00223
:10A1800082F8753382F87413A2F87A1382F8773361
:10A19000C2E9DF53491CC2F8883360788842EBD8A3
:10A1A00020460AF05BF920460AF000F8002120461C
:10A1B0000AF09AFD20460AF039F82046BDE87040C2
:10A1C0000AF02BBB2DE9F0470E46054601EB860051
:10A1D00005EBC004D4E94C01421AD4F8240104F57B
:10A1E0008E74904200D20246D21C970805EB860975
:10A1F00023E000BFA0EB0108A168414500D28846DA
:10A2000008F1030087081FFA88F3F2B22846E168D4
:10A210000BF068FCE16801EB0800E060A16901EB6C
:10A220000800A0616169884207D321780120884035
:10A2300029694A6B82434A630BE0D9F818008069A8
:10A2400080B2B84205D9D4E90501814201D2002883
:10A25000D0D10120BDE8F08710B5002007F0EAFB5F
:10A260000348006810F8421F41F00801017010BD5A
:10A2700050000020074A904201D2074801E00548FB
:10A280001038064A8B0001EA020101D5C16070470F
:10A290008160704710640240006002407D0F7D0FB6
:10A2A000074A904201D2074801E005481038064AA3
:10A2B0008B0001EA020101D5C160704781607047DF
:10A2C00010640240006002407D0F7D0F002901688C
:10A2D00002D041F0010101E021F00101016070476D
:10A2E0002DE9F04190B00546684600F02EF90121B5
:10A2F000880505F001FBDFF88880404600F044F84F
:10A30000204F4FF00066CDE9006768680024694679
:10A31000006802904020CDE90304C002CDE9094065
:10A32000C011CDE90540089407940D9440460E9461
:10A3300000F0DAF801214046FFF7C8FFDFF840805F
:10A34000A8F17808404600F01FF8CDE900672868BA
:10A3500069460068CDE9020480200490400009901D
:10A36000404600F0C1F801214046FFF7AFFF01224F
:10A37000C021381F07F02EFC10B0BDE8F0810000AE
:10A38000B8640240041001402DE9F043016821F057
:10A39000010101600021016041608160C1600161D3
:10A3A000212141613C493C4A3D251039904202D16E
:10A3B0008D60BDE8F083384A4FF4746618329042DD
:10A3C00001D18E60F5E7344A4FF474173032904271
:10A3D00001D18F60EDE7304A4FF0746C4832904203
:10A3E00002D1C1F808C0E4E72B4B2C4A60339842F5
:10A3F00001D1CA60DDE7284C294B7834A04201D155
:10A40000CB60D6E7DFF89080264C08F190084045F5
:10A4100001D1CC60CDE7DFF880804FF03D5908F1E5
:10A42000A808404502D1C1F80C90C2E71E49DFF8E8
:10A4300078800839404501D10D60BAE71A4D1835CA
:10A44000A84201D10E60B4E7174D3035A84201D1C2
:10A450000F60AEE7144D4835A84202D1C1F800C0E4
:10A46000A7E7114D10496035091FA84201D10A60C4
:10A470009FE70D4A7832904201D10B6099E70A4A72
:10A480009032904201D10C6093E7074AA832904283
:10A490008FD1C1F800908CE7106002403D00002091
:10A4A000400F002000003D201064024001460020C3
:10A4B0000968C90700D0012070470B0607D543691A
:10A4C00012B143F0800301E023F08003436180294F
:10A4D00008D0002A026801F01E0101D00A4300E002
:10A4E0008A4302607047000030B50368124ACC68A6
:10A4F00013400A682243D1E905452C432243CC6925
:10A5000022430C6A22434C6A22438C6A22434C6BDE
:10A5100022438C6B22431A430260426922F00703F4
:10A52000D1E90B2422431A4342610A6942604A6816
:10A5300082608968C16030BD3F801CF00AB1016152
:10A540007047C16070474160704700210160416001
:10A550008160C160016141618161C16101624162EB
:10A560008162C1620163416381637047704700008B
:10A570002DE9F04F93B006007DD03078DFF8FCA3D2
:10A580000027FF4C4FF0FF3B612875D02BDC3F28A4
:10A5900001F0818215DCFB4DFB4C2E286DD008DCD0
:10A5A00023286BD02B2801F07F822D2867D101F062
:10A5B00077BA3A2801F07C823C286ED03E28F5D14B
:10A5C00012E153286AD006DC422840D044287DD0CE
:10A5D0004C28EBD185E0552801F01D82562823D068
:10A5E0005728E3D15BE0DFF8A493E94D62384FF0E0
:10A5F0000108172843D2DFE810F02C034200FE02C6
:10A6000097073708420042005D06420042004200C0
:10A610004200420042004E025A0354017F045A078E
:10A62000750817008A01A1060121080305F064F9E5
:10A63000FFF71EFAD748D849081A8108D548FFF70E
:10A6400009FA00220090D5A30921D7A0C7E3701C06
:10A650002C2205A90FF0F3FC049000280FD001284C
:10A6600013DD002211460698FDF730FE0446002255
:10A670001146059804E0B3E3B3E3E0E0BCE1DAE0BF
:10A68000FDF724FE047001F009BA00221146059876
:10A69000FDF71CFE0178C9A020E071E040E0701CCD
:10A6A0002C2205A90FF0CBFC04900028D6D001285D
:10A6B0000DDD002211460698FDF708FE0446002233
:10A6C00011460598FDF702FE0480DCE72EE000222B
:10A6D00011460598FDF7FAFD0188BAA00BF01AFBA8
:10A6E000D1E7701C2C2205A90FF0A9FC04900028CA
:10A6F000B4D001280CDD002211460698FDF7E6FDD6
:10A700000446002211460598FDF7E0FD0460BAE713
:10A71000002211460598FDF7D9FD0168ABA0DDE7E1
:10A7200030460FF0E5FB13B0BDE8F08F701C2C2213
:10A7300005A90FF084FC049002287CDB032803D1D8
:10A740000798007869280DD05C46594606980EF0A7
:10A7500046FB0490214605980EF041FB04990FF04A
:10A7600091FB90E75C46594606980EF038FB049042
:10A77000214605980EF033FB04990EF025FC82E784
:10A7800014210EA8FDF778FD701C074602210EF07B
:10A7900026FB00260DF13808BF1C0E9009E0B81901
:10A7A00002210EF01CFB06EBD67208EB6201B61C10
:10A7B000C8723846FDF775FDB042F0D806EBD6708A
:10A7C00040088DF84200002202212846FFF71CF8BD
:10A7D000206814220EA900680BF07AFC01220221E5
:10A7E0002846FFF711F84EE714210EA8FDF744FDA7
:10A7F000761C022130460EF0F2FA00250EAFB61C90
:10A800000E9009E0701902210EF0E9FA05EBD571FE
:10A8100007EB6101AD1CC8723046FDF742FDA8424E
:10A82000F0D805EBD57040088DF84200206814225E
:10A830000EA9406800E09FE00BF04AFC23E71422D9
:10A8400064490EA8FDF7FFFC771C00260DF13808BF
:10A8500009E0B81902210EF0C2FA06EBD67208EB35
:10A860006201B61CC8723846FDF71BFDB042F0D835
:10A8700006EBD67040088DF84200002202212846DF
:10A88000FEF7C2FF206814220EA900680BF020FC1E
:10A89000012202212846FEF7B7FF0020FFF7EEF85D
:10A8A000F1E6701C2C2205A90FF0C9FB04900028CA
:10A8B00062D0012804DD0698FDF740FD0D9001E00F
:10A8C000CDF83480594605980EF089FA0490FF2897
:10A8D00007DD4FF6FF7101EA0021C0F307200143B5
:10A8E00004913D4804A90D9A00680FF019FA70B35D
:10A8F0003AA00BF00FFA0D98C10008FA01F804997C
:10A90000A8F1010808EA0102410035A041E1701CEC
:10A910002C2205A90FF093FB049002282CD15C4651
:10A92000594605980EF05BFA0490FF2810DD4FF6AB
:10A93000FF7101EA0021C0F3072001430491214681
:10A9400006980EF04CFA049941EA004007E050E006
:10A95000214606980EF043FA049941EA002004903B
:10A960000598FDF79EFC44080698FDF79AFC04EB59
:10A97000500204A9184837E043E30000DEA3EA6070
:10A980005000002000680040D40000200800002093
:10A990004C95002000800008000004084D617220E2
:10A9A00032312032303139002025642E2530326496
:10A9B0002025732C203C253038583E002C25303281
:10A9C000580000002C253034580000002C25303869
:10A9D00058000000D0A40108E40000202C00000072
:10A9E00025302A580000000000680FF0DDFC002828
:10A9F0007ED10421FBA071E6701C2C2205A90FF06A
:10AA00001EFBFD4C4FF40061049010B1022807D0EA
:10AA1000F7E224F81070401C04908842F9D332E623
:10AA200034F810201AB1801C04908842F8D305989D
:10AA30000CF09CF805460E460698FDF77FFCFDF7E6
:10AA400070FE0022ED4B0EF08FFB2A463346FDF7D9
:10AA500067FD0022EA4BFDF7D5FD0022E94BFDF72B
:10AA6000B8FC05460E462068FDF75BFE2A463346D5
:10AA7000FDF7AFFCFDF773FE20600598FDF75EFC67
:10AA8000049924F811000698FDF758FC049904EB8A
:10AA900041014880F7E5701C2C2205A90FF0CFFA80
:10AAA0000490002840D072DD0598FDF747FC21682E
:10AAB0004881049801287DDD06980CF057F80022A3
:10AAC000D14BFDF7AFFE67D82068B0F91C00FDF749
:10AAD00028FE4FF06632CD4BFDF722FD6FF00B02E2
:10AAE000FDF7FFFD6FF00102FDF7FBFD524600E0B0
:10AAF0006DE2C74BFDF786FD0022C24BFDF769FCF6
:10AB0000FDF72DFEFDF704FEFDF761FE05460E463E
:10AB100006980CF02BF80022BE4BFDF701FD2A46EB
:10AB20003346FDF76FFD3EE02568B5F91C00FDF7E3
:10AB3000F8FD4FF06632B54BFDF7F2FC6FF00B02FB
:10AB4000FDF7CFFD6FF00102FDF7CBFD5246B04B94
:10AB5000FDF758FD0022AB4BFDF73BFCFDF7FFFD79
:10AB6000B5F90C1048434FF4167190FBF1F2B5F9AA
:10AB70000A10A9A00BF0CEF82068B0F94C1019B952
:10AB8000B0F84E20002A85D0B0F94E2000E011E048
:10AB9000ABA00BF0BFF876E506980BF0E7FF0022BC
:10ABA0009C4BFDF7BDFCFDF7DAFD21688881049818
:10ABB000032809D0206880F82C80206805F0E2FB8B
:10ABC0000498042807D05EE50798FDF7B7FB2168D5
:10ABD00081F82C00F1E70798FDF7B0FB2168A1F898
:10ABE0004C000898FDF7AAFB2168A1F84E00084622
:10ABF00003F098FD47E5701C2C2205A90FF01FFA01
:10AC00000490002814D04EDD0598FDF797FB2168CD
:10AC100088820498012846DD06980BF0A7FF0022E1
:10AC20007C4BFDF77DFCFDF79AFD216848823AE0F8
:10AC30002468B4F91200FDF76BFD8B49FDF78BFB1F
:10AC4000FDF7C5FDB4F9144002460B46214687A026
:10AC500095E3701C2C2205A90FF0F1F9049000284F
:10AC600016D01EDD0598FDF769FB21684880049821
:10AC7000012816DD0698FDF761FB2168888004989D
:10AC800002280EDD0798FDF759FB216808800AE0CD
:10AC90002068B0F90030B0F90420B0F902107DA0AE
:10ACA0006DE320680780206805F06CFBEBE4701C06
:10ACB0002C2205A90FF0C3F9814D049010B105288D
:10ACC00040D09EE17FA00BF025F8002730E02068FF
:10ACD000B0F91C00FDF725FD4FF066324B4BFDF738
:10ACE0001FFC6FF00B02FDF7FCFC6FF00102FDF79B
:10ACF000F8FC5246464BFDF785FC0022414BFDF720
:10AD000068FBFDF72CFDB6F9021048434FF41671AD
:10AD100000F5967090FBF1F2B6F90610CDE9001837
:10AD2000B6F9043035F919106EA00AF0F3FF7F1C54
:10AD300007EB870905EB4906B6F908005FEA00084A
:10AD4000C5D1A0E40026A84600E0761C06EB8607E5
:10AD500008EB4705288930B10998FDF7EFFAB5F9F6
:10AD600008108842F1D10598FDF7E8FA06EB860253
:10AD700028F812000698FDF7E1FA4FF4167100FB6F
:10AD800001F62068B0F91C00FDF7CBFC4FF06632ED
:10AD90001E4BFDF7C5FB6FF00B02FDF7A2FC6FF039
:10ADA0000102FDF79EFC5246194BFDF72BFC0022D9
:10ADB000144BFDF70EFBFDF7D2FC96FBF0F008EB11
:10ADC000470148800798FDF7B9FAA8800898FDF771
:10ADD000B5FAE8800998FDF7B1FA288153E433E227
:10ADE000FEE338E1202E2E2E493243206572726F29
:10ADF00072282530325829001C0800200000084025
:10AE0000006A18410000E03F0000F03F66660A401B
:10AE1000F09A6E3F00C082400D3E7028756C7365DD
:10AE2000292020542C5520202020202020202020A4
:10AE3000202E2E2E20256475732C256456000000CC
:10AE40000D0A3E71287377636829202064656C6160
:10AE5000792C77696474682020202E2E2E2025649A
:10AE600075732C2564757300000016440D3E64282C
:10AE7000656C6179292020542C50572020202020F7
:10AE800020202020202E2E2E20256475732C252E88
:10AE9000326600000D3E6228757273742920204EC0
:10AEA0002C6C656E2C70657220202020202E2E2E9A
:10AEB0002025642C256475732C25646D73000000B7
:10AEC000740400200D3E7128736861706529207735
:10AED0002C552C74642C746F2C74726566202E2E85
:10AEE0002E0000000D0A25642C25642C25642C25D9
:10AEF000642C2564000000007178701C77290BD049
:10AF00002C2205A90FF09BF8A8B3012857D00228DE
:10AF10005ED0032875D175E0401C05462021FDF761
:10AF2000B6F948B320212846FDF7B1F9FDF706FA36
:10AF30002168B1F90410C1F57A71884261DC2021E1
:10AF40002846FDF7A4F9FDF7F9F92168B1F90410D5
:10AF500064398842F2DC20212846FDF798F9FDF794
:10AF6000EDF90A2190FBF1F0401C410020680184BA
:10AF7000A0F8501037E40EE0FFE720686FF00901F9
:10AF8000B0F9500000EBD070401000EB800001EBF6
:10AF90004001FBA02FE5D9F800003C2190FBF1F324
:10AFA00020684FF47A74B0F91020B0F90E006243B3
:10AFB00092FBF1F2604390FBF1F1F5A0B1E205984C
:10AFC000FDF7BCF900F00301206803F0E1F9AAE203
:10AFD0000598FDF7B3F9C0EB001080004FF47A75C7
:10AFE00090FBF5F02168C8810698FDF7A7F9C0EB42
:10AFF0000010800090FBF5F12068018205F068FDEB
:10B0000091E29AE00598FDF799F9C0EB00108000F5
:10B010004FF47A7590FBF5F02168C8810698FDF72A
:10B020008DF9C0EB0010800090FBF5F021680882DC
:10B030000798FDF783F90A287EDB0798FDF77EF96C
:10B04000642879DC0798FDF779F9C0EB00108100DE
:10B05000C9F800108EE1701C2C2205A90EF0EFFF3C
:10B06000D64D10B1022868D1F1E0D54F3888800064
:10B07000FDF768FB4FF06632D24BFDF751FA6FF0E7
:10B080000B02FDF72EFB6FF00102FDF72AFBD34602
:10B090005246DFF834A35346FDF7B4FADFF82C9399
:10B0A00000224B46FDF795F9FDF759FBDFF82083A9
:10B0B0000646B8F800008000FDF744FB4FF066320A
:10B0C000C04BFDF72DFA6FF00B02FDF70AFB6FF096
:10B0D0000102FDF706FB5A465346FDF793FA00229C
:10B0E0004B46FDF776F9FDF73AFB0146788840F2CA
:10B0F0004C425043000B0090B8F8020033465043D6
:10B10000020BB4A00AF006FEBE4800688000FDF7FE
:10B1100008FB4FF06632AB4BFDF702FA6FF00B0203
:10B12000FDF7DFFA6FF00102FDF7DBFA5A465346EE
:10B13000FDF768FA002201E05DE31FE14B46FDF7F1
:10B1400048F9FDF70CFB0646AF4800688000FDF7A4
:10B15000E8FA4FF066329B4BFDF7E2F96FF00B0215
:10B16000FDF7BFFA6FF00102FDF7BBFA5A465346EE
:10B17000FDF748FA00224B46FDF72BF9FDF7EFFAF1
:10B180000146A248026840F24C404243A04803688E
:10B1900040F24C404343D81703EB1050001300908B
:10B1A000D01702EB1050021333469AA00AF0B2FDFA
:10B1B0002E46D5F82802FDF7C5FA4FF06632814BCE
:10B1C000FDF7AEF96FF00B02FDF78BFA6FF001029D
:10B1D000FDF787FA5A465346FDF714FA00224B460C
:10B1E000FDF7F7F8FDF7BBFA8500D6F82402FDF766
:10B1F000A9FA4FF06632734BFDF792F96FF00B022C
:10B20000FDF76FFA6FF00102FDF76BFA5A465346ED
:10B21000FDF7F8F900224B46FDF7DBF8FDF79FFA42
:10B220008300206840F24C42B0F91810B0F91600C3
:10B2300051435043C21700EB12500213C81701EBE1
:10B24000105001137FA000950AF064FD6BE1059892
:10B25000FDF774F8000340F24C4690FBF6F02168CD
:10B2600008830698FDF76AF8000390FBF6F1206862
:10B270000022C182018B2846FDF73CFF20687D4EED
:10B280000022018B3046FDF735FF4FF483742146D1
:10B290002846FDF732FF21463046FDF72EFF0122FA
:10B2A00021462846FEF76EF8012221463046FEF779
:10B2B00069F8F3E3701C2C2205A90EF0C0FE10B152
:10B2C00002285BD11FE01020FEF7C8FC00EBC00194
:10B2D00001EB001040F2FF7505EB800040F6FF76B1
:10B2E000B0FBF6F40020FEF7B9FC00EBC00101EB67
:10B2F000001005EB8000B0FBF6F12520024600901F
:10B3000023465DA0A0E70598FDF718F8C0EB0030D4
:10B310006424323090FBF4F085B20698FDF70EF805
:10B32000C0EB0030323090FBF4F081B22A460020AE
:10B33000FEF7B4FC0120FEF783FCAFE3701CFCF7C2
:10B34000FDFF012804D0022809D0042816D1A7E067
:10B350002168486C20F0020040F0010005E02168FF
:10B36000486C20F0010040F0020020F00400486426
:10B37000D9F80010206805F01BFC8FE382E1D0E0D3
:10B380000D3E7328776565707329202564000000E1
:10B390000D3E7328696D6D657229206E202F2F2058
:10B3A00074312C74322C7470202E2E2E2025646E55
:10B3B000732C25646E732C25647573000020014086
:10B3C000D000002066660A40F09A6E3F0000E03F21
:10B3D000CC00002020200D3E61286463292020201D
:10B3E0002055312C49312C55322C49322020202E29
:10B3F0002E2E202564562C2564412C2564562C25A0
:10B400006441000018000020140000200C000020FF
:10B41000100000200A0D3E612864632920202020AE
:10B4200069646C65202020202020202020202E2EE2
:10B430002E202564562C2564412C2564562C256429
:10B44000410000000A0D3E6128646329202020206D
:10B450004973696D6D2C492C55682C556C202E2E26
:10B460002E202564412C2564412C2564562C25640E
:10B4700056000000002101400D3E69284441432947
:10B4800020202069312C69322020202020202020FB
:10B49000202E2E2E20256425632C25642563000094
:10B4A0002168486C20F0030040F004005FE70D972E
:10B4B0003846049722E000BF05EB40000D99C38891
:10B4C0004288FEA00AF026FC04980D9900EB80004B
:10B4D00035F81000401C00EB8000400001EB5001EB
:10B4E00004980D9100EB800005EB4000C388428872
:10B4F000F2A00AF00FFC0498401C049000EB8000BE
:10B5000035F810100029D7D104980D9900EB800070
:10B51000491D05EB40000D9130F8043C30F8082C33
:10B52000E9A00AF0F7FBB9E220688781206804F0FF
:10B5300029FF002604960D966EE0401CFDF702F9E7
:10B5400005EB470A80468946BAF80200FDF7FAF88B
:10B550000022E14BFCF7E4FF0022E04BFDF752F83C
:10B560000022DF4B0DF000FE0022DE4BFDF74AF813
:10B570000022DD4BFCF7D4FF42464B46FCF7D0FFE0
:10B580005A46FDF7AEF80022D84BFCF722FF804662
:10B5900089460D98FDF7C5F842464B46FCF719FF62
:10B5A000FDF7DDF80D9035F81700401CFDF7CAF8DF
:10B5B00007468846BAF80600FDF7C4F80022C64BD5
:10B5C000FCF7AEFF0022C54BFDF71CF80022C44B70
:10B5D0000DF0CAFD0022C34BFDF714F8002200E075
:10B5E0003EE0C14BFCF79CFF3A464346FCF798FF10
:10B5F0005A46FDF776F80022BC4BFCF7EAFE0746F8
:10B6000088460498FDF78DF83A464346FCF7E1FE7C
:10B61000FDF7A5F8761C049006EB860735F81700B1
:10B6200000288AD10AF042FB04994FF47A7091FB0A
:10B63000F0F30D9991FBF0F220680621B0F90C00AF
:10B64000C0EBC00090FBF1F19CA00AF063FB216805
:10B650008889401C00B28881B0F5167FFFF666AF7E
:10B66000A3A00AF057FB19E2701C2C2205A90EF0CA
:10B67000E6FCA04DA04EDFF88482A14F049028B1D3
:10B68000042819D0012013B0BDE8F08F2968642088
:10B6900091FBF0F2316891FBF0F12068D8F800409E
:10B6A000B0F93A302520CDE90004CDE9020395A098
:10B6B0003B680AF02FFBF1E10598FCF73FFE64219F
:10B6C000484330600698FCF739FE642148432860FF
:10B6D0000798FCF733FE38600898FCF72FFEC8F88F
:10B6E0000000DBE100273D46701C2C2205A90EF06E
:10B6F000A6FC30B101287CD002287BD003287AD167
:10B7000088E02568B5F93E00C11700EB5170894902
:10B7100001EBE000FDF705F84FF06632864BFCF7D1
:10B72000FFFE6FF00B02FCF7DCFF4FF05532834B4E
:10B73000FCF768FF4FF066327F4BFCF74AFEFDF7DF
:10B7400089F8FDF744F80746B5F93C008846C1176B
:10B7500000EB5170C010FCF7E4FF4FF06632764BFF
:10B76000FCF7DEFE6FF00B02FCF7BBFF4FF033324D
:10B77000734BFCF747FFFDF76DF8FDF728F804461B
:10B780000E46B5F93800FCF7CCFF4FF066326A4B35
:10B79000FCF7C6FE6FF00B02FCF7A3FF6FF001028F
:10B7A000FCF79FFFDFF8A0B1664A5B46FCF72AFF73
:10B7B000DFF838A100225346FCF70BFEFCF7CFFF61
:10B7C0008146B5F93600FCF7ACFF4FF066325A4BB4
:10B7D000FCF7A6FE6FF00B02FCF783FF6FF001028F
:10B7E000FCF77FFF574A5B46FCF70CFF00225346ED
:10B7F00002E017E012E02AE0FCF7EBFDFCF7AFFFF8
:10B8000001468DE8D00109EBD97042104FA00AF033
:10B8100081FA43E10798FCF791FD07460698FCF78B
:10B820008DFD05460598FCF789FD06461FB90A20DF
:10B8300096FBF0F087191DB9032096FBF0F0351A3E
:10B84000B6F5487F03D8B54201DAB74201DC0220E1
:10B8500019E73046FCF765FF0C22FCF742FF022295
:10B86000FCF73FFFDFF8E0B0364A5B46FCF758FED6
:10B87000DFF8C4904FF0663A52464B46FCF7C2FEE2
:10B88000DFF8688000224346FCF7A3FDFCF767FF62
:10B890002168002288834FF483713948FDF772FDD7
:10B8A0002846FCF73EFF0C22FCF71BFF0222FCF7A8
:10B8B00018FF244A5B46FCF733FE63E00D0A25645B
:10B8C0002C25642C256400000D0A25642C25642C8D
:10B8D00025640D0A3E00000000001C4000001840D6
:10B8E0000000084000007940000024400000E03FD4
:10B8F0000D0A3E0088000020840000208000002007
:10B900007C0000200D3E6628616E292020202054F6
:10B910006C2C54682C6D696E2C6D61782C542E2E15
:10B920002025642C25642C256425632C256425633F
:10B930002C25640000F0FFFF66660A405555D53F90
:10B940003333C33FDEA3EA60F09A6E3F0D3E7528A5
:10B9500062616E6B29202055632C55632F322C3287
:10B96000302C2D35202E2E2E202564562C25645665
:10B970002C252E3166562C252E31665600000000EF
:10B980000022014052464B46FCF73CFE0022434653
:10B99000FCF71FFDFCF7E3FE04463846FCF7C1FE4A
:10B9A0000C22FCF79EFE0222FCF79BFE424A5B46FD
:10B9B000FCF7B6FD52464B46FCF724FE00224346F8
:10B9C000FCF707FDFCF7CBFEE11704EB9171C1F327
:10B9D0008F02C11700EB9170C0F38F013748FDF75C
:10B9E00089FB374C20200D9001220DA920680EF014
:10B9F00097F9E8B30D98032240F30200C0F1080064
:10BA0000864026F0FF0021300D900DA920680EF031
:10BA1000CBFC70BB3DE02A4C88200D9002220DA982
:10BA200020680EF07DF918B30D9800B20AF079FA8B
:10BA3000FCF7CDFE02460B4622A00AF06BF98B20E4
:10BA40000D9002220DA920680EF06AF980B10D98C0
:10BA500000B20AF066FAFCF7BAFE02460B461DA0D9
:10BA60000AF058F997200D9002220DA9206801E0F4
:10BA70000FE013E00EF054F958B10D9800B20AF03F
:10BA800050FAFCF7A4FE02460B4615A00AF042F954
:10BA900004E00420F7E515A00EF064FB0020F2E5B9
:10BAA000701C00F039F9EEE5701C00F06FFBEAE560
:10BAB000701C00F023F8E6E5DEA3EA6000220140F6
:10BAC000E40000200D3E56696E3D252E31662C2087
:10BAD00000000000566F75743D252E31662C200045
:10BAE000506F75743D252E3166000000750D690D8F
:10BAF000730D640D700D620D660D000070B5ADF52F
:10BB00005A7D040089A8D7904FF48070D8900ED049
:10BB10002078652879D025DC744D3E2876D01CDC51
:10BB200020282CD030282CD0312870D129E070A0CA
:10BB30000AF0F0F8FF2189A80BF0ACFF20B989A921
:10BB40006C480CF01AFD18B16BA00AF0E3F8CBE0DA
:10BB500089A96AA00AF0DEF8C6E0632875D06428D7
:10BB600055D10CE06D2862D004DC662878D06928B5
:10BB70004DD18DE0722827D0742848D133E0601C65
:10BB800018E03038C0B20BF071FFC0B920785949C5
:10BB90003038C0B224310CF03DFC80B9FF2189A8B7
:10BBA0000BF078FF58B989A952480CF0E6FC61788F
:10BBB000601C21B1FFF7A2FF0DF55A7D70BDAFF2F9
:10BBC000C300296848618FE020212046FCF75FFB15
:10BBD0002C22C9A90EF033FA022853D1DDE9C9019C
:10BBE0000CF0D0FD2DE02022C9A920460EF027FA46
:10BBF000022847D101226846CA990CF01FFC002890
:10BC000072D13BA00AF086F806E034E065E039E046
:10BC100021463BA00AF07EF86A46042120460BF03C
:10BC2000C5FF0028F4D168460BF02AFF5CE0202213
:10BC3000C9A920460EF003FA022823D1CA980CF0B5
:10BC40006EF8F8B950E000E00AE02022C9A92046C9
:10BC50000EF0F5F9022815D1CA980BF0DDFEF0E7D9
:10BC60002022C9A920460EF0EAF902280AD1CA9872
:10BC700000F062FEA0E72022C9A920460EF0DFF9FD
:10BC8000022801D0012097E7CA980CF04EFED8E7B1
:10BC9000002118480CF04AFD164D4FF6FF760DF2C4
:10BCA0004D34D1A913480CF041FD2869E0B1288C2E
:10BCB000B04201D0D79900E0214612A00AF02AF83C
:10BCC0009DF84C03C00603D510A00AF023F8E8E75E
:10BCD0000FA0D1990AF01EF8E3E729680D484861E2
:10BCE0000020FEF745FC67E7002065E754010020CF
:10BCF0000D0A0000C40400203F3A3E0025733E00B8
:10BD0000257300000D0A252D313673002F00000029
:10BD10002564000071A500082DE9F0430178ADF21B
:10BD2000944DE84F0126E84C4FF0FF3802AD6429EE
:10BD300074D011DC4FF47A69462964D007DC3F29BE
:10BD40006DD0E24F44296BD045296AD155E1502985
:10BD500040D06329F9D12FE06D297DD004DC692919
:10BD600027D06C29F1D1B8E0712976D07529ECD1B2
:10BD7000202229460EF063F90228E6D10BF0B4FA2E
:10BD8000C820396809F084FF0398007866280AD033
:10BD9000682802D0732805D108E0CE49CC48086055
:10BDA00002F08AF88BE102F063F888E102F072F8A1
:10BDB00085E10020C8490BE0202229460EF03FF91A
:10BDC0000228EFD1039800786E3801F0A5FBC34933
:10BDD000086074E1002000F0F1FA044601462522D3
:10BDE000BFA009F097FF0A2C05DD484609F06AFF5D
:10BDF000404600F0E3FAC1A009F08CFF4FF49670C2
:10BE000009F060FF5BE1202229460EF018F90228B4
:10BE100008DA03200DF2944DBDE8F08343E1B4E06D
:10BE200028E1C2E003984FF480550078662820D0BE
:10BE3000752801D00220EDE7B2A009F06BFF0520C4
:10BE4000396809F025FFB5480CF0C0FE411CF6D05A
:10BE50007928A7D10AA901E0BAE048E001200CF056
:10BE6000D9FA01212A4608460CF012F800210120D7
:10BE70002EE0ABA009F04EFF484609F023FF052055
:10BE8000396809F005FFA5480CF0A0FE411CF6D06A
:10BE9000792887D1A8A009F03DFF00245FF0300683
:10BEA00006EBC40000F09EFD082814D0A5A000BF3A
:10BEB00009F030FF641C062CF2DB97A900200CF07F
:10BEC000A9FA2A46012100200BF0E2FF00210846D2
:10BED0000CF0A0FAF3E09CA0EAE72C222946401CD3
:10BEE0000EF0ADF8014602A801F06AFCE7E02C2252
:10BEF0002946401C0EF0A3F8F0B3944C3BE04146B9
:10BF000002980CF06CFFD4F80012884231D1002561
:10BF10008FA009F0FFFE0026A919605CC043C1B2E2
:10BF20008CA009F0F7FE761C102EF5DB0026A9196F
:10BF3000605CC143C8B221385E2804D2C9B26EA089
:10BF400009F0E8FE02E080A009F0E4FE761C102E65
:10BF5000EDDB1035B5F5007FDADB804809F0DAFE5D
:10BF6000386880476D480CF031FE411CF8D01B2822
:10BF700007D004F5017400E004E0D4F80002401C8E
:10BF8000BDD19CE004F0ACF999E02C222946401C7C
:10BF90000EF055F8012802D0022810D005E00298D2
:10BFA0000078312803D0322804D0012032E74946F6
:10BFB0006B4801E049466B4804F01EF97FE00398A6
:10BFC000FCF7BCF904460298FCF7B8F92146F3E700
:10BFD0002C222946401C0EF032F807460AE000BF2A
:10BFE00055F82700FCF7AAF906FA00F12068426C20
:10BFF0008A4342647F1EF3D261E02C222946401C12
:10C000000EF01DF8064631E0206890F84800400721
:10C0100022D555F8260041460CF0E1FE2168096B57
:10C02000084219D038680AF081FD814655F826008B
:10C0300041460CF0D4FE03464B48006842F21071B2
:10C0400090FBF1F201FB12012068026B47A009F09E
:10C0500061FE48460AF06AFD55F8260041460CF09C
:10C06000BEFE01462068026B8A430263761E701C86
:10C07000CAD124E029492C22401C0968396029468C
:10C080000DF0DDFF07460BE0002255F827001146B2
:10C09000FCF71CF906FA00F12068826C8A4382647E
:10C0A0007F1EF1D20BE0202229460DF0C8FF0228A6
:10C0B00005D10398FCF742F9396809F0E9FD002041
:10C0C000A8E600001C000020500000201001002005
:10C0D000DD2F0108C0010020E4000020D400002072
:10C0E0000D0A3E5061636B696E6720736563746F00
:10C0F00072732E2E2E2025642563000020446F6E5F
:10C10000650000000D466F726D61742075736220CA
:10C110002E2E2E5B792F6E5D000000005401002052
:10C120000D466F726D617420666C617368202E2EEF
:10C130002E5B792F6E5D00002065726173696E67FA
:10C14000200000003F0000002E0000000000040856
:10C150000D0A00002530325820000000CCAB010849
:10C160004C180020CC5600205C0100203A253034C9
:10C1700064206572726F7220253034582C2530345B
:10C18000582C20636C6561720D0A3E002DE9F04F5A
:10C19000017889B00125754C6E4669297ED007DC8F
:10C1A000734F44297BD0452943D0652904D11CE035
:10C1B0006D2905D077292DD0012009B0BDE8F08F79
:10C1C0002C223146401C0DF03AFF07460AE000BF22
:10C1D00056F82700FCF7B2F8216805FA00F04A6C1F
:10C1E000104348647F1EF3D2BDE02C223146401C30
:10C1F0000DF025FF07460AE056F82700FCF79EF8E9
:10C20000216805FA00F011F8422F104308707F1ED4
:10C21000F2D2A8E02C223146401C0DF010FF18B1DC
:10C220000098FCF78BF801E04FF4967009F04AFD96
:10C2300099E02C223146401C0DF001FF05464FF0DD
:10C24000FF3853E056F8250041460CF0C8FD45F292
:10C25000A811084207D00021464805F0CAF800217D
:10C26000454805F0C6F8206890F84800400733D5E7
:10C2700056F8250041460CF0B2FD2168096B0842D2
:10C280002AD138680AF052FC834656F82500414608
:10C290000CF0A5FD0346DFF8E49001E041E028E062
:10C2A000D9F8001042F2107A91FBFAF220680AFBEA
:10C2B0001211026B32A009F02DFDD9F80010206890
:10C2C00091FBFAF20AFB1211B0F9342034A009F004
:10C2D00021FD58460AF02AFC56F8250041460CF08C
:10C2E0007EFD01462068026B114301636D1EA9D2D9
:10C2F00039E030492C22401C0968396031460DF084
:10C300009EFE07460AE000BF56F82700FCF716F825
:10C31000216805FA00F08A6C104388647F1EF3D20E
:10C3200021E02C223146401C0DF089FE224C20B128
:10C33000012806D0022816D109E04CF250315820CD
:10C340000EE0022100980CF04AFD002108E001985F
:10C35000FBF7F4FF0546022100980CF040FD29464A
:10C3600001F0BEF92060002027E700005000002007
:10C370001001002000000140000401405C01002089
:10C380003A25303464206572726F7220253034583B
:10C390002C253034582C207365740D0A3E000000A3
:10C3A0003A25303464207374617473202530345816
:10C3B0000D0A3E0054010020E40000202DE9F04F5A
:10C3C0000025304CADF5017D8146AB464FF030087D
:10C3D0004FF4003604F50177BA466D1C09F066FC8F
:10C3E000D4F8000202E000BF07F50177D7F8001289
:10C3F000884202D0491CF7D126E0481C24D00BF11A
:10C40000010B2046204954460844B04203DAD4F8D0
:10C410000002401CDED1B9F1000F02D0404600F00E
:10C42000E1FAD4F8000208F10808401C06F50036CD
:10C43000D0D1B9F1000F1ED0404600F0D3FA002051
:10C440000DF5017DBDE8F08F00206A4654F82010FC
:10C45000C94342F82010401C8028F7DB09F026FC75
:10C46000B9F1000FCDD0012369460020D4F8002295
:10C4700003F072FEC5E764210BFB01F090FBF5F0C1
:10C48000DEE70000000004080402FCF72DE9F04795
:10C490004FF48044204600F01DF921463B4800F04F
:10C4A000B5FB3F4C0028DFF8E8802068394DDFF805
:10C4B000E890DFF8E8A0818E42F2107638D021F0C3
:10C4C000800181860021484604F093FF00215046F8
:10C4D00004F08FFF206890F84810490721D590F8A4
:10C4E000300000061DD4D8F800000AF01FFB0746F4
:10C4F0002868802390FBF6F106FB11012068026B8F
:10C5000028A009F007FC286890FBF6F106FB110152
:10C510002068B0F934202BA009F0FCFB38460AF063
:10C5200005FB2068016B41F080010163BDE8F087E5
:10C5300041F08001818690F8481045F2A81749071C
:10C5400015D5006B384212D0D8F800000AF0EEFA88
:10C55000804628683B4690FBF6F106FB11012068F7
:10C56000026B1DA009F0D6FB40460AF0DFFA2068F6
:10C57000016BB94301630121484604F03AFF50467C
:10C58000BDE8F047012104F034BF0000000C024078
:10C59000100100205C010020000001400004014067
:10C5A000500000203A25303464206572726F72208A
:10C5B000253034582C253034582C207365740D0ADE
:10C5C0003E0000003A253034642073746174732097
:10C5D000253034580D0A3E003A2530346420657207
:10C5E000726F7220253034582C253034582C20633B
:10C5F0006C6561720D0A3E002DE9F0414FF48070C8
:10C6000000F068F84FF480411F4800F0FFFA00285E
:10C6100037D100211D4804F0ECFE00211C4804F035
:10C62000E8FE1C4C206890F84810490724D590F883
:10C630003000800620D4184800680AF077FA174DB9
:10C640000746286842F2107690FBF6F106FB1101CE
:10C6500020682023026B12A009F05CFB286890FB85
:10C66000F6F106FB11012068B0F9342014A009F09E
:10C6700051FB38460AF05AFA2068016B41F020015C
:10C680000163BDE8F0810000000C024000000140A1
:10C690000004014050000020100100205C01002037
:10C6A0003A25303464206572726F72202530345818
:10C6B0002C253034582C207365740D0A3E00000080
:10C6C0003A253034642073746174732025303458F3
:10C6D0000D0A3E000149086070470000143C01400B
:10C6E00030B51A498379026853B30B6893430B60E2
:10C6F0000A1D13680468A343136002790A4413688F
:10C70000046823431360114A083213680468A34382
:10C710001360131D1C680568AC431C604479102C21
:10C7200005D021440A68006802430A6030BD1168E0
:10C73000046821431160196800680143196030BD25
:10C740000079084401689143016030BD003C01401C
:10C750002DE9F05F6949002875D0D1E91842D1E987
:10C76000039A8B46D1E916314A26DFF894E1002579
:10C770000EEB850CBCF802C0B4450ADD3EF925700D
:10C78000ACEB090C0FFA8CFC07FB0CF7FB1841EB28
:10C79000E7715C4F07EB850CBCF802C0B4450ADDBD
:10C7A00037F92570ACEB0A0C0FFA8CFC07FB0CF781
:10C7B0003C1942EBE77205F10105B5F57A6FD7DB5D
:10C7C0005D46C5E91631C5E91842DBF84460771CBF
:10C7D000CBF84470B0F91E70BE427CD190F8346042
:10C7E000642706F0030844F2B33C4FF47A76B8F1BC
:10C7F000010F06D0B8F1020F26D0B8F1030F46D1D1
:10C800004EE0B0F94020A2FB0308D41704FB0383D9
:10C8100002FB013162460023FBF7D0FC3C220023DF
:10C82000FBF7CCFC044602460023072136A0FDF7A7
:10C8300025F994FBF6F006FB104090FBF7F294FB11
:10C84000F6F133A021E051E0B0F94010A1FB04085B
:10C85000CB1703FB048301FB023162460023FBF785
:10C86000ADFC3C220023FBF7A9FC04460246002352
:10C87000072125A0FDF702F994FBF6F006FB104016
:10C8800090FBF7F294FBF6F124A00AF0F9FC0020EB
:10C890006864C5E91800C5E91600401EBDE8F09FB0
:10C8A0001B195141B0F94020A3FB020801FB028192
:10C8B000D41703FB041162460023FBF77FFC3C22E4
:10C8C0000023FBF77BFC04460246002307210EA051
:10C8D000FDF7D4F800E00FE094FBF6F006FB104003
:10C8E00090FBF7F294FBF6F10FA0CEE7002048642E
:10C8F000C1E91800C1E916000020CFE700000020C0
:10C900004C180020CC5600206369635000000000E2
:10C9100045313D25642E25644A00000045323D2501
:10C92000642E25644A00000045312B45323D2564C4
:10C930002E25644A0000000070B5204C0646204DAC
:10C94000206848B146B33178042929D032461DA168
:10C9500009F0D2F9002070BD4FF409710120FBF7F6
:10C96000A7FC206028B1132231460BF067FD10B1FF
:10C9700006E0062070BD2068C1680BF039F920B1CF
:10C9800020680CF0CFF9052070BD10A1206809F0D7
:10C99000B3F9AFF25B000EE00DA009F0BBF9D9E7E7
:10C9A0000BF077FF20680BF06BF820680CF0BAF9F9
:10C9B00000202060074829684861CBE7C4000020B8
:10C9C0005401002025730D0A000000000D00000036
:10C9D0000D0A0000FDBA0008014908607047000018
:10C9E0000C3C024010B5044600F08EF8F320FFF72F
:10C9F000F3FF00BF09F05AF90221204600F004F8C5
:10CA00000128F7D010BD000070B50646002529B1F9
:10CA1000012927D0022928D04FF4407500F086F86C
:10CA200008281ED1124C206820F440702060206835
:10CA300028432060206820F0F8002060206846F03D
:10CA4000020108432060206840F48030206000F03C
:10CA50006DF8216821F002012160216821F0F801C0
:10CA6000216070BD4FF48075D8E74FF40075D5E7AD
:10CA7000103C02400B4908200A68D20301D501206E
:10CA800070470A68D20601D5052070470A6812F07F
:10CA9000EF0F01D00620704709688907FBD50720F2
:10CAA000704700000C3C024070B50C46054600F093
:10CAB0002BF8F320FFF790FF09F0F8F821462846FD
:10CAC00000F004F80128F7D070BD000070B50D46E5
:10CAD000064600F02BF8082813D10A4C206820F4F1
:10CAE00040702060206840F400702060206840F0B2
:10CAF00001002060356000F019F8216821F0010183
:10CB0000216070BD103C024005480068002805DA2D
:10CB1000034804490C380160034901607047000074
:10CB2000103C024023016745AB89EFCD08B50820D2
:10CB30008DF80000FFF79EFF8DF800009DF80000C3
:10CB40000128F7D09DF8000008BDF0B500230124AE
:10CB500003270D6804FA03F21540954242D1D0F83C
:10CB600000C05E0007FA06F52CEA050CC0F800C00C
:10CB700091F804C0D0F800E00CFA06FC4CEA0E0C68
:10CB8000C0F800C091F804C0BCF1010F02D0BCF1A4
:10CB9000020F1FD1D0F808C02CEA050CC0F808C05D
:10CBA00091F805C0D0F808E00CFA06FC4CEA0E0C2F
:10CBB000C0F808C0D0F804C02CEA020CC0F804C0C9
:10CBC000426891F806C00CFA03FC1FFA8CFC42EA9A
:10CBD0000C024260C268AA43C260CA79C568B2400A
:10CBE0002A43C2605B1C102BB3D3F0BD4B07DB0E96
:10CBF0009A40C90810B500EB8100016A0F249C40DF
:10CC0000A1430162016A1143016210BD0246002086
:10CC100012690A4200D00120704702460020526982
:10CC20000A4200D00120704741837047018370475A
:10CC30004FF6FF7101600021017141718171C17175
:10CC400070474069806880B27047D0F8CC000068B7
:10CC5000C0F341407047084490F87F08704700EBEC
:10CC60008100D0F83408704710B504460022104601
:10CC7000C4F8F42704EB8203C3F8F807C3F83408B8
:10CC8000A31883F87008521CD2B20F2AF2D30820DE
:10CC9000A4F89608204607F0C7FF204607F0DEFB01
:10CCA000204607F083FA0121204608F01DF82046AF
:10CCB00007F054FB204607F0B0FD002010BDD0F86F
:10CCC000F407704710B507F09AFF002010BD00224E
:10CCD000431883F87F2800EB4113C3F8A42807F01A
:10CCE000B9BE0000F0B416490A78012A09D0CA6812
:10CCF0000025802A00D1CD60D1E902329A4202D1CA
:10CD00000D70F0BC704702D9C2F1800301E0A3EBC3
:10CD100002031C460B61402B96B205D940234032DA
:10CD2000403CC1E9032403E02244C1E90325A3B246
:10CD300001220A7003498A19F0BC8121FDF764B809
:10CD4000080300200CC300200748006809F0EEFE2D
:10CD50000648006842F2107190FBF1F201FB1201EB
:10CD600003A008F0D7FFFEE70C0100205C010020C3
:10CD70003A2530346420486172644661756C745F92
:10CD800048616E646C65720D0A3E000010B5142196
:10CD9000054800F057F9000A04D003481430018810
:10CDA000C9B2018010BD0000005400402DE9F041DF
:10CDB000414D284600F0DAF8404A0026811A404CDE
:10CDC0004FF4C067904234D02FDC6FF440314018EC
:10CDD0003FD0012862D03F2825D1284600F037F9FE
:10CDE0000246D4E902010B18401C1A73A060C988DE
:10CDF000491E814207D10021284600F06DF801212B
:10CE0000284600F0A9F8E068A168C08888420AD1E5
:10CE100000223946284600F0B0F80121284600F0EB
:10CE20005BF8E068C680BDE8F081022922D00429C1
:10CE3000F9D1E168A0688A8882421DD18E80C888B5
:10CE40004FF00101002828461FD0BDE8F04100F056
:10CE500079B8E0688188007800294FEA40604FEA9D
:10CE6000106101D0002200E00122284600F0F2F813
:10CE7000A660D8E7D4E902010144401C097AA06009
:10CE80002846BDE8F04100F0EDB800F065F83946FD
:10CE90002846BDE8F041002200F06FB8E068C08885
:10CEA0000128C0D10021284600F016F82846BDE828
:10CEB000F041012100F050B800540040800007000C
:10CEC000D80000200029018802D041F0100101E0C3
:10CED00021F01001018070470029018802D041F43F
:10CEE000806101E021F480610180704700290188A0
:10CEF00002D041F0010101E021F001010180704701
:10CF00000D4910B5884202D101214C050AE00B49B8
:10CF1000884202D101218C0504E0094988420AD1E6
:10CF20000121CC05204602F00BFD2046BDE8104053
:10CF3000002102F005BD10BD005400400058004023
:10CF4000005C00400029018802D041F4807101E0BA
:10CF500021F48071018070470029018802D041F4DA
:10CF6000007101E021F4007101807047818A008B1B
:10CF700041EA004121F07F407047002A828801D0B9
:10CF80000A4300E08A438280704700007FB5044670
:10CF900080880D4620F03F06684602F0FDFC2749D8
:10CFA0000298B0FBF1F189B20E43A680228822F0EC
:10CFB00001022280224B2A689A421BD85200B0FB01
:10CFC000F2F080B2042800D20420491C2184A083FE
:10CFD000208840F00100208021884FF6F530014084
:10CFE000A8886A89104308432080A88929890843B2
:10CFF00020817FBDEB88A3F53F46FF3E0BD002EBBF
:10D00000C20303EB0212B0FBF2F080B240F48040A6
:10D01000020506D007E002EB4202B0FBF2F080B25C
:10D02000F6E740F001004FF4967251434FF47A72E4
:10D03000B1FBF2F140F40040C7E7000040420F00AE
:10D04000A086010008B508440090008808BD008A49
:10D05000C0B2704712B141F0010101E001F0FE01E0
:10D0600001827047018270470029018802D041F493
:10D07000004101E0C1F30E010180704700290188E1
:10D0800003D021F080010180704741F08001FAE770
:10D0900041F288310160002181804BF6FF72C2802D
:10D0A000018141814FF480418181704702494CF6F2
:10D0B000CC4008607047000000300040034A014641
:10D0C0000020D2680A4200D00120704700300040A2
:10D0D00002494AF6AA20086070470000003000406C
:10D0E00001494860704700000030004001498860F5
:10D0F00070470000003000400149086070470000A0
:10D100000030004070B52B4C2B4A208802F11001F2
:10D1100008F058FE284A0546608802F1100108F020
:10D1200051FE854201DD208800E06088224A02F13C
:10D13000100108F047FE04462048006841F288319B
:10D14000884233DD1E48C82281688C4201DA0068BB
:10D150000CE0C3689C4201DD406807E041C8651AE5
:10D16000361A7543591A95FBF1F1084440F6B83167
:10D17000484390FBF2F5052D05DBB5F5BB6F03DBEE
:10D1800040F2D75500E005250E4E304604F0F0F988
:10D19000A842304603D204F0EBF9401C02E004F050
:10D1A000E7F9401E0146304604F09AFB642094FBE8
:10D1B000F0F070BD1C180020B0A401085C01002034
:10D1C0007C000020000400401FB501214FF4E06006
:10D1D00002F0C2FB6846FBF7B5FF0020009001900B
:10D1E000029003906846FBF797FF00F005F800F007
:10D1F0007BF800F0F3F81FBDF0B5012197B088056A
:10D2000002F07AFB33480024CDE90040324802A9FD
:10D21000022681E851007002CDE9054040000790E8
:10D22000800008904011099040020A9001250420D6
:10D23000CDE90C54294F0B90694638460E94FDF702
:10D2400053F901213846FDF741F815A8FFF7F0FC26
:10D2500003208DF8580015908DF85B4015A92048E3
:10D26000FFF773FC0FA8FCF7FCF8280711904FF0AC
:10D270006060CDE912040F94164C8DF840504C3C80
:10D280008DF841508DF850600FA92046FCF784F8C6
:10D290000023012209212046FCF7A4F800230222E2
:10D2A00008212046FCF79EF808212046FBF71CFFCA
:10D2B0000C492046FBF710FF01212046FBF752FFE7
:10D2C00001212046FBF71DFF01212046FBF740FF0F
:10D2D00017B0F0BD4C200140CC000020706402402B
:10D2E0000004024000028000F0B5012197B08805DB
:10D2F00002F002FB4FF00070009033480190334879
:10D3000002A90226002481E851007002CDE90540FF
:10D3100040000790800008904011099040020A9058
:10D3200001250420CDE90C54294F0B90694638465D
:10D330000E94FDF7D9F801213846FCF7C7FF15A870
:10D34000FFF776FC3020159003208DF858008DF8FB
:10D350005B4015A91F48FFF7F8FB0FA8FCF781F801
:10D360000F9428071190184C4FF060608DF84050D2
:10D3700012904C3C8DF841508DF850600FA920461A
:10D38000FCF70AF8002301220F212046FCF72AF8B7
:10D39000002302220E212046FCF724F80E2120460D
:10D3A000FBF7A2FE0C492046FBF796FE0121204622
:10D3B000FBF7D8FE01212046FBF7A3FE0121204602
:10D3C000FBF7C6FE17B0F0BD4C210140D000002095
:10D3D00058640240000802400002800070B598B016
:10D3E0000121464802F088FA01218D02284602F008
:10D3F000B3FA280400904248019042480024CDE945
:10D40000020404A9182081E8310068000790800018
:10D4100008904011099040020A9001250420CDE9AE
:10D420000C54394E0B90694630460E94FDF75CF86B
:10D4300001213046FCF74AFF15A8FFF7F9FB03204E
:10D440008DF85800072015908DF85B4015A92F48DE
:10D45000FFF77BFB0E20159015A92D48FFF775FBF4
:10D460000F9411941394264C06208DF840508DF89B
:10D4700050004C3C8DF841500FA92046FBF78CFF23
:10D480000023012219462046FBF7ACFF00230222AD
:10D4900001212046FBF7A6FF00230322022120469C
:10D4A000FBF7A0FF002304220B212046FBF79AFF85
:10D4B000002305220C212046FBF794FF00230622BF
:10D4C0000D212046FBF78EFF0B212046FBF70CFEBB
:10D4D00010492046FBF700FE01212046FBF742FEE3
:10D4E00001212046FBF734FE01212046FBF709FE0F
:10D4F0002046FBF7B1FF18B070BD000004004000EB
:10D500004C2201401C180020106402400000024020
:10D510000008024000028000F0B589B0074607A865
:10D52000FFF786FB02208DF8200020204D4D0124BE
:10D5300007908DF8234007A92846FFF706FB6003F4
:10D5400007908DF8224007A92846FFF7FEFA092226
:10D5500005212846FFF74AFB09220D212846FFF73F
:10D5600045FB0121480602F0DFF90121880602F09F
:10D57000DBF904A8FCF70CFA3B4E3046FCF7C8F880
:10D5800000258DF818508DF819408DF816508DF83B
:10D590001A508DF817408DF81B4017B18DF81240C6
:10D5A00001E08DF81250092103208DF814108DF838
:10D5B00013008DF815000420ADF8100004A93046C2
:10D5C000FCF72AF9ADF802504FF48060ADF8000086
:10D5D000ADF806504FF48C608DF80B40ADF80400A8
:10D5E000ADF808500E208DF80C408DF80A008DF82B
:10D5F0000D406846FCF7A2F84FF4B050ADF80000BB
:10D600004FF4B150ADF804000F208DF80A006846C1
:10D61000FCF794F84FF45070ADF800004FF46660DA
:10D62000ADF8040010208DF80A006846FCF786F873
:10D630004FF47870ADF800004FF4FC60ADF80400D2
:10D6400011208DF80A006846FCF778F801220221C3
:10D650003046FCF7D9F84FF4FA60014608F014FEA2
:10D6600009B0F0BD000402400068004000B587B07A
:10D6700004A8FFF7DDFA6846FCF71EFB03208DF8CF
:10D6800014003020049001208DF8170004A91348DD
:10D69000FFF75BFA0121480702F046F9FCF7C4FAEC
:10D6A0000020019069460390FCF7E4FA69461020D7
:10D6B000FCF7E0FA40F699510A460020FCF7EEFA32
:10D6C0000120FCF7BDFA01210020FCF7A1FA01219D
:10D6D0001020FCF79DFA07B000BD000000000240DA
:10D6E00070B50C46054686B010210120FAF7E0FD22
:10D6F000064605B1358004B1748004A8FFF798FA96
:10D7000002208DF815008DF8140001208DF8160008
:10D710008DF81700C020284D049004A92846FFF773
:10D7200014FA042206212846FFF760FA0422072192
:10D730002846FFF75BFA01214D05284602F0F4F870
:10D740000121284602F0FCF80021284602F0F8F8F2
:10D750001A4D2846FFF7D4FB6846FFF799FC0A20CC
:10D76000ADF804004BF6FF70ADF806000020ADF8F0
:10D7700008002815ADF80A000001ADF80C00694654
:10D7800028460094FFF702FC01212846FFF776FCAB
:10D7900001212846FFF796FB01212846FFF79CFB55
:10D7A00001212846FFF7A2FB012211022846FFF7BC
:10D7B000E4FB06B0304670BD000402400054004057
:10D7C0002DE9FC4706460F466846FFF731FA4FF051
:10D7D00001098DF804908DF8069017B10024244DAE
:10D7E00033E008F0ABFDBDE8FC8700BF56F824002D
:10D7F00000786138092839D2DFE800F005072A2CC3
:10D800002E30323436001B4800E01B4845F8240017
:10D8100056F82400401C46F82400FAF78FFDDFF884
:10D82000508009FA00F008F1280801B228F8141015
:10D83000009155F824006946FFF787F938F814106D
:10D8400055F82400FFF7F2F9641CBC42CEDBCAE7AE
:10D850000A48DBE70A48D9E70A48D7E70A48D5E784
:10D860000A48D3E70A48D1E70A48CFE70020CDE7C6
:10D87000ECA4002000000240000402400008024026
:10D88000000C024000100240001402400018024048
:10D89000001C02400020024038B54FF4C06000F088
:10D8A0004BFD01208DF8010003248DF802408DF816
:10D8B000030019208DF80000684600F00BFD0220DF
:10D8C0008DF801003C208DF80000684600F002FD54
:10D8D0001F208DF80000684600F0FCFC20208DF829
:10D8E0000000684600F0F6FC8DF8014014208DF829
:10D8F0000000684600F0EEFC40208DF8000068460D
:10D9000000F0E8FC1D208DF80000684600F0E2FC05
:10D9100028208DF80000684600F0DCFC17208DF808
:10D920000000684600F0D6FC12208DF80000684622
:10D9300000F0D0FC1E208DF80000684600F0CAFC04
:10D9400025208DF80000684600F0C4FC38BD0000BA
:10D950002DE9F04F9FB014A8FFF76AF902268DF861
:10D9600054604FF003088DF8558032460621FC4F75
:10D970003846FFF73BF9022207213846FFF736F910
:10D980000125C0208DF85750002414908DF8564082
:10D9900014A93846FFF7D9F84FF44050F14F8DF8ED
:10D9A000545014908DF8564014A93846FFF7CDF81E
:10D9B0004FF4805949463846FFF72FF910B9EAA0CD
:10D9C00009F006FC49463846FFF730F94FF4005994
:10D9D00049463846FFF721F910B9E8A009F0F8FBED
:10D9E0004946BA463846FFF721F901218F033846E8
:10D9F00001F0B2FF8DF854408DF8574014A95046FD
:10DA00001497FFF7A2F80E21032002F0DDFB384641
:10DA1000FEF760FE8DF8684010208DF869001997B8
:10DA20008DF86A5019A8FEF75BFEDFF864A38DF845
:10DA30005440BF118DF8575014A950461497FFF762
:10DA400084F80821042002F0BFFB3846FEF742FEAE
:10DA50008DF8684008208DF8690019978DF86A5094
:10DA600019A8FEF73DFE14A8FFF7E2F88DF85760FD
:10DA70008DF854608DF856408DF8558001220921AB
:10DA80005046FFF7B3F801220B215046FFF7AEF8DE
:10DA900001220D215046FFF7A9F801220E21504620
:10DAA000FFF7A4F84FF4D440149014A95046FFF7A0
:10DAB0004CF8DFF8E082032206214046FFF796F893
:10DAC000032207214046FFF791F803220821404630
:10DAD000FFF78CF8032209214046FFF787F84FF43F
