:020000040800F2
:1080000030260120998100084DE20008E9CC0008E3
:1080100009E2000825960008D15A01080000000076
:1080200000000000000000000000000081010108C5
:108030009DA5000800000000B1EF00089D0E01089A
:10804000B3810008B3810008B3810008B381000840
:10805000B3810008B3810008B3810008B381000830
:10806000B3810008B3810008B3810008B381000820
:10807000B3810008B3810008B3810008B381000810
:10808000B3810008B3810008C1910008A1960008DF
:1080900069960008B38100089196000899C5000808
:1080A000B3810008950F0108B3810008B38100086F
:1080B000B381000865130108B38100084DCD0008A5
:1080C0002DCD0008B3810008B3810008B3810008FA
:1080D000B3810008B3810008B3810008B3810008B0
:1080E0002DC40008B3810008B3810008B3810008E3
:1080F000B3810008B3810008B3810008B381000890
:10810000B3810008A1000108B3810008B381000811
:10811000B3810008B3810008B3810008B38100086F
:10812000B3810008B3810008B3810008B38100085F
:1081300089A20008B3810008B38100080D970008E8
:10814000D5960008B3810008FD96000825E30008D5
:10815000B3810008B3810008B3810008B38100082F
:10816000B3810008B3810008B3810008B38100081F
:10817000B3810008B3810008B3810008B38100080F
:10818000B3810008DFF80CD000F042FD0048004742
:108190002590010830260120064880470648004700
:1081A000FEE7FEE7FEE7FEE7FEE7FEE7FEE7FEE7A7
:1081B000FEE7FEE7F10E0108858100082DE9F04198
:1081C0000024061B254671F1000605DA012400276C
:1081D000D0EB070067EB0101161E73F1000605DA0C
:1081E0000027D2EB0702012567EB030300F064FBD5
:1081F00086460E4617469C46AC4204D00025D0EB7E
:10820000050E65EB010624B10020D2EB000760EB00
:10821000030C704631463A466346BDE8F0810000E3
:10822000004870476CAB010810B50446FFF7F8FF33
:108230000068005D00F0010010BDA0F16101192986
:1082400000D82038704740EA01039B0703D009E0BB
:1082500008C9121F08C0042AFAD203E011F8013B32
:1082600000F8013B521EF9D27047D2B201E000F88B
:10827000012B491EFBD270470022F6E710B51346CA
:108280000A4604461946FFF7F0FF204610BDCAB261
:10829000401E10F8011F8A4202D00029F9D10020A7
:1082A0007047421C10F8011B0029FBD1801A70474F
:1082B00010B54843044610F0BDFE002805D000214B
:1082C000002C02D0641E0155FAE710BD2DE9F047DD
:1082D00091460F4680460446002614F8015B2DB1F6
:1082E000FFF79EFF0068405DC007F6D12B2D02D03E
:1082F0002D2D18D0641E4A463946204600F03EFB1C
:1083000027B13968A14201D1C7F8008071054FF04B
:1083100002040BD54042002803DD0DF031FD04605E
:10832000A007BDE8F08746F48066E4E70028F8DAA5
:108330000DF026FD04606FF00040F2E770B50646D0
:108340000DF01EFD046805460A2200213046FFF7A5
:10835000BDFF2C6070BD30B480EA010202F0004520
:1083600030F0004221F0004013D090B1C30DD40D85
:10837000C2F31601C0F31600E41A41F4000140F400
:1083800000027D34914201D3641C00E04900002CBE
:1083900002DA30BC002070474FF400000023914205
:1083A00001D3891A034340084FEA4101F7D151B183
:1083B000914202D14FF0004105E002D24FF001019D
:1083C00001E06FF0010103EBC450284430BC00F021
:1083D00073BB2DE9FE4F804681EA0300C00F0C46B7
:1083E000009021F0004123F00045B8EB0200A941C4
:1083F00005D24046214690461C460B46024623F0D5
:108400000040104347D0270DC7F30A00C3F30A51B9
:108410000290401A019040286BDAC3F3130040F435
:10842000801B0098924620B10023D2EB030A63EB35
:108430000B0B01985946C0F14002504600F06DFA0E
:1084400006460D4650465946019A00F085FA10EB53
:1084500008006141002487EA115284EAE7731A4355
:1084600040D0009A62B3019A012A4FEA075215DC04
:10847000001B61EB02014FF0004202EA0752CDE916
:108480000042001C41F5801132462B4600F05AFB99
:1084900003B0BDE8F08F40462146F9E7001B61EBD1
:1084A0000201001C41F5801300185B412018A2F561
:1084B000001747EB030140EAD570B6196D4111E092
:1084C0006D084FEA360645EAC0754FEA0752001BB1
:1084D00061EB0201001C41F5801149084FEA3000B0
:1084E0000019514132462B4603B0BDE8F04F00F071
:1084F0001ABB0098012240000023D0EB020263EB7C
:10850000E073009821464FEAE074B8EB000061EB9D
:108510000401E9E783F000435BE781F0004158E79D
:108520002DE9FE4F81EA030404F0004421F00041EC
:1085300000944FF0000B23F0004350EA01045ED09A
:1085400052EA03045BD0C3F30A54C1F30A552C4426
:10855000A4F2F3340194A0FB0254C1F3130141F4DB
:108560008011C3F3130343F4801301FB024400FBA7
:10857000034E840A970A44EA815447EA8357A4FBCE
:10858000076802958D0A05FB07854FEA932C04FBCB
:108590000C542705029D4FEA065847EA1637B5EBFB
:1085A00008056EEB070C870E920E47EA811742EA28
:1085B0008312A7FB0201B6EB0B0164EB00042B0D49
:1085C00043EA0C335E1844EB1C50DA465146E7FB95
:1085D0000201C5F313044FEA0B3343EA14534FEA85
:1085E0000432019C43EA0603A4F10C040294009CAB
:1085F000CDE900B400F0A6FA03B0BDE8F08F00208A
:108600000146F9E72DE9F04D81EA030404F0004B3F
:1086100021F0004514464FF0000A23F0004150EAD3
:10862000050220D054EA01021DD0C5F30A570246C4
:10863000C5F31303C1F31300C1F30A5640F48015C8
:1086400043F48013A7EB0608101BD64608F2FD384A
:1086500073EB050002D308F1010801E092185B41B9
:10866000B8F1000F03DA00200146BDE8F08D0020CC
:108670004FF48011064684460EE0171B73EB050786
:1086800005D3121B63EB050306434CEA010C4908B2
:108690004FEA300092185B4150EA0107EDD152EAEF
:1086A000030012D082EA040083EA0501084305D0E2
:1086B000101BAB4106D20122002306E000224FF03E
:1086C000004302E06FF0010253101AEB06004CEB7E
:1086D000085110EB0A0041EB0B01BDE8F04D00F032
:1086E00022BA70B521F0004303430CD0C1F30A5500
:1086F0000024D5EB040564EB0403D617AD1AB3418F
:1087000002DB0020014670BD201841EB025170BD14
:10871000C10F80EAE0700844CA079623002100F0E8
:10872000D4B90EB5C10F80EAE0700844CA07002131
:1087300040F233438DE80E000A460B4600F002FA81
:1087400003B000BD0EB540F2334102910021CDE9E6
:1087500000110A460B4600F0F5F903B000BD70B5F4
:10876000C1F30A5201F000450024C1F3130140F2A5
:10877000FF3341F480119A4201DA002070BD40F2CB
:1087800033439A42A2F2334203DC524200F0D4F85F
:1087900000E090402C43F1D0404270BDC1F30A523A
:1087A00010B5C1F3130140F2FF3341F480119A4236
:1087B00001DA002010BD40F233439A42A2F2334264
:1087C00003DC524200F0B8F810BD904010BD00F03C
:1087D000004230F000400AD0C10D01F56071C0F3D5
:1087E000160042EA0151C2084007114370470020B9
:1087F0000146704730B5041E71F1000404DB4FF0F0
:108800000044404264EB0101141E73F1000405DBD7
:108810001C464FF00043524263EB04038B4208BFF7
:10882000824230BD30B5041E71F1000404DB4FF00C
:108830000044404264EB0101141E73F1000405DBA7
:108840001C464FF00043524263EB0403994208BFB9
:10885000904230BD01F0004330B421F0004150EAB5
:10886000010206D00A0DA2F56072C1F31301002ABD
:1088700002DC30BC00207047440F44EAC104C10050
:10888000E01830BC00EBC25000F016B930B50B4612
:10889000014600202022012409E021FA02F59D4230
:1088A00005D303FA02F5491B04FA02F52844151E04
:1088B000A2F10102F1DC30BD2DE9F05F0546002098
:1088C00092469B4688460646814640241BE0284641
:1088D00041464746224600F02FF853465A46C01AF2
:1088E000914110D311461846224600F016F82D1A71
:1088F00067EB01084F4622460120002100F00DF8E9
:1089000017EB00094E41201EA4F10104DFDC4846AC
:1089100031462A464346BDE8F09F202A04DB203A30
:1089200000FA02F1002070479140C2F1200320FAC2
:1089300003F3194390407047202A04DB203A21FAC0
:1089400002F00021704721FA02F3D040C2F1200268
:108950009140084319467047202A06DBCB17203A7E
:1089600041FA02F043EAE07306E041FA02F3D04034
:10897000C2F1200291400843194670472DE9F05F8B
:1089800082460078002715468B460AF10104B94655
:10899000302801D09DB113E014F8010B012778288D
:1089A00003D0582801D045B10AE00DB1102D07D1F0
:1089B0000027102514F8010B02E0082500E00A2525
:1089C0000026B0460EE005FB080005FB06F1012776
:1089D00001EB10461FFA80F8B6F5803F00D3B94688
:1089E00014F8010B294600F025F90028EBDABBF159
:1089F000000F05D00FB1641E00E05446CBF80040D4
:108A0000B9F1000F06D00DF0BBF902210160C81EBC
:108A1000BDE8F09F48EA0640FAE700000FB40023E3
:108A200000B589B00CA900910B996FF00042CB60A2
:108A30001E4B06931E4B07930423CDE901321D4ABA
:108A4000089202466B46002000F096F909B05DF8E6
:108A500014FB70B586B006464FF0FF300091CDE9AB
:108A60000101002015460C4604903246694604A8D0
:108A7000FFF7D4FF02460498211825B108B1084633
:108A800000E020462860049800280DD0002A02DD6E
:108A90000098884208D0081B0094CDE901043246B2
:108AA000694604A8FFF7BAFF06B070BDB18F000891
:108AB000CF8F0008298200080029A8BF7047401CFA
:108AC000490008BF20F00100704710B4B0FA80FCE4
:108AD00000FA0CF050EA010404BF10BC704749B121
:108AE000CCF1200421FA04F411FA0CF118BF012191
:108AF00021430843A3EB0C01CB1D4FEA00614FEA71
:108B0000102042BF002010BC704700EBC35010443F
:108B10000029A4BF10BC7047401C490008BF20F0CA
:108B2000010010BC704710B5141E73F1000408DA80
:108B3000401C41F1000192185B411A4301D120F021
:108B4000010010BD2DE9F04D92469B4611B1B1FADE
:108B500081F202E0B0FA80F220329046FFF7DDFEAB
:108B600004460F4640EA0A0041EA0B0153465A46C2
:108B7000084313D0114653EA010019D0C8F140024E
:108B80005046FFF7D9FE05460E4650465946424626
:108B9000FFF7C3FE084305D0012004E02046394614
:108BA000BDE8F08D0020054346EAE0762C433743CC
:108BB0000A986305E40AA0EB08000022FD0A44EAD3
:108BC00047540A3002D500200146E9E70105101993
:108BD0006941DDE9084500196941BDE8F04DA2E7AA
:108BE000C1F30A52C1F3130140F2FF3341F4801183
:108BF0009A4202DA00200146704740F233439A421B
:108C0000A2F2334202DC5242FFF796BEFFF785BE66
:108C1000064C074D06E0E06840F0010394E80700C9
:108C200098471034AC42F6D3FFF7B0FAD0AB010846
:108C3000F0AB01083A2800D2303820F02002412A57
:108C400001D3A2F13700884201D34FF0FF307047C3
:108C50002DE9FF4F087883B09946FF2805D0491CBD
:108C60002D2804D00024002008E000200BE001247F
:108C7000F9E700EB800003EB4000491C0B78FF2B69
:108C8000F7D104B1404200230293147819461D46DF
:108C90002D2C01D02B2C04D1521C2D2C13D00024B0
:108CA0000294AA461478FF2C0FD00A25A3FB05785E
:108CB00001FB05814FF0000C03FB0C11521CE31962
:108CC0004AEB0101EEE70124EAE7814453EA01009F
:108CD00002D019F5C87F06DA03980021C0E9001117
:108CE00007B0BDE8F08F0025AE4E2F46DFF8B88202
:108CF000184600F0CEF9CDE90001B9F1000002DA22
:108D0000C9F1000400E004460023A74A1AEB030B54
:108D100042EB045A12E0E00707D02A4633463846B1
:108D20004146FFF7FDFB074688462A463346104674
:108D30001946FFF7F5FB05460E466410002CEAD1F4
:108D4000DDE90001B9F1000F5A46534606DAFFF794
:108D500059FC3A464346FFF755FC05E0FFF7E0FBB8
:108D60003A464346FFF7DCFB029A0AB181F0004124
:108D7000039AC2E90001B3E72DE9FF4F1F468DB00A
:108D8000D7E901464FF0FF382E2045464FF0000945
:108D90000B90B9696D1C0E988847396A82468847DE
:108DA0000028F6D1BAF1FF3F0AD024F4D064002E97
:108DB00011DDBAF12B0F08D0BAF12D0F0BD102E063
:108DC000404611B08DE744F48064B9696D1C0E987B
:108DD00088478246761E6946600501D52D2000E051
:108DE0002B208DF8000001F1010B0DF1200809E0A6
:108DF000B9696D1C0E98884782460F9844F4007438
:108E0000761E0560002E02DDBAF1300FF0D00B990E
:108E10008A453ED144F0800406E00F99681CA9F110
:108E2000010944F400740860B9696D1C761E0E983F
:108E3000884782463028F0D02BE00B998A4505D12F
:108E4000200603D444F08004761E18E050460DF04E
:108E500017FA08B30DF11301761E44F400748B4524
:108E600008D2AAF130000BF8010B200607D5A9F1B2
:108E7000010003E0200602D409F101008146A005AB
:108E800002D50F99681C0860B9696D1C0E98884757
:108E90008246002ED1DC53E0002E51DDBAF1650F81
:108EA00002D0BAF1450F4BD1A00549D5B9696D1C67
:108EB00024F44074761E0E9888478246002E0CDDFE
:108EC0002B2804D0BAF12D0F07D144F48074B9696E
:108ED0006D1C0E9888478246761EE00501D52D212F
:108EE00000E02B2108F8011BCDF82C8021E00DF1CA
:108EF0002901761E44F4007488450CD2AAF1300092
:108F000010F0FF0088F8000002D10B99884509D9BC
:108F100008F1010806E0E00501D5244801E042F22D
:108F20000F708146B9696D1C0E98884782460F986C
:108F30000560002E04DD50460DF0A2F90028D6D1C0
:108F4000F9690E988847FF208BF8000088F8000028
:108F50000020069007904B466A4608A906A8FFF72E
:108F600077FEA00502D46FF001002AE714F0240F69
:108F70000AD0E00714D1DDE906123868031D3B6012
:108F80000068C0E900120BE0DDE90601FFF762FCB2
:108F90000146E00704D13868021D3A6000680160AC
:108FA00028460EE7000014400000F03FF1D8FFFF14
:108FB000426842B1016811F8013B23B1521EC0E979
:108FC0000012184670470121C160881E7047426830
:108FD0005AB1C368016843B983688B4205D0491E02
:108FE000521CC0E90012002070474FF0FF3070475C
:108FF0002DE9F04D00231A461B1A8A4103DB00209D
:109000000146BDE8F08DC1F30A52C1F3130141F4EA
:1090100080154FF0000BD10702D100186D41521E90
:109020000027044640F2FF11384601EB620A3E4633
:109030008046024600204FF48011FFF77DFCC219E4
:109040007141BB1846EB0100B4EB030C75EB000C4F
:1090500004D3E41A65EB000517460E46241908F1FF
:1090600001006D4180463428E3DDF91946EB060026
:10907000091BA84103D24FF0FF32134601E0002242
:1090800013461BEB070046EB0A51BDE8F04DFFF716
:109090004ABD0EB540F2334202920022CDE90022D1
:1090A0001346FFF74FFD03B000BD70B58C1810F8E4
:1090B000015B15F0070301D110F8013B2A1106D11D
:1090C00010F8012B03E010F8016B01F8016B5B1E37
:1090D000F9D12B0705D40023521E0DD401F8013B12
:1090E000FAE710F8013BCB1A921C03E013F8015B7E
:1090F00001F8015B521EF9D5A142D8D3002070BD02
:109100004268024B1A400A4342607047FFFD3FFF2E
:10911000426822F01F020A43426070474162826245
:1091200070476FEA1121016070470029816802D001
:1091300041F0010101E021F0010181607047000070
:10914000084B10B5D3F8042307490A40D0E90014AE
:109150002143D0E90240044321431143C3F80413DF
:1091600010BD000000200140E030FCFF0021016044
:1091700041608160C16070470029816802D041F47C
:10918000807101E021F4807181607047002981685D
:1091900002D041F4007101E021F400718160704758
:1091A00030B50246002053680C0A01258D40116835
:1091B0002B40214202D0002B00D0012030BD000006
:1091C0002DE9F05FDFF890914FF4837841464846EF
:1091D000FFF7E6FFDFF884A1DFF884B1614F624D4D
:1091E000624C42F21076002836D041464846FFF7DE
:1091F00098FF0021504608F0DAF80021584608F0A0
:10920000D6F8206890F85010490720D5008FC00488
:109210001DD438680DF06CFC814628684FF48053EB
:1092200090FBF6F106FB11012068826B50A00CF058
:1092300053FD286890FBF6F106FB11012068B0F998
:109240003C2053A00CF048FD48460DF051FC20682E
:10925000816B41F480518163DFF848914146484673
:10926000FFF79EFF002836D041464846FFF759FFDA
:109270000021504608F09BF80021584608F097F866
:10928000206890F85010490720D5008FC0041DD4E5
:1092900038680DF02DFC814628684FF4805390FB10
:1092A000F6F106FB11012068826B31A00CF014FD71
:1092B000286890FBF6F106FB11012068B0F93C200C
:1092C00033A00CF009FD48460DF012FC2068816BBC
:1092D00041F480518163DFF8D09041464846FFF762
:1092E0005FFF002836D041464846FFF71AFF0021AD
:1092F000504608F05CF80021584608F058F82068FD
:1093000090F85010490720D5008FC0041DD438684C
:109310000DF0EEFB074628684FF4805390FBF6F102
:1093200006FB11012068826B11A00CF0D5FC2868A7
:1093300090FBF6F106FB11012068B0F93C2014A067
:109340000CF0CAFC38460DF0D3FB2068816B41F469
:1093500080518163BDE8F09F002001400000014082
:1093600000040140100100205C010020500000209A
:109370003A25303464206572726F7220253034587B
:109380002C253034582C207365740D0A3E000000E3
:109390003A25303464207374617473202530345856
:1093A0000D0A3E00002101400022014001238B40B4
:1093B00041680AB1194300E09943416070470000D9
:1093C00030B542680F4B0C791A400B6842EA042210
:1093D0001343436082680C4B4D791A40D1E9034333
:1093E00023438C6844EA4504234313438360C26AE1
:1093F000097D22F47002491EC9B242EA0151C162DC
:1094000030BD0000FFFEFFFCFDF7FFC070B5072474
:1094100009290AD9C568A1F10A0606EB4606B44037
:10942000A543B3401D43C56007E0056901EB410654
:10943000B440A543B3401D4305611F23072A09D249
:10944000446B521E02EB820293409C4391400C43BA
:10945000446370BD0D2A09D2046BD21F02EB820255
:1094600093409C4391400C43046370BDC46A0D3A21
:1094700002EB820293409C4391400C43C46270BD56
:10948000816841F080418160704700210160017175
:1094900041718160C1600161012101757047000067
:1094A00070B501217F2006F005FA58210120FEF752
:1094B000FFFE414C002164222065C180018181832F
:1094C00042818282012242804FF47A72828002803D
:1094D00001834183C18202220282C2810C22428224
:1094E0008281016240F22622C2624162FA22026354
:1094F0001E2242633C22A0F84820A0F85410A0F895
:10950000561004F099F94FF4612004F01FFC2B4D24
:109510002860002003F0D0FF2949086003F024FEF2
:1095200004F0E6F94CF25031582004F0A9F825492E
:10953000086007F0BBFC206DC16C41F00401C16400
:10954000A16807F00DFB206D06F0FAFE4FF496704F
:109550000CF09AFB04F05AF828680DF0C9FA7C2048
:1095600006F042FA01281CD07D2006F03DFA0128C1
:1095700019D07E2006F038FA012816D07B2006F09C
:1095800033FA012813D07A2006F02EFA06F0DAF921
:1095900000200DF0ADFABDE870400BA1002000F0F6
:1095A0000BBB0BA004E00FA002E013A000E017A08B
:1095B0000CF092FBEAE70000000000200801002008
:1095C000D4000020E40000206366672E696E690005
:1095D0000D202E2E2E205357522072657365740D68
:1095E0000A3E00000D202E2E2E204957444720729F
:1095F000657365740D0A3E000D202E2E2E205757E0
:1096000044472072657365740D0A3E000D202E2EAE
:109610002E20706F776572206F6E2072657365748F
:109620000D0A3E00074800680DF062FA064800681F
:1096300042F2107190FBF1F201FB120103A00CF059
:109640004BFBFEE70C0100205C0100203A25303482
:1096500064204275734661756C745F48616E646C1A
:1096600065720D0A3E00000000B585B06A46002113
:10967000054800F05DF90548142269460068006855
:109680000CF008FD05B000BD00640040D4000020CF
:109690000248016841F00401016070470464004021
:1096A0000A4800B5006885B01422406869460CF08D
:1096B000DBFC0100064804D0694600F091F905B0D2
:1096C00000BD0022012100F0B7F8F8E7D400002027
:1096D0000064004000B585B06A460021054800F0EE
:1096E00027F9054814226946006800680CF0D2FC8E
:1096F00005B000BD00680040D400002002480168A9
:1097000041F0040101607047046800400A4800B558
:10971000006885B01422406869460CF0A5FC010081
:10972000064804D0694600F05BF905B000BD002290
:10973000012100F081F8F8E7D40000200068004023
:10974000094910B588424FF0010101D14C0601E0F2
:109750004FF08064204606F0D1F82046BDE8104066
:10976000002106F0CBB8000000640040F0B5827A1A
:10977000012191402E4A136843F0010313602C4BE2
:109780001C331C688C431C60294D067B294C0C350E
:10979000A6B92E688E432E604688C78846EA0746DB
:1097A000877A04EBC707C7F840660688878846EAC9
:1097B0000746877A04EBC707C7F84466067B012E85
:1097C00012D12E680E432E60867A056804EBC60619
:1097D0004FEA3545C6F84056867A456804EBC6041C
:1097E0004FEA3545C4F84456114CC57A241D002D66
:1097F000256806D00D4325600D4C0589143415B13C
:1098000004E08D43F7E725688D4325600589012D28
:1098100002D125680D432560407B012802D11868DC
:1098200008431860106820F001001060F0BD0000CF
:109830000066004000600040002A426901D00A43EF
:1098400000E08A434261704710B50368002223F0AC
:1098500002030360036843F0010303604FF6FF73E4
:1098600000E0521C4468E40701D19A42F9D14268F1
:10987000D2073ED08A79012A02683CD022F08002C9
:109880000260CA79012A026838D022F040020260E0
:109890000A7A012A026834D022F0200202604A7A51
:1098A000012A026830D022F0100202608A7A012A6E
:1098B00002682CD022F008020260CA7A012A0268EB
:1098C00028D022F0040202608A78CC78920742EA1B
:1098D00004620C7942EA04424C79098842EA045253
:1098E000491E0A43C261016821F0010101600021A3
:1098F00014E0002010BD42F08002C1E742F04002B7
:10990000C5E742F02002C9E742F01002CDE742F07D
:109910000802D1E742F00402D5E7491C4268D207A9
:1099200001D09942F9D14068C007E2D1012010BDB1
:1099300010B500EB0113D3F8B04114F00404147215
:10994000D3F8B04134D0E408C2F80440D3F8B041B1
:1099500004F002045472D3F8B44104F00F0494727A
:10996000D3F8B441240AD474D3F8B841D472D3F8EC
:10997000B841240A1473D3F8B841240C5473D3F8B3
:10998000B841240E9473D3F8BC41D473D3F8BC41CE
:10999000240A1474D3F8BC41240C5474D3F8BC3199
:1099A0001B0E937439B1016941F02001016110BDB2
:1099B000640D1460CAE7C16841F02001C16010BDA8
:1099C00000218171C171017241728172C172817015
:1099D000C170032101710221417101210180704791
:1099E00030B50246002093685B0108D490680001FE
:1099F00001D5012003E09068C00037D5022002EBBA
:109A00000012D2F8803103F00103C2F880310B7AE2
:109A100073B3D2F880414D681C434B7A43EAC503C7
:109A20001C43C2F880418B7A03F00F038B72D2F88B
:109A3000843123F00F03C2F88431D2F884318C7A58
:109A40002343C2F88431CB7ACC6843EA0423C2F8BA
:109A50008831CB7B096943EA0121C2F88C11D2F825
:109A6000801141F00101C2F8801130BD042030BDE9
:109A7000D2F880314C7A23430C8843EA4453C2F82D
:109A80008031D0E710B50022044B03E050F82240AB
:109A90001C60521C8A42F9D3186810BD0030024085
:109AA0000149012088607047003002400FB470B552
:109AB00088B0142236496846FEF7C5FB354C0C9831
:109AC00008B10DAD3AE0344800682064002008B0C9
:109AD00070BC5DF814FB01CD059011F8012B05A8B1
:109AE0000C91632A17D006DC2E2A09D0452A0FD004
:109AF000502A23D10AE0692A11D0772A1ED10CE01E
:109B0000142268460599FEF79EFB17E0402000E00E
:109B10004320009012E0002202E0012200E0032234
:109B20000DF10B019DF80A6010F8013B73549DF88C
:109B30000A305B1C8DF80A30521EF3D20C9908785B
:109B40000028C8D1206CD8B10CF0D2FF206413A03B
:109B500000990CF0C1F800256E4606E070192E2120
:109B6000C27A11A00CF0B8F86D1C9DF80A00A8424A
:109B7000F4DC0FA00CF0B0F8206C0CF0B9FF2064FE
:109B80000C4814226946006840680CF083FA9EE78E
:109B900060A4010800000020540100202530325844
:109BA0002E3C3C2E0000000025632530325800007A
:109BB0000D0A3E00D4000020F0B5ADF2644D0C4615
:109BC00006460DF035FF002833D189A930460EF046
:109BD00003FC00282DD10122214668460EF010FC1E
:109BE000002826D1144C154DDDE90201884219D018
:109BF00020680CF07DFF07460DF25C430122191F1F
:109C000068460EF0CEFC38B9DDF85C04012803D1BB
:109C1000DDF8580410F078FA38460CF069FF28682F
:109C20008047E1E768460DF00DFF002130460EF059
:109C3000D3FB0DF2644DF0BD080100201C00002094
:109C4000044A01238340106809B1184300E0984397
:109C5000106070470074004010B501214C07204689
:109C600005F04CFE2046BDE81040002105F046BE40
:109C700005490028086802D040F0030001E020F008
:109C8000030008607047000004740040044908B5F0
:109C900001EB90002C300090006880B208BD0000FD
:109CA0000074004030B5084C236840F6FE728240D4
:109CB0009343D1E900252A43D1E902510D432A43B8
:109CC00082401A43226030BD00740040082805D04D
:109CD00042EA0141034A10440162704742EA01210D
:109CE000F8E70000007400400021016041608160DD
:109CF000C160704710B50A460C0601F07F0303EB04
:109D0000830100EBC10102D501F58E7101E001F57F
:109D10005D71D2090B704A700AF074FC002010BD0E
:109D20000A4610B5090602F07F0306D503EB83014E
:109D300000EBC10101F58E7105E002EB820100EB41
:109D4000C10101F55D7100248C700B70D2094A705D
:109D50000AF03FFC002010BD10B50A0604D501F042
:109D60007F010AF07DFD01E00AF05EFD002010BDDC
:109D700070B50C460E0601F07F0505EB850100EB82
:109D8000C10102D501F58E7101E001F55D71E409B3
:109D90000D704C708A60CB7000D0CD80022B01D149
:109DA00000220A710AF0ECFB002070BD10B501F032
:109DB0007F0404EB840100EBC101C1F88833C1F8D2
:109DC00080230023C1F88C3381F8753381F8744304
:109DD000C37801F55D71012B00D10A6114F0FF0F0A
:109DE00003D00AF041FC002010BD0AF05BFBFAE74B
:109DF0000069002261F30A12016811430160704793
:109E00000A4610B5090602F07F0306D503EB83016D
:109E100000EBC10101F58E7105E002EB820100EB60
:109E2000C10101F55D7101248C700B70D2094A707B
:109E30000AF002FC002010BD70B511F07F0404EBA5
:109E4000840100EBC1014FF0010581F81D5181F83B
:109E50001C41C1F82821C1F82C2101F58E714FF069
:109E60000002C1E9053203D00AF0FEFB002070BDFC
:109E70000AF018FBFAE700002DE9F041064600253C
:109E80000AF072FE074655E0F80751D03069EAB291
:109E90000369416BD14006EB820201F00101926936
:109EA00043EAC11194680C40E1071AD00124426BC7
:109EB00004FA05F18A43426306EB850080698460F9
:109EC0001F48E9B20068426830469047F0780128A0
:109ED00007D135B996F81101042802D130460AF0AD
:109EE0003DFB200704D506EB8500082480698460CB
:109EF000E00604D506EB85001024806984606006C6
:109F000004D506EB8500402480698460A00704D551
:109F100006EB8500022480698460200608D5294666
:109F2000304600F067F906EB85018020896988607A
:109F30007F086D1C002FA7D10120BDE8F081000033
:109F4000480200202DE9F041064600240AF012FEE6
:109F50000746DFF8988043E0F8073FD0E1B230468B
:109F60000AF00EFE0546C00725D006EB8400012549
:109F7000416D8D60F17801290CD1406D016904EBD0
:109F8000840006EBC000C1F31201D0F87C23511A03
:109F9000C0F88C13D8F80000E1B202683046904750
:109FA000F078012807D134B996F81101052802D1BB
:109FB00030460AF0D3FAA80704D506EB8400022540
:109FC000406D8560280709D5D8F8000081683046C3
:109FD000884706EB84010820496D88607F08641C6F
:109FE000002FB9D10120BDE8F08100004802002017
:109FF00070B50646C068816921F010018161F06882
:10A00000056A05F00F0000EB800006EBC004C5F305
:10A01000434004F55D74072821D2DFE800F02020DA
:10A0200004202020150047F6F070054217D0C5F334
:10A030000A152A463046E1680AF0B3FDE068284474
:10A04000E060A069284409E0082206F2CC513046BD
:10A050000AF0A7FDA069C5F30A110844A061F068E1
:10A06000816941F010018161012070BD38B504465D
:10A0700000208DF8000094F812018DF800001548BA
:10A08000006841692046884720698068E2684FF48B
:10A0900000615161A17AD1B1C00718D094F81501BF
:10A0A000012814D19DF80000032810D1D4F80C0128
:10A0B000016841F001010160D4F80C01016841F030
:10A0C000030101600448016841F0060101600120BC
:10A0D00038BD00004802002010ED00E070B50446D5
:10A0E000006900250126416821F0010141602946EF
:10A0F00020460AF0B5FB0020FF2106E004EB8002B9
:10A1000093699960526D9160401C62788242F5D8E3
:10A1100021694FF0FF3088612846216966F30F00FE
:10A1200066F31F40C861216945F00B004861216951
:10A1300045F00B0008612069016821F4FE610160AF
:10A1400020460AF00BFAE1684FF48050486103485A
:10A150000068016920468847012070BD4802002040
:10A1600070B504460AF042FD0122002384F8122152
:10A1700084F814311946402511E000BF01EB81003D
:10A1800004EBC00080F81D2180F81C11A0F82211FA
:10A1900080F81F31C0E94953491CC0F8303160785C
:10A1A0008842EBD8002110E001EB810004EBC002F3
:10A1B00082F8753382F87413A2F87A1382F8773331
:10A1C000C2E9DF53491CC2F8883360788842EBD873
:10A1D00020460AF025F9204609F0C6FF0021204656
:10A1E0000AF064FD204609F0FFFF2046BDE87040FC
:10A1F0000AF0F5BA2DE9F0470E46054601EB860058
:10A2000005EBC004D4E94C01421AD4F8240104F54A
:10A210008E74904200D20246D21C970805EB860944
:10A2200023E000BFA0EB0108A168414500D28846A9
:10A2300008F1030087081FFA88F3F2B22846E168A4
:10A240000BF032FCE16801EB0800E060A16901EB72
:10A250000800A0616169884207D321780120884005
:10A2600029694A6B82434A630BE0D9F81800806978
:10A2700080B2B84205D9D4E90501814201D2002853
:10A28000D0D10120BDE8F08710B5002007F0B0FB69
:10A290000348006810F84A1F41F00801017010BD22
:10A2A00050000020074A904201D2074801E00548CB
:10A2B0001038064A8B0001EA020101D5C1607047DF
:10A2C0008160704710640240006002407D0F7D0F86
:10A2D000074A904201D2074801E005481038064A73
:10A2E0008B0001EA020101D5C160704781607047AF
:10A2F00010640240006002407D0F7D0F002901685C
:10A3000002D041F0010101E021F00101016070473C
:10A310002DE9F04190B00546684600F02EF9012184
:10A32000880505F0C7FADFF88880404600F044F859
:10A33000204F4FF00066CDE9006768680024694649
:10A34000006802904020CDE90304C002CDE9094035
:10A35000C011CDE90540089407940D9440460E9431
:10A3600000F0DAF801214046FFF7C8FFDFF840802F
:10A37000A8F17808404600F01FF8CDE9006728688A
:10A3800069460068CDE902048020049040000990ED
:10A39000404600F0C1F801214046FFF7AFFF01221F
:10A3A000C021381F07F0F4FB10B0BDE8F0810000B9
:10A3B000B8640240041001402DE9F043016821F027
:10A3C000010101600021016041608160C1600161A3
:10A3D000212141613C493C4A3D251039904202D13E
:10A3E0008D60BDE8F083384A4FF4746618329042AD
:10A3F00001D18E60F5E7344A4FF474173032904241
:10A4000001D18F60EDE7304A4FF0746C48329042D2
:10A4100002D1C1F808C0E4E72B4B2C4A60339842C4
:10A4200001D1CA60DDE7284C294B7834A04201D124
:10A43000CB60D6E7DFF89080264C08F190084045C5
:10A4400001D1CC60CDE7DFF880804FF03D5908F1B5
:10A45000A808404502D1C1F80C90C2E71E49DFF8B8
:10A4600078800839404501D10D60BAE71A4D18359A
:10A47000A84201D10E60B4E7174D3035A84201D192
:10A480000F60AEE7144D4835A84202D1C1F800C0B4
:10A49000A7E7114D10496035091FA84201D10A6094
:10A4A0009FE70D4A7832904201D10B6099E70A4A42
:10A4B0009032904201D10C6093E7074AA832904253
:10A4C0008FD1C1F800908CE7106002403D00002061
:10A4D000400F002000003D20106402400146002093
:10A4E0000968C90700D0012070470B0607D54369EA
:10A4F00012B143F0800301E023F08003436180291F
:10A5000008D0002A026801F01E0101D00A4300E0D1
:10A510008A4302607047000030B50368124ACC6875
:10A5200013400A682243D1E905452C432243CC69F4
:10A5300022430C6A22434C6A22438C6A22434C6BAE
:10A5400022438C6B22431A430260426922F00703C4
:10A55000D1E90B2422431A4342610A6942604A68E6
:10A5600082608968C16030BD3F801CF00AB1016122
:10A570007047C160704741607047002101604160D1
:10A580008160C160016141618161C16101624162BB
:10A590008162C1620163416381637047704700005B
:10A5A0002DE9F04F93B006007ED03078DFF8FCA3A1
:10A5B0000027FF4C4FF0FF3B612876D02ADC3F2874
:10A5C00001F0398215DCFB4DFB4C2E286ED008DCE7
:10A5D00023286CD02B2801F037822D2868D101F078
:10A5E0002FBA3A2801F034823C287DD03E28F5D19C
:10A5F00012E1532879D006DC42283FD0442875D098
:10A600004C28EBD185E0552871D0562823D0572807
:10A61000E4D158E0DFF8A493E94D62384FF0010827
:10A62000172845D2DFE810F02D034400FF02500741
:10A63000EF07440044001F06440044004400440067
:10A64000440044004F025B03550182048A062D0832
:10A6500017008A0163060121080305F02BF9FFF7B3
:10A660001FFAD848D849081A8108D648FFF70AFACD
:10A6700012220090D5A30121D7A0C8E3701C2C2280
:10A6800005A90FF0BEFC0490002811D0012812DDAE
:10A69000002211460698FDF719FE044600221146D5
:10A6A0000598FDF713FE04E0B2E3B2E3DFE0BBE19F
:10A6B000D9E0047034E2002211460598FDF706FE49
:10A6C0000178CAA022E0701C2C2205A90FF099FC89
:10A6D00004900028D9D0012811DD002211460698E7
:10A6E000FDF7F4FD044603E062E031E036E091E37B
:10A6F000002211460598FDF7E9FD0480DAE7002203
:10A7000011460598FDF7E2FD0188BAA00BF0E4FAC6
:10A71000D0E7701C2C2205A90FF073FC04900028D0
:10A72000B3D001280CDD002211460698FDF7CEFDBE
:10A730000446002211460598FDF7C8FD0460B9E7FC
:10A74000002211460598FDF7C1FD0168ABA0DDE7C9
:10A7500030460FF0AFFB13B0BDE8F08F701C2C2219
:10A7600005A90FF04EFC049002287CDB032803D1DE
:10A770000798007869280DD05C46594606980EF077
:10A7800010FB0490214605980EF00BFB04990FF086
:10A790005BFB8FE75C46594606980EF002FB04907F
:10A7A000214605980EF0FDFA04990EF0EFFB81E7C3
:10A7B00014210EA8FDF760FD761C022130460EF034
:10A7C000F0FAB71C00260DF138080E9009E0B81910
:10A7D00002210EF0E6FA06EBD67208EB6201B61C17
:10A7E000C8723846FDF75DFDB042F0D806EBD67072
:10A7F00040088DF84200002202212846FFF71CF88D
:10A80000206814220EA900680BF044FC01220221EA
:10A810002846FFF711F84DE714210EA8FDF72CFD8F
:10A82000761C022130460EF0BCFA00250EAFB61C95
:10A830000E9009E0701902210EF0B3FA05EBD57104
:10A8400007EB6101AD1CC8723046FDF72AFDA84236
:10A85000F0D805EBD57040088DF84200206814222E
:10A860000EA9406800E09FE00BF014FC22E71422E0
:10A8700064490EA8FDF7E7FC771C00260DF13808A7
:10A8800009E0B81902210EF08CFA06EBD67208EB3B
:10A890006201B61CC8723846FDF703FDB042F0D81D
:10A8A00006EBD67040088DF84200002202212846AF
:10A8B000FEF7C2FF206814220EA900680BF0EAFB25
:10A8C000012202212846FEF7B7FF0020FFF7EEF82D
:10A8D000F0E6701C2C2205A90FF093FB04900028D1
:10A8E00062D0012804DD0698FDF728FD0D9001E0F7
:10A8F000CDF83480594605980EF053FA0490FF289D
:10A9000007DD4FF6FF7101EA0021C0F30720014384
:10A9100004913D4804A90D9A00680FF0E3F9E8B3EB
:10A920003AA00BF0D9F90D98C10008FA01F8049982
:10A93000A8F101020A40410035A042E1701C2C221E
:10A9400005A90FF05EFB049002282DD15C46594604
:10A9500005980EF026FA0490FF280FDD4FF6FF71E0
:10A9600001EA0021C0F30720014304912146069823
:10A970000EF017FA049941EA004006E021460698D5
:10A980000EF00FFA049941EA002004900598FDF7B3
:10A9900088FC44080698FDF784FC00E041E004EBE5
:10A9A000500204A9184837E04AE30000DEA3EA6039
:10A9B0005000002000680040D40000200800002063
:10A9C00054950020008000080000040846656220BD
:10A9D00031392032303231002025642E2530326466
:10A9E0002025732C203C253038583E002C25303251
:10A9F000580000002C253034580000002C25303839
:10AA00005800000094A40108E40000202C0000007D
:10AA100025302A580000000000680FF0A7FC00282D
:10AA20007ED10421FCA071E6701C2C2205A90FF038
:10AA3000E8FAFE4C4FF40061049010B1022807D0F0
:10AA4000FEE224F81070401C04908842F9D331E6ED
:10AA500034F810201AB1801C04908842F8D305986D
:10AA60000CF066F806460D460698FDF767FCFDF704
:10AA700058FE0022EE4B0EF059FB32462B46FDF7F6
:10AA80004FFD0022EB4BFDF7BDFD0022EA4BFDF729
:10AA9000A0FC06460D462068FDF743FE32462B46D5
:10AAA000FDF797FCFDF75BFE20600598FDF746FC7F
:10AAB000049924F811000698FDF740FC049904EB72
:10AAC00041014880F6E5701C2C2205A90FF099FA87
:10AAD0000490002840D072DD0598FDF72FFC216816
:10AAE0004881049801287DDD06980CF021F80022A9
:10AAF000D24BFDF797FE67D82068B0F91C00FDF730
:10AB000010FE4FF06632CE4BFDF70AFD6FF00B02E0
:10AB1000FDF7E7FD6FF00102FDF7E3FD524600E0AF
:10AB200046E2C84BFDF76EFD0022C34BFDF751FC1A
:10AB3000FDF715FEFDF7ECFDFDF749FE05460E4657
:10AB400006980BF0F5FF0022BF4BFDF7E9FC2A4603
:10AB50003346FDF757FD3EE02568B5F91C00FDF7CB
:10AB6000E0FD4FF06632B64BFDF7DAFC6FF00B02FA
:10AB7000FDF7B7FD6FF00102FDF7B3FD5246B14B93
:10AB8000FDF740FD0022AC4BFDF723FCFDF7E7FD90
:10AB9000B5F90C1048434FF4167190FBF1F2B5F97A
:10ABA0000A10AAA00BF098F82068B0F9541019B94F
:10ABB000B0F85620002A85D0B0F9562000E011E008
:10ABC000ACA00BF089F875E506980BF0B1FF0022F8
:10ABD0009D4BFDF7A5FCFDF7C2FD21688881049817
:10ABE000032809D0206880F82880206805F0A8FB99
:10ABF0000498042807D05DE50798FDF79FFB2168BE
:10AC000081F82800F1E70798FDF798FB2168A1F883
:10AC100054000898FDF792FB2168A1F856000846F9
:10AC200003F05CFD46E5701C2C2205A90FF0E9F944
:10AC30000490002814D04EDD0598FDF77FFB2168B5
:10AC400088820498012846DD06980BF071FF0022E7
:10AC50007D4BFDF765FCFDF782FD216848823AE0F7
:10AC60002468B4F91200FDF753FD8C49FDF773FB1E
:10AC7000FDF7ADFDB4F9144002460B46214688A00D
:10AC800061E3701C2C2205A90FF0BBF90490002889
:10AC900016D01EDD0598FDF751FB21684880049809
:10ACA000012816DD0698FDF749FB21688880049885
:10ACB00002280EDD0798FDF741FB216808800AE0B5
:10ACC0002068B0F90030B0F90420B0F902107EA07D
:10ACD000F7E320680780206805F032FBEAE4701C87
:10ACE0002C2205A90FF08DF9824D049010B1052892
:10ACF00040D0A5E180A00AF0EFFF002630E02068F8
:10AD0000B0F91C00FDF70DFD4FF066324C4BFDF71E
:10AD100007FC6FF00B02FDF7E4FC6FF00102FDF79A
:10AD2000E0FC5246474BFDF76DFC0022424BFDF71D
:10AD300050FBFDF714FDB7F9021048434FF41671AC
:10AD400000F5967090FBF1F2B7F90610CDE9001806
:10AD5000B7F9043035F919106FA00AF0BDFF761C61
:10AD600006EB860905EB4907B7F908005FEA00081A
:10AD7000C5D19FE40026A84600E0761C06EB8607B6
:10AD800008EB4705288930B10998FDF7D7FAB5F9DE
:10AD900008108842F1D10598FDF7D0FA06EB86023B
:10ADA00028F812000698FDF7C9FA4FF4167100FB57
:10ADB00001F62068B0F91C00FDF7B3FC4FF06632D5
:10ADC0001F4BFDF7ADFB6FF00B02FDF78AFC6FF038
:10ADD0000102FDF786FC52461A4BFDF713FC0022D8
:10ADE000154BFDF7F6FAFDF7BAFC96FBF0F008EB11
:10ADF000470148800798FDF7A1FAA8800898FDF759
:10AE00009DFAE8800998FDF799FA288152E4F4E167
:10AE1000F4E3F7E0F6E30000202E2E2E4932432023
:10AE20006572726F7228253032582900240800207C
:10AE300000000840006A18410000E03F0000F03FB9
:10AE400066660A40F09A6E3F00C082400D3E702850
:10AE5000756C7365292020542C552020202020203B
:10AE600020202020202E2E2E20256475732C256472
:10AE7000560000000D0A3E71287377636829202070
:10AE800064656C61792C77696474682020202E2EAB
:10AE90002E20256475732C256475730000001644FC
:10AEA0000D3E6428656C6179292020542C50572070
:10AEB0002020202020202020202E2E2E20256475CA
:10AEC000732C252E326600000D3E62287572737455
:10AED0002920204E2C6C656E2C706572202020205D
:10AEE000202E2E2E2025642C256475732C25646D50
:10AEF000730000007C0400200D3E712873686170AF
:10AF0000652920772C552C74642C746F2C74726511
:10AF100066202E2E2E0000000D0A25642C25642CA0
:10AF200025642C25642C256400000000701C2C2254
:10AF300005A90FF066F830B1012818D002281FD0FB
:10AF400003287DD135E0D9F800103C2091FBF0F3C7
:10AF500021684FF47A74B1F91020B1F90E106243F0
:10AF6000614392FBF0F291FBF0F1F7A0A9E20598A2
:10AF7000FDF7E4F900F00301206803F0E5F908E4C7
:10AF80000598FDF7DBF9C0EB001080004FF47A75EF
:10AF900090FBF5F02168C8810698FDF7CFF9C0EB6A
:10AFA0000010800090FBF5F12068018205F068FD3B
:10AFB00089E20598FDF7C2F9C0EB001080004FF45C
:10AFC0007A7590FBF5F02168C8810698FDF7B6F90F
:10AFD000C0EB0010800090FBF5F021680882079814
:10AFE000FDF7ACF90A287DDB0798FDF7A7F964287F
:10AFF00078DC0798FDF7A2F9C0EB00108100C9F8D2
:10B00000001090E1701C2C2205A90EF0FAFFD94D1A
:10B0100010B1022895D1F3E0D74E30888000FDF7BB
:10B0200091FB4FF06632D54BFDF77AFA6FF00B02C9
:10B03000FDF757FB6FF00102FDF753FBD34600E02D
:10B0400080E15246DFF838A35346FDF7DBFADFF81C
:10B05000349300224B46FDF7BCF9FDF780FBDFF887
:10B0600028830746B8F800008000FDF76BFB4FF01F
:10B070006632C24BFDF754FA6FF00B02FDF731FB5D
:10B080006FF00102FDF72DFB5A465346FDF7BAFA61
:10B0900000224B46FDF79DF9FDF761FB01467088E4
:10B0A00040F24C425043000B0090B8F802003B467F
:10B0B0005043020BB5A00AF00FFEC04800688000A4
:10B0C000FDF72FFB4FF06632AC4BFDF729FA6FF01E
:10B0D0000B02FDF706FB6FF00102FDF702FB5A467B
:10B0E000534600E057E3FDF78DFA00224B46FDF78B
:10B0F00070F9FDF734FB0646B14800688000FDF7A3
:10B1000010FB4FF066329D4BFDF70AFA6FF00B0211
:10B11000FDF7E7FA6FF00102FDF7E3FA5A465346EE
:10B12000FDF770FA00224B46FDF753F9FDF717FBC8
:10B130000746A44840F24C4140F24C420068334676
:10B140004843A14909685143CA1701EB1251091339
:10B150000091C11700EB1150021339469BA00AF071
:10B16000BBFD2E46D5F82802FDF7ECFA4FF066320B
:10B17000824BFDF7D5F96FF00B02FDF7B2FA6FF0D5
:10B180000102FDF7AEFA5A465346FDF73BFA00229C
:10B190004B46FDF71EF9FDF7E2FA8500D6F82402CA
:10B1A000FDF7D0FA4FF06632744BFDF7B9F96FF046
:10B1B0000B02FDF796FA6FF00102FDF792FA5A467C
:10B1C0005346FDF71FFA00224B46FDF702F9FDF743
:10B1D000C6FA2168830040F24C42B1F91800B1F977
:10B1E000161050435143CA1701EB12510A13C117ED
:10B1F00000EB1150011381A000950AF06DFD62E192
:10B200000598FDF79BF8000340F24C4690FBF6F0E2
:10B21000216808830698FDF791F8000390FBF6F18A
:10B2200020680022C182018B2846FDF777FF206845
:10B230007E4E0022018B3046FDF770FF4FF4837481
:10B2400021462846FDF76DFF21463046FDF769FF90
:10B25000012221462846FEF7A9F801222146304660
:10B26000FEF7A4F8EAE3701C2C2205A90EF0C9FE33
:10B2700010B1022866D11FE01020FEF707FD00EB99
:10B28000C00101EB001040F2FF7505EB800040F6B5
:10B29000FF76B0FBF6F40020FEF7F8FC00EBC001EF
:10B2A00001EB001005EB8000B0FBF6F12520024613
:10B2B000009023465EA0A0E70598FDF73FF8C0EB9D
:10B2C00000306424323090FBF4F085B20698FDF72C
:10B2D00035F8C0EB0030323090FBF4F081B22A46F2
:10B2E0000020FEF7F3FC0120FEF7C2FCA6E3701C71
:10B2F000FDF724F8012804D0022809D0042821D120
:10B3000015E02068C16C21F0020141F0010105E067
:10B310002068C16C21F0010141F0020121F004011B
:10B32000C164D9F80010206805F01AFC86E3206893
:10B33000C16C21F0030141F00401F1E70D9738469B
:10B340000497ABE06DE1BCE00D3E7328696D6D655F
:10B350007229206E202F2F2074312C74322C74709F
:10B36000202E2E2E2025646E732C25646E732C25C2
:10B370006475730000200140D000002066660A401A
:10B38000F09A6E3F0000E03FCC00002020200D3EF0
:10B3900061286463292020202055312C49312C5507
:10B3A000322C49322020202E2E2E202564562C258A
:10B3B00064412C2564562C256441000018000020AF
:10B3C000140000200C000020100000200A0D3E6137
:10B3D000286463292020202069646C6520202020B7
:10B3E0002020202020202E2E2E202564562C25645F
:10B3F000412C2564562C2564410000000A0D3E6155
:10B4000028646329202020204973696D6D2C492C04
:10B4100055682C556C202E2E2E202564412C256439
:10B42000412C2564562C2564560000000021014063
:10B430000D3E69284441432920202069312C69327E
:10B440002020202020202020202E2E2E2025642584
:10B45000632C25642563000005EB40000D99C3882B
:10B460004288FEA00AF038FC04980D9900EB800099
:10B4700035F81000401C00EB8000400001EB50014B
:10B4800004980D9100EB800005EB4000C3884288D2
:10B49000F2A00AF021FC0498401C049000EB80000C
:10B4A00035F810100029D7D104980D9900EB8000D1
:10B4B000491D05EB40000D9130F8043C30F8082C94
:10B4C000E9A00AF009FCB9E220688781206804F04D
:10B4D00037FF002604960D966CE0401CFDF732F90C
:10B4E00005EB470A80468946BAF80200FDF72AF9BB
:10B4F0000022E14BFDF714F80022E04BFDF782F843
:10B500000022DF4B0DF012FE0022DE4BFDF77AF831
:10B510000022DD4BFDF704F842464B46FDF700F8EC
:10B520005A46FDF7DEF80022D84BFCF752FF804662
:10B5300089460D98FDF7F5F842464B46FCF749FF62
:10B54000FDF70DF90D9035F81700401CFDF7FAF8DE
:10B5500007468846BAF80600FDF7F4F80022C64B05
:10B56000FCF7DEFF0022C54BFDF74CF80022C44B70
:10B570000DF0DCFD0022C34BFDF744F80022C24B66
:10B58000FCF7CEFF3A464346FCF7CAFF5A46FDF7A2
:10B59000A8F80022BD4BFCF71CFF0746884604981C
:10B5A000FDF7BFF83A464346FCF713FFFDF7D7F81F
:10B5B000761C049006EB860735F8170000288CD11E
:10B5C0000AF056FB04994FF47A7091FBF0F30D9951
:10B5D00091FBF0F220680621B0F90C00C0EBC0002E
:10B5E00090FBF1F19DA00AF077FB20688189491C4E
:10B5F00009B28181B1F5167FFFF668AFA4A00AF009
:10B600006BFB1BE2D7E1701C2C2205A90EF0F9FCA4
:10B61000A04DA14EA14FDFF88882049028B10428E4
:10B6200019D0012013B0BDE8F08F2968642091FB88
:10B63000F0F2316891FBF0F120683C68B0F94230DB
:10B640002520CDE90004CDE9020396A0D8F800300A
:10B650000AF042FBF2E10598FCF770FE64214843D2
:10B6600030600698FCF76AFE64214843286007981A
:10B67000FCF764FEC8F800000898FCF75FFE38602D
:10B68000DCE100273D46701C2C2205A90EF0B9FC18
:10B6900030B101287DD002287CD003287BD189E0FD
:10B6A0002668B6F946003E36C11700EB517089494D
:10B6B00001EBE000FDF735F84FF06632864BFCF702
:10B6C0002FFF6FF00B02FDF70CF84FF05532834B54
:10B6D000FCF798FF4FF066327F4BFCF77AFEFDF7E0
:10B6E000B9F8FDF774F80746B6F906008846C117A1
:10B6F00000EB5170C010FDF714F84FF06632764B36
:10B70000FCF70EFF6FF00B02FCF7EBFF4FF033324C
:10B71000734BFCF777FFFDF79DF8FDF758F80446EB
:10B720000D46B6F90200FCF7FCFF4FF066326A4B9B
:10B73000FCF7F6FE6FF00B02FCF7D3FF6FF001028F
:10B74000FCF7CFFFDFF8A0B1664A5B46FCF75AFF73
:10B75000DFF838A100225346FCF73BFEFCF7FFFF61
:10B760008146B6F90000FCF7DCFF4FF066325A4B19
:10B77000FCF7D6FE6FF00B02FCF7B3FF6FF001028F
:10B78000FCF7AFFF574A5B46FCF73CFF00225346ED
:10B7900002E017E012E02AE0FCF71BFEFCF7DFFFF7
:10B7A00001468DE8B00109EBD97042104FA00AF0B4
:10B7B00093FA43E10798FCF7C1FD07460698FCF7AA
:10B7C000BDFD05460598FCF7B9FD06461FB90A20E0
:10B7D00096FBF0F087191DB9032096FBF0F0351A9F
:10B7E000B6F5487F03D8B54201DAB74201DC022042
:10B7F00018E73046FCF795FF0C22FCF772FF022297
:10B80000FCF76FFFDFF8E0B0364A5B46FCF788FED6
:10B81000DFF8C4A04FF066394A465346FCF7F2FE03
:10B82000DFF8688000224346FCF7D3FDFCF797FF62
:10B830002168002288834FF483713948FDF7B6FDF3
:10B840002846FCF76EFF0C22FCF74BFF0222FCF7A8
:10B8500048FF244A5B46FCF763FE63E00D0A25645B
:10B860002C25642C256400000D0A25642C25642CED
:10B8700025640D0A3E00000000001C400000184036
:10B880000000084000007940000024400000E03F34
:10B890000D0A3E0088000020840000208000002067
:10B8A0007C0000200D3E6628616E29202020205457
:10B8B0006C2C54682C6D696E2C6D61782C542E2E76
:10B8C0002025642C25642C256425632C25642563A0
:10B8D0002C25640000F0FFFF66660A405555D53FF1
:10B8E0003333C33FDEA3EA60F09A6E3F0D3E752806
:10B8F00062616E6B29202055632C55632F322C32E8
:10B90000302C2D35202E2E2E202564562C256456C5
:10B910002C252E3166562C252E316656000000004F
:10B92000002201404A465346FCF76CFE0022434683
:10B93000FCF74FFDFCF713FF04463846FCF7F1FE19
:10B940000C22FCF7CEFE0222FCF7CBFE424A5B46FD
:10B95000FCF7E6FD4A465346FCF754FE00224346F8
:10B96000FCF737FDFCF7FBFEE11704EB9171C1F327
:10B970008F02C11700EB9170C0F38F013748FDF7BC
:10B98000CDFB374C20200D9001220DA920680EF030
:10B99000A9F9E8B30D98032240F30200C0F10800B2
:10B9A000864026F0FF0021300D900DA920680EF092
:10B9B000DDFC70BB3DE02A4C88200D9002220DA9D1
:10B9C00020680EF08FF918B30D9800B20AF08BFAC8
:10B9D000FCF7FDFE02460B4622A00AF07DF98B2003
:10B9E0000D9002220DA920680EF07CF980B10D980F
:10B9F00000B20AF078FAFCF7EAFE02460B461DA0F8
:10BA00000AF06AF997200D9002220DA9206801E042
:10BA10000FE013E00EF066F958B10D9800B20AF08D
:10BA200062FAFCF7D4FE02460B4615A00AF054F960
:10BA300004E00420F6E515A00EF076FB0020F1E509
:10BA4000701C00F039F9EDE5701C00F06FFBE9E5C2
:10BA5000701C00F023F8E5E5DEA3EA600022014057
:10BA6000E40000200D3E56696E3D252E31662C20E7
:10BA700000000000566F75743D252E31662C2000A5
:10BA8000506F75743D252E3166000000750D690DEF
:10BA9000730D640D700D620D660D000070B5ADF58F
:10BAA0005A7D040089A8D7904FF48070D8900ED0AA
:10BAB0002078652879D025DC744D3E2876D01CDCB2
:10BAC00020282CD030282CD0312870D129E070A02B
:10BAD0000AF002F9FF2189A80BF0BEFF20B989A95D
:10BAE0006C480CF02CFD18B16BA00AF0F5F8CBE017
:10BAF00089A96AA00AF0F0F8C6E0632875D0642826
:10BB000055D10CE06D2862D004DC662878D0692815
:10BB10004DD18DE0722827D0742848D133E0601CC5
:10BB200018E03038C0B20BF083FFC0B92078594913
:10BB30003038C0B224310CF04FFC80B9FF2189A805
:10BB40000BF08AFF58B989A952480CF0F8FC6178CB
:10BB5000601C21B1FFF7A2FF0DF55A7D70BDAFF259
:10BB6000C300296848618FE020212046FCF78FFB45
:10BB70002C22C9A90EF045FA022853D1DDE9C901EA
:10BB80000CF0E2FD2DE02022C9A920460EF039FA82
:10BB9000022847D101226846CA990CF031FC0028DE
:10BBA00072D13BA00AF098F806E034E065E039E095
:10BBB00021463BA00AF090F86A46042120460BF08B
:10BBC000D7FF0028F4D168460BF03CFF5CE0202250
:10BBD000C9A920460EF015FA022823D1CA980CF004
:10BBE00080F8F8B950E000E00AE02022C9A9204618
:10BBF0000EF007FA022815D1CA980BF0EFFEF0E715
:10BC00002022C9A920460EF0FCF902280AD1CA98C0
:10BC100000F062FEA0E72022C9A920460EF0F1F94B
:10BC2000022801D0012097E7CA980CF060FED8E7FF
:10BC3000002118480CF05CFD164D4FF6FF760DF212
:10BC40004D34D1A913480CF053FD2869E0B1288C7C
:10BC5000B04201D0D79900E0214612A00AF03CF88A
:10BC60009DF84C03C00603D510A00AF035F8E8E7AC
:10BC70000FA0D1990AF030F8E3E729680D48486130
:10BC80000020FEF78DFC67E7002065E754010020E7
:10BC90000D0A0000CC0400203F3A3E0025733E0010
:10BCA000257300000D0A252D313673002F0000008A
:10BCB00025640000A1A500082DE9F0430178ADF24C
:10BCC000944DE84F0126E84C4FF0FF3802AD64294F
:10BCD00074D011DC4FF47A69462964D007DC3F291F
:10BCE0006DD0E24F44296BD045296AD155E15029E6
:10BCF00040D06329F9D12FE06D297DD004DC69297A
:10BD000027D06C29F1D1B8E0712976D07529ECD112
:10BD1000202229460EF075F90228E6D10BF0C6FA6A
:10BD2000C820396809F096FF0398007866280AD081
:10BD3000682802D0732805D108E0CE49CC480860B5
:10BD400002F08AF88BE102F063F888E102F072F801
:10BD500085E10020C8490BE0202229460EF051F968
:10BD60000228EFD1039800786E3801F0A5FBC34993
:10BD7000086074E1002000F0F1FA04460146252233
:10BD8000BFA009F0A9FF0A2C05DD484609F07CFF99
:10BD9000404600F0E3FAC1A009F09EFF4FF4967010
:10BDA00009F072FF5BE1202229460EF02AF90228F1
:10BDB00008DA03200DF2944DBDE8F08343E1B4E0CE
:10BDC00028E1C2E003984FF480550078662820D01F
:10BDD000752801D00220EDE7B2A009F07DFF052013
:10BDE000396809F037FFB5480CF0D2FE411CF6D097
:10BDF0007928A7D10AA901E0BAE048E001200CF0B7
:10BE0000EBFA01212A4608460CF024F80021012013
:10BE10002EE0ABA009F060FF484609F035FF052091
:10BE2000396809F017FFA5480CF0B2FE411CF6D0A6
:10BE3000792887D1A8A009F04FFF00245FF03006D1
:10BE400006EBC40000F09EFD082814D0A5A000BF9A
:10BE500009F042FF641C062CF2DB97A900200CF0CD
:10BE6000BBFA2A46012100200BF0F4FF002108460E
:10BE70000CF0B2FAF3E09CA0EAE72C222946401C21
:10BE80000EF0BFF8014602A801F06AFCE7E02C22A0
:10BE90002946401C0EF0B5F8F0B3944C3BE0414607
:10BEA00002980CF07EFFD4F80012884231D10025B0
:10BEB0008FA009F011FF0026A919605CC043C1B230
:10BEC0008CA009F009FF761C102EF5DB0026A919BD
:10BED000605CC143C8B221385E2804D2C9B26EA0EA
:10BEE00009F0FAFE02E080A009F0F6FE761C102EA2
:10BEF000EDDB1035B5F5007FDADB804809F0ECFEAC
:10BF0000386880476D480CF043FE411CF8D01B2870
:10BF100007D004F5017400E004E0D4F80002401CEE
:10BF2000BDD19CE004F0BAF999E02C222946401CCE
:10BF30000EF067F8012802D0022810D005E0029820
:10BF40000078312803D0322804D0012032E7494656
:10BF50006B4801E049466B4804F02CF97FE00398F8
:10BF6000FCF7ECF904460298FCF7E8F92146F3E700
:10BF70002C222946401C0EF044F807460AE000BF78
:10BF800055F82700FCF7DAF906FA00F12068C26CD0
:10BF90008A43C2647F1EF3D261E02C222946401CF2
:10BFA0000EF02FF8064631E0206890F85000400768
:10BFB00022D555F8260041460CF0F3FE2168896B26
:10BFC000084219D038680AF093FD814655F82600DA
:10BFD00041460CF0E6FE03464B48006842F2107101
:10BFE00090FBF1F201FB12012068826B47A009F07F
:10BFF00073FE48460AF07CFD55F8260041460CF0D9
:10C00000D0FE01462068826B8A438263761E701CD4
:10C01000CAD124E029492C22401C096839602946EC
:10C020000DF0EFFF07460BE0002255F82700114600
:10C03000FCF74CF906FA00F12068026D8A430265AC
:10C040007F1EF1D20BE0202229460DF0DAFF0228F4
:10C0500005D10398FCF772F9396809F0FBFD00205F
:10C06000A8E600001C000020500000201001002065
:10C07000992F0108C0010020E4000020D400002016
:10C080000D0A3E5061636B696E6720736563746F60
:10C0900072732E2E2E2025642563000020446F6EBF
:10C0A000650000000D466F726D617420757362202B
:10C0B0002E2E2E5B792F6E5D0000000054010020B3
:10C0C0000D466F726D617420666C617368202E2E50
:10C0D0002E5B792F6E5D00002065726173696E675B
:10C0E000200000003F0000002E00000000000408B7
:10C0F0000D0A000025303258200000008CAB0108EA
:10C1000054180020D45600205C0100203A25303419
:10C1100064206572726F7220253034582C253034BB
:10C12000582C20636C6561720D0A3E002DE9F04FBA
:10C13000017889B00125754C6E4669297ED007DCEF
:10C14000734F44297BD0452943D0652904D11CE095
:10C150006D2905D077292DD0012009B0BDE8F08FD9
:10C160002C223146401C0DF04CFF07460AE000BF70
:10C1700056F82700FCF7E2F8216805FA00F0CA6CCF
:10C180001043C8647F1EF3D2BDE02C223146401C10
:10C190000DF037FF07460AE056F82700FCF7CEF807
:10C1A000216805FA00F011F84A2F104308707F1E2D
:10C1B000F2D2A8E02C223146401C0DF022FF18B12B
:10C1C0000098FCF7BBF801E04FF4967009F05CFDB5
:10C1D00099E02C223146401C0DF013FF05464FF02C
:10C1E000FF3853E056F8250041460CF0DAFD45F2E1
:10C1F000A811084207D00021464805F0D8F80021D0
:10C20000454805F0D4F8206890F85000400733D531
:10C2100056F8250041460CF0C4FD2168896B0842A0
:10C220002AD138680AF064FC834656F82500414656
:10C230000CF0B7FD0346DFF8E49001E041E028E0B0
:10C24000D9F8001042F2107A91FBFAF220680AFB4A
:10C250001211826B32A009F03FFDD9F8001020685E
:10C2600091FBFAF20AFB1211B0F93C2034A009F05C
:10C2700033FD58460AF03CFC56F8250041460CF0C8
:10C2800090FD01462068826B114381636D1EA9D227
:10C2900039E030492C22401C0968396031460DF0E4
:10C2A000B0FE07460AE000BF56F82700FCF746F844
:10C2B000216805FA00F00A6D104308657F1EF3D26D
:10C2C00021E02C223146401C0DF09BFE224C20B177
:10C2D000012806D0022816D109E04CF2503158202E
:10C2E0000EE0022100980CF05CFD002108E00198AE
:10C2F000FCF724F80546022100980CF052FD29466F
:10C3000001F0BEF92060002027E700005000002067
:10C310001001002000000140000401405C010020E9
:10C320003A25303464206572726F7220253034589B
:10C330002C253034582C207365740D0A3E00000003
:10C340003A25303464207374617473202530345876
:10C350000D0A3E0054010020E40000202DE9F04FBA
:10C360000025304CADF5017D8146AB464FF03008DD
:10C370004FF4003604F50177BA466D1C09F078FCDD
:10C38000D4F8000202E000BF07F50177D7F80012E9
:10C39000884202D0491CF7D126E0481C24D00BF17A
:10C3A000010B2046204954460844B04203DAD4F831
:10C3B0000002401CDED1B9F1000F02D0404600F06F
:10C3C000E1FAD4F8000208F10808401C06F500362E
:10C3D000D0D1B9F1000F1ED0404600F0D3FA0020B2
:10C3E0000DF5017DBDE8F08F00206A4654F820105D
:10C3F000C94342F82010401C8028F7DB09F038FCC4
:10C40000B9F1000FCDD0012369460020D4F80022F5
:10C4100003F080FEC5E764210BFB01F090FBF5F013
:10C42000DEE70000000004080402FCF72DE9F047F5
:10C430004FF48044204600F01DF921463B4800F0AF
:10C44000B5FB3F4C0028DFF8E8802068394DDFF865
:10C45000E890DFF8E8A0818F42F2107638D021F022
:10C46000800181870021484604F0A1FF0021504649
:10C4700004F09DFF206890F85010490721D590F8EE
:10C48000380000061DD4D8F800000AF031FB07463A
:10C490002868802390FBF6F106FB11012068826B6F
:10C4A00028A009F019FC286890FBF6F106FB1101A1
:10C4B0002068B0F93C202BA009F00EFC38460AF0A9
:10C4C00017FB2068816B41F080018163BDE8F08734
:10C4D00041F08001818790F8501045F2A817490774
:10C4E00015D5806B384212D0D8F800000AF000FB56
:10C4F000804628683B4690FBF6F106FB1101206858
:10C50000826B1DA009F0E8FB40460AF0F1FA2068B2
:10C51000816BB94381630121484604F048FF5046CE
:10C52000BDE8F047012104F042BF0000000C0240CA
:10C53000100100205C0100200000014000040140C7
:10C54000500000203A25303464206572726F7220EA
:10C55000253034582C253034582C207365740D0A3E
:10C560003E0000003A2530346420737461747320F7
:10C57000253034580D0A3E003A2530346420657267
:10C58000726F7220253034582C253034582C20639B
:10C590006C6561720D0A3E002DE9F0414FF4807028
:10C5A00000F068F84FF480411F4800F0FFFA0028BF
:10C5B00037D100211D4804F0FAFE00211C4804F088
:10C5C000F6FE1C4C206890F85010490724D590F8CE
:10C5D0003800800620D4184800680AF089FA174D00
:10C5E0000746286842F2107690FBF6F106FB11012F
:10C5F00020682023826B12A009F06EFB286890FB54
:10C60000F6F106FB11012068B0F93C2014A009F0F6
:10C6100063FB38460AF06CFA2068816B41F0200118
:10C620008163BDE8F0810000000C02400000014081
:10C630000004014050000020100100205C01002097
:10C640003A25303464206572726F72202530345878
:10C650002C253034582C207365740D0A3E000000E0
:10C660003A25303464207374617473202530345853
:10C670000D0A3E000149086070470000143C01406B
:10C6800030B51A498379026853B30B6893430B6042
:10C690000A1D13680468A343136002790A441368EF
:10C6A000046823431360114A083213680468A343E3
:10C6B0001360131D1C680568AC431C604479102C82
:10C6C00005D021440A68006802430A6030BD116841
:10C6D000046821431160196800680143196030BD86
:10C6E0000079084401689143016030BD003C01407D
:10C6F0002DE9F05F6949002875D0D1E91842D1E9E8
:10C70000039A8B46D1E916314A26DFF894E10025D9
:10C710000EEB850CBCF802C0B4450ADD3EF925706D
:10C72000ACEB090C0FFA8CFC07FB0CF7FB1841EB88
:10C73000E7715C4F07EB850CBCF802C0B4450ADD1D
:10C7400037F92570ACEB0A0C0FFA8CFC07FB0CF7E1
:10C750003C1942EBE77205F10105B5F57A6FD7DBBD
:10C760005D46C5E91631C5E91842DBF84460771C1F
:10C77000CBF84470B0F91E70BE427CD190F83C609A
:10C78000642706F0030844F2B33C4FF47A76B8F11C
:10C79000010F06D0B8F1020F26D0B8F1030F46D131
:10C7A0004EE0B0F94820A2FB0308D41704FB038332
:10C7B00002FB013162460023FBF700FD3C2200230F
:10C7C000FBF7FCFC044602460023072136A0FDF7D8
:10C7D0006DF994FBF6F006FB104090FBF7F294FB2A
:10C7E000F6F133A021E051E0B0F94810A1FB0408B4
:10C7F000CB1703FB048301FB023162460023FBF7E6
:10C80000DDFC3C220023FBF7D9FC04460246002352
:10C81000072125A0FDF74AF994FBF6F006FB10402E
:10C8200090FBF7F294FBF6F124A00AF00BFD002038
:10C830006864C5E91800C5E91600401EBDE8F09F10
:10C840001B195141B0F94820A3FB020801FB0281EA
:10C85000D41703FB041162460023FBF7AFFC3C2214
:10C860000023FBF7ABFC04460246002307210EA081
:10C87000FDF71CF900E00FE094FBF6F006FB10401A
:10C8800090FBF7F294FBF6F10FA0CEE7002048648E
:10C89000C1E91800C1E916000020CFE70000002020
:10C8A00054180020D4560020636963500000000033
:10C8B00045313D25642E25644A00000045323D2562
:10C8C000642E25644A00000045312B45323D256425
:10C8D0002E25644A0000000070B5204C0646204D0D
:10C8E000206848B146B33178042929D032461DA1C9
:10C8F00009F0E4F9002070BD4FF409710120FBF745
:10C90000D7FC206028B1132231460BF079FD10B11D
:10C9100006E0062070BD2068C1680BF04BF920B11D
:10C9200020680CF0E1F9052070BD10A1206809F025
:10C93000C5F9AFF25B000EE00DA009F0CDF9D9E723
:10C940000BF089FF20680BF07DF820680CF0CCF923
:10C9500000202060074829684861CBE7C400002018
:10C960005401002025730D0A000000000D00000096
:10C970000D0A00009DBA00080149086070470000D8
:10C980000C3C024010B5044600F08EF8F320FFF78F
:10C99000F3FF00BF09F06CF90221204600F004F813
:10C9A0000128F7D010BD000070B50646002529B15A
:10C9B000012927D0022928D04FF4407500F086F8CD
:10C9C00008281ED1124C206820F440702060206896
:10C9D00028432060206820F0F8002060206846F09E
:10C9E000020108432060206840F48030206000F09D
:10C9F0006DF8216821F002012160216821F0F80121
:10CA0000216070BD4FF48075D8E74FF40075D5E70D
:10CA1000103C02400B4908200A68D20301D50120CE
:10CA200070470A68D20601D5052070470A6812F0DF
:10CA3000EF0F01D00620704709688907FBD5072052
:10CA4000704700000C3C024070B50C46054600F0F3
:10CA50002BF8F320FFF790FF09F00AF9214628464A
:10CA600000F004F80128F7D070BD000070B50D4645
:10CA7000064600F02BF8082813D10A4C206820F451
:10CA800040702060206840F400702060206840F012
:10CA900001002060356000F019F8216821F00101E3
:10CAA000216070BD103C024005480068002805DA8E
:10CAB000034804490C3801600349016070470000D5
:10CAC000103C024023016745AB89EFCD08B5082033
:10CAD0008DF80000FFF79EFF8DF800009DF8000024
:10CAE0000128F7D09DF8000008BDF0B5002301240F
:10CAF00003270D6804FA03F21540954242D1D0F89D
:10CB000000C05E0007FA06F52CEA050CC0F800C06C
:10CB100091F804C0D0F800E00CFA06FC4CEA0E0CC8
:10CB2000C0F800C091F804C0BCF1010F02D0BCF104
:10CB3000020F1FD1D0F808C02CEA050CC0F808C0BD
:10CB400091F805C0D0F808E00CFA06FC4CEA0E0C8F
:10CB5000C0F808C0D0F804C02CEA020CC0F804C029
:10CB6000426891F806C00CFA03FC1FFA8CFC42EAFA
:10CB70000C024260C268AA43C260CA79C568B2406A
:10CB80002A43C2605B1C102BB3D3F0BD4B07DB0EF6
:10CB90009A40C90810B500EB8100016A0F249C403F
:10CBA000A1430162016A1143016210BD02460020E7
:10CBB00012690A4200D001207047024600205269E3
:10CBC0000A4200D0012070474183704701837047BB
:10CBD0004FF6FF7101600021017141718171C171D6
:10CBE00070474069806880B27047D0F8CC00006818
:10CBF000C0F341407047084490F87F08704700EB4D
:10CC00008100D0F83408704710B504460022104661
:10CC1000C4F8F42704EB8203C3F8F807C3F8340818
:10CC2000A31883F87008521CD2B20F2AF2D308203E
:10CC3000A4F89608204607F0D9FF204607F0F0FB3D
:10CC4000204607F091FA0121204608F02FF82046EF
:10CC500007F066FB204607F0C2FD002010BDD0F8AB
:10CC6000F407704710B507F0ACFF002010BD00229C
:10CC7000431883F87F2800EB4113C3F8A42807F07A
:10CC8000CBBE0000F0B416490A78012A09D0CA6860
:10CC90000025802A00D1CD60D1E902329A4202D12A
:10CCA0000D70F0BC704702D9C2F1800301E0A3EB24
:10CCB00002031C460B61402B96B205D9402340323B
:10CCC000403CC1E9032403E02244C1E90325A3B2A7
:10CCD00001220A7003498A19F0BC8121FDF7ACB822
:10CCE0000803002014C300200748006809F000FF73
:10CCF0000648006842F2107190FBF1F201FB12014C
:10CD000003A008F0E9FFFEE70C0100205C01002011
:10CD10003A2530346420486172644661756C745FF2
:10CD200048616E646C65720D0A3E000010B51421F6
:10CD3000054800F057F9000A04D003481430018870
:10CD4000C9B2018010BD0000005400402DE9F0413F
:10CD5000414D284600F0DAF8404A0026811A404C3E
:10CD60004FF4C067904234D02FDC6FF4403140184C
:10CD70003FD0012862D03F2825D1284600F037F95E
:10CD80000246D4E902010B18401C1A73A060C9883E
:10CD9000491E814207D10021284600F06DF801218B
:10CDA000284600F0A9F8E068A168C08888420AD146
:10CDB00000223946284600F0B0F80121284600F04C
:10CDC0005BF8E068C680BDE8F081022922D0042922
:10CDD000F9D1E168A0688A8882421DD18E80C88816
:10CDE0004FF00101002828461FD0BDE8F04100F0B7
:10CDF00079B8E0688188007800294FEA40604FEAFE
:10CE0000106101D0002200E00122284600F0F2F873
:10CE1000A660D8E7D4E902010144401C097AA06069
:10CE20002846BDE8F04100F0EDB800F065F839465D
:10CE30002846BDE8F041002200F06FB8E068C088E5
:10CE40000128C0D10021284600F016F82846BDE888
:10CE5000F041012100F050B800540040800007006C
:10CE6000D80000200029018802D041F0100101E023
:10CE700021F01001018070470029018802D041F49F
:10CE8000806101E021F48061018070470029018800
:10CE900002D041F0010101E021F001010180704761
:10CEA0000D4910B5884202D101214C050AE00B4919
:10CEB000884202D101218C0504E0094988420AD147
:10CEC0000121CC05204602F019FD2046BDE81040A6
:10CED000002102F013BD10BD005400400058004076
:10CEE000005C00400029018802D041F4807101E01B
:10CEF00021F48071018070470029018802D041F43B
:10CF0000007101E021F4007101807047818A008B7B
:10CF100041EA004121F07F407047002A828801D019
:10CF20000A4300E08A438280704700007FB50446D0
:10CF300080880D4620F03F06684602F00BFD274929
:10CF40000298B0FBF1F189B20E43A680228822F04C
:10CF500001022280224B2A689A421BD85200B0FB61
:10CF6000F2F080B2042800D20420491C2184A0835E
:10CF7000208840F00100208021884FF6F5300140E4
:10CF8000A8886A89104308432080A8892989084312
:10CF900020817FBDEB88A3F53F46FF3E0BD002EB1F
:10CFA000C20303EB0212B0FBF2F080B240F4804007
:10CFB000020506D007E002EB4202B0FBF2F080B2BD
:10CFC000F6E740F001004FF4967251434FF47A7245
:10CFD000B1FBF2F140F40040C7E7000040420F000F
:10CFE000A086010008B508440090008808BD008AAA
:10CFF000C0B2704712B141F0010101E001F0FE0141
:10D0000001827047018270470029018802D041F4F3
:10D01000004101E0C1F30E01018070470029018841
:10D0200003D021F080010180704741F08001FAE7D0
:10D0300041F288310160002181804BF6FF72C2808D
:10D04000018141814FF480418181704702494CF652
:10D05000CC4008607047000000300040034A0146A1
:10D060000020D2680A4200D0012070470030004002
:10D0700002494AF6AA2008607047000000300040CC
:10D080000149486070470000003000400149886055
:10D090007047000000300040014908607047000000
:10D0A0000030004070B52B4C2B4A208802F1100153
:10D0B00008F06AFE284A0546608802F1100108F06F
:10D0C00063FE854201DD208800E06088224A02F18B
:10D0D000100108F059FE04462048006841F28831EA
:10D0E000884233DD1E48C82281688C4201DA00681C
:10D0F0000CE0C3689C4201DD406807E041C8651A46
:10D10000361A7543591A95FBF1F1084440F6B831C7
:10D11000484390FBF2F5052D05DBB5F5BB6F03DB4E
:10D1200040F2D75500E005250E4E304604F0FEF9DA
:10D13000A842304603D204F0F9F9401C02E004F0A2
:10D14000F5F9401E0146304604F0A8FB642094FB2C
:10D15000F0F070BD2418002074A401085C010020C8
:10D160007C000020000400401FB501214FF4E06066
:10D1700002F0D0FB6846FBF7F9FF00200090019019
:10D18000029003906846FBF7DBFF00F005F800F023
:10D190007BF800F0F3F81FBDF0B5012197B08805CA
:10D1A00002F088FB33480024CDE90040324802A950
:10D1B000022681E851007002CDE905404000079049
:10D1C000800008904011099040020A900125042037
:10D1D000CDE90C54294F0B90694638460E94FDF763
:10D1E0009BF901213846FDF789F815A8FFF7F0FCF7
:10D1F00003208DF8580015908DF85B4015A9204844
:10D20000FFF773FC0FA8FCF740F9280711904FF0C7
:10D210006060CDE912040F94164C8DF840504C3CE0
:10D220008DF841508DF850600FA92046FCF7C8F8E2
:10D230000023012209212046FCF7E8F800230222FE
:10D2400008212046FCF7E2F808212046FBF760FFA2
:10D250000C492046FBF754FF01212046FBF796FFBF
:10D2600001212046FBF761FF01212046FBF784FFE7
:10D2700017B0F0BD4C200140CC000020706402408B
:10D280000004024000028000F0B5012197B088053B
:10D2900002F010FB4FF000700090334801903348CB
:10D2A00002A90226002481E851007002CDE9054060
:10D2B00040000790800008904011099040020A90B9
:10D2C00001250420CDE90C54294F0B9069463846BE
:10D2D0000E94FDF721F901213846FDF70FF815A846
:10D2E000FFF776FC3020159003208DF858008DF85C
:10D2F0005B4015A91F48FFF7F8FB0FA8FCF7C5F81E
:10D300000F9428071190184C4FF060608DF8405032
:10D3100012904C3C8DF841508DF850600FA920467A
:10D32000FCF74EF8002301220F212046FCF76EF88F
:10D33000002302220E212046FCF768F80E21204629
:10D34000FBF7E6FE0C492046FBF7DAFE01212046FA
:10D35000FBF71CFF01212046FBF7E7FE01212046D9
:10D36000FBF70AFF17B0F0BD4C210140D0000020B0
:10D3700058640240000802400002800070B598B076
:10D380000121464802F096FA01218D02284602F05A
:10D39000C1FA280400904248019042480024CDE997
:10D3A000020404A9182081E8310068000790800079
:10D3B00008904011099040020A9001250420CDE90F
:10D3C0000C54394E0B90694630460E94FDF7A4F884
:10D3D00001213046FCF792FF15A8FFF7F9FB032067
:10D3E0008DF85800072015908DF85B4015A92F483F
:10D3F000FFF77BFB0E20159015A92D48FFF775FB55
:10D400000F9411941394264C06208DF840508DF8FB
:10D4100050004C3C8DF841500FA92046FBF7D0FF3F
:10D420000023012219462046FBF7F0FF00230222C9
:10D4300001212046FBF7EAFF0023032202212046B8
:10D44000FBF7E4FF002304220B212046FBF7DEFF5D
:10D45000002305220C212046FBF7D8FF00230622DB
:10D460000D212046FBF7D2FF0B212046FBF750FE93
:10D4700010492046FBF744FE01212046FBF786FEBB
:10D4800001212046FBF778FE01212046FBF74DFEE7
:10D490002046FBF7F5FF18B070BD00000400400007
:10D4A0004C22014024180020106402400000024079
:10D4B0000008024000028000F0B589B0074607A8C6
:10D4C000FFF786FB02208DF8200020204D4D01241F
:10D4D00007908DF8234007A92846FFF706FB600355
:10D4E00007908DF8224007A92846FFF7FEFA092287
:10D4F00005212846FFF74AFB09220D212846FFF7A0
:10D5000045FB0121480602F0EDF90121880602F0F1
:10D51000E9F904A8FCF754FA3B4E3046FCF710F941
:10D5200000258DF818508DF819408DF816508DF89B
:10D530001A508DF817408DF81B4017B18DF8124026
:10D5400001E08DF81250092103208DF814108DF898
:10D5500013008DF815000420ADF8100004A9304622
:10D56000FCF772F9ADF802504FF48060ADF800009E
:10D57000ADF806504FF48C608DF80B40ADF8040008
:10D58000ADF808500E208DF80C408DF80A008DF88B
:10D590000D406846FCF7EAF84FF4B050ADF80000D3
:10D5A0004FF4B150ADF804000F208DF80A00684622
:10D5B000FCF7DCF84FF45070ADF800004FF46660F3
:10D5C000ADF8040010208DF80A006846FCF7CEF88C
:10D5D0004FF47870ADF800004FF4FC60ADF8040033
:10D5E00011208DF80A006846FCF7C0F801220221DC
:10D5F0003046FCF721F94FF4FA60014608F026FEA8
:10D6000009B0F0BD000402400068004000B587B0DA
:10D6100004A8FFF7DDFA6846FCF766FB03208DF8E7
:10D6200014003020049001208DF8170004A913483D
:10D63000FFF75BFA0121480702F054F9FCF70CFBF5
:10D640000020019069460390FCF72CFB69461020EE
:10D65000FCF728FB40F699510A460020FCF736FB00
:10D660000120FCF705FB01210020FCF7E9FA01216C
:10D670001020FCF7E5FA07B000BD000000000240F2
:10D6800070B50C46054686B010210120FAF710FE51
:10D69000064605B1358004B1748004A8FFF798FAF6
:10D6A00002208DF815008DF8140001208DF8160069
:10D6B0008DF81700C020284D049004A92846FFF7D4
:10D6C00014FA042206212846FFF760FA04220721F3
:10D6D0002846FFF75BFA01214D05284602F002F9C2
:10D6E0000121284602F00AF90021284602F006F935
:10D6F0001A4D2846FFF7D4FB6846FFF799FC0A202D
:10D70000ADF804004BF6FF70ADF806000020ADF850
:10D7100008002815ADF80A000001ADF80C006946B4
:10D7200028460094FFF702FC01212846FFF776FC0B
:10D7300001212846FFF796FB01212846FFF79CFBB5
:10D7400001212846FFF7A2FB012211022846FFF71C
:10D75000E4FB06B0304670BD0004024000540040B7
:10D760002DE9FC4706460F466846FFF731FA4FF0B1
:10D7700001098DF804908DF8069017B10024244D0E
:10D7800033E008F0BDFDBDE8FC8700BF56F824007B
:10D7900000786138092839D2DFE800F005072A2C23
:10D7A0002E30323436001B4800E01B4845F8240078
:10D7B00056F82400401C46F82400FAF7BFFDDFF8B5
:10D7C000508009FA00F008F1280801B228F8141076
:10D7D000009155F824006946FFF787F938F81410CE
:10D7E00055F82400FFF7F2F9641CBC42CEDBCAE70F
:10D7F0000A48DBE70A48D9E70A48D7E70A48D5E7E5
:10D800000A48D3E70A48D1E70A48CFE70020CDE726
:10D81000F4A400200000024000040240000802407E
:10D82000000C0240001002400014024000180240A8
:10D83000001C02400020024038B54FF4C06000F0E8
:10D8400057FD01208DF8010003248DF802408DF86A
:10D85000030019208DF80000684600F017FD022033
:10D860008DF801003C208DF80000684600F00EFDA8
:10D870001F208DF80000684600F008FD20208DF87C
:10D880000000684600F002FD8DF8014014208DF87C
:10D890000000684600F0FAFC40208DF80000684661
:10D8A00000F0F4FC1D208DF80000684600F0EEFC4E
:10D8B00028208DF80000684600F0E8FC17208DF85D
:10D8C0000000684600F0E2FC12208DF80000684677
:10D8D00000F0DCFC1E208DF80000684600F0D6FC4D
:10D8E00025208DF80000684600F0D0FC38BD00000F
:10D8F0002DE9F04F9FB014A8FFF76AF902268DF8C2
:10D9000054604FF003088DF8558032460621FC4FD5
:10D910003846FFF73BF9022207213846FFF736F970
:10D920000125C0208DF85750002414908DF85640E2
:10D9300014A93846FFF7D9F84FF44050F14F8DF84D
:10D94000545014908DF8564014A93846FFF7CDF87E
:10D950004FF4805949463846FFF72FF910B9EAA02D
:10D9600009F018FC49463846FFF730F94FF40059E2
:10D9700049463846FFF721F910B9E8A009F00AFC3A
:10D980004946BA463846FFF721F901218F03384648
:10D9900001F0C0FF8DF854408DF8574014A950464F
:10D9A0001497FFF7A2F80E21032002F0EBFB384694
:10D9B000FEF760FE8DF8684010208DF86900199719
:10D9C0008DF86A5019A8FEF75BFEDFF864A38DF8A6
:10D9D0005440BF118DF8575014A950461497FFF7C3
:10D9E00084F80821042002F0CDFB3846FEF742FE01
:10D9F0008DF8684008208DF8690019978DF86A50F5
:10DA000019A8FEF73DFE14A8FFF7E2F88DF857605D
:10DA10008DF854608DF856408DF85580012209210B
:10DA20005046FFF7B3F801220B215046FFF7AEF83E
:10DA300001220D215046FFF7A9F801220E21504680
:10DA4000FFF7A4F84FF4D440149014A95046FFF700
:10DA50004CF8DFF8E082032206214046FFF796F8F3
:10DA6000032207214046FFF791F803220821404690
:10DA7000FFF78CF8032209214046FFF787F84FF49F
:10DA80007070149014A94046FFF72FF86846FCF711
:10DA900074FD0121880501F00DFFDFF89CB25846A6
:10DAA000FCF78AFCA5480290402003904FF4FA60EE
:10DAB00004907802CDE909404FF0040A4FF48068E1
:10DAC000CDF82CA0CDE90548CDE90C5480110E9479
:10DAD000CDE907094FF040600090994801906946F0
