:020000040800F2
:10000000F850002099010008A1010008A301000890
:10001000A5010008A7010008A901000800000000D0
:10002000000000000000000000000000AB0100081C
:10003000AD01000800000000AF010008ED1A000843
:10004000B3010008B3010008B3010008B3010008C0
:10005000B3010008B3010008B3010008B3010008B0
:10006000B3010008B3010008B3010008B3010008A0
:10007000B3010008B3010008B3010008B301000890
:10008000B3010008B3010008B3010008B301000880
:10009000B3010008B3010008B3010008B301000870
:1000A000B3010008B3010008B3010008B301000860
:1000B000B3010008B3010008B3010008B301000850
:1000C000B3010008B3010008B3010008B301000840
:1000D000B3010008B3010008B3010008951B000834
:1000E000B3010008B3010008B3010008B301000820
:1000F000B3010008B3010008B3010008B301000810
:10010000B3010008B3010008B3010008B3010008FF
:10011000B3010008B3010008B3010008B3010008EF
:10012000B3010008B3010008B3010008B3010008DF
:10013000B3010008B3010008B3010008B3010008CF
:10014000B3010008B3010008B3010008B3010008BF
:10015000B3010008B3010008B3010008B3010008AF
:10016000B3010008B3010008B3010008B30100089F
:10017000B3010008B3010008B3010008B30100088F
:10018000B3010008DFF80CD000F018F90048004770
:10019000C5350008F850002006488047064800474B
:1001A000FEE7FEE7FEE7FEE7FEE7FEE7FEE7FEE727
:1001B000FEE7FEE7451B0008850100080048704780
:1001C000C83D000840EA01039B0703D009E008C9C5
:1001D000121F08C0042AFAD203E011F8013B00F80C
:1001E000013B521EF9D2704710B5044604E00B786B
:1001F00000F8013B03B1491C521EF8D2204610BD45
:1002000030B504460020034600E05B1C934203D255
:10021000E05CCD5C401BF8D030BD034611F8012BEB
:1002200000F8012B002AF9D11846704710B5484351
:10023000044603F02FFA002805D00021002C02D03C
:10024000641E0155FAE710BD2DE9F05F93460F4695
:1002500080460446002601F053FED0F80090824606
:1002600014F8015B2DB1FFF7A9FF0068405DC007DE
:10027000F6D12B2D02D02D2D1AD0641E0021CAF8E4
:1002800000105A463946204600F048F8014627B18A
:100290003868A04201D1C7F80080DAF800000228CF
:1002A00009D0CAF80090700505D54842BDE8F09F16
:1002B00046F48066E2E70846F8E72DE9F05F054678
:1002C000002092469B4688460646814640241BE015
:1002D000284641464746224600F091F853465A4682
:1002E000C01A914110D311461846224600F078F802
:1002F0002D1A67EB01084F4622460120002100F02D
:100300006FF817EB00094E41201EA4F10104DFDC59
:10031000484631462A464346BDE8F09F2DE9F05F46
:1003200082460078002715468B460AF10104B9463B
:10033000302801D09DB113E014F8010B0127782873
:1003400003D0582801D045B10AE00DB1102D07D1D6
:100350000027102514F8010B02E0082500E00A250B
:100360000026B0460EE005FB080005FB06F101275C
:1003700001EB10461FFA80F8B6F5803F00D3B9466E
:1003800014F8010B294600F04AF80028EBDABBF11B
:10039000000F05D00FB1641E00E05446CBF80040BA
:1003A000B9F1000F06D001F0ABFD02210160C81EBB
:1003B000BDE8F09F48EA0640FAE70000064C074D0A
:1003C00006E0E06840F0010394E807009847103425
:1003D000AC42F6D3FFF7DAFECC3D0008EC3D000856
:1003E000202A04DB203A00FA02F1002070479140F5
:1003F000C2F1200320FA03F3194390407047202AEA
:1004000004DB203A21FA02F00021704721FA02F3BE
:10041000D040C2F1200291400843194670473A2863
:1004200000D2303820F02002412A01D3A2F1370057
:10043000884201D34FF0FF307047000010B5002014
:1004400000F0ECFE01F05AFB00F090FF0749086055
:100450000749086007A001F0D7FC00200B4908609D
:100460000B490C4800F0D9F910BD000068000020CD
:10047000640000200D313E455241534520323E5329
:1004800049474E20333E52554E0D0A0000000020D1
:100490000C0000200068004010B504460B48844260
:1004A00009D10121480601F0D7F900214FF0007071
:1004B00001F0D2F908E00121880601F0CDF9002110
:1004C0004FF0806001F0C8F910BD000000640040EA
:1004D00010B50021837A012202FA03F13D4A126825
:1004E00042F001023B4B1A603A4A1C3212688A43BE
:1004F000384B1C331A60027BCAB9364A0C32126878
:100500008A43344B0C331A604288C38842EA03435F
:10051000304A4032847A42F834300288838842EA92
:1005200003432C4A4032847A02EBC4025360027BBC
:10053000012A19D1274A0C3212680A43254B0C3381
:100540001A604288038842EA0343224A4032847A8E
:1005500042F83430C288838842EA03431D4A40325D
:10056000847A02EBC4025360C27A3AB9194A121D66
:1005700012688A43174B1B1D1A6006E0154A121DAC
:1005800012680A43134B1B1D1A60028932B9114AC3
:10059000143212688A430F4B14331A600289012AFD
:1005A00006D10C4A143212680A430A4B14331A60FB
:1005B000427B012A06D1074A1C3212680A43054BC6
:1005C0001C331A60034A126822F00102014B1A60C0
:1005D00010BD00000066004030B502460020002338
:1005E000146824F002041460146844F001041460D8
:1005F00000E05B1C546804F001041CB94FF6FF7462
:10060000A342F6D1546804F001040CB900206CE058
:100610008C79012C04D1146844F08004146003E048
:10062000146824F080041460CC79012C04D114687F
:1006300044F04004146003E0146824F040041460A3
:100640000C7A012C04D1146844F02004146003E0F7
:10065000146824F0200414604C7A012C04D114682E
:1006600044F01004146003E0146824F010041460D3
:100670008C7A012C04D1146844F00804146003E05F
:10068000146824F008041460CC7A012C04D1146896
:1006900044F00404146003E0146824F004041460BB
:1006A0008C78A407CD7844EA05640D7944EA0544C2
:1006B0004D7944EA05540D886D1E2C43D4611468AD
:1006C00024F001041460002300E05B1C546804F073
:1006D00001041CB14FF6FF74A342F6D1546804F034
:1006E00001040CB1002000E0012030BD02460020D2
:1006F00019B9D36803F0030006E0012903D1136997
:1007000003F0030000E00020704710B500F5D87337
:1007100003EB01131B6803F004031372137A53B93C
:1007200000F5D87303EB01131B6840F2FF7404EA71
:100730005353136009E000F5D87303EB01131B68F2
:100740006FF0604404EAD303536000F5D87303EB01
:1007500001131B6803F00203537200F5D87303EB17
:1007600001135B6803F00F03937200F5D87303EB7A
:1007700001135B681B0AD37400F5D87303EB0113F4
:100780009B68D37200F5D87303EB01139B681C0AB6
:10079000147300F5D87303EB01139B681C0C54739E
:1007A00000F5D87303EB01139B681B0E937300F5E0
:1007B000D87303EB0113DB68D37300F5D87303EB35
:1007C0000113DB681C0A147400F5D87303EB0113E2
:1007D000DB681C0C547400F5D87303EB0113DB6861
:1007E0001B0E937421B9C36843F02003C36003E078
:1007F000036943F02003036110BD00218171C171C1
:10080000017241728172C1728170C17003210171E4
:100810000221417101210180704710B5024600207C
:10082000936803F08063B3F1806F00D110E09368A8
:1008300003F00063B3F1006F01D1012008E0936879
:1008400003F08053B3F1805F01D1022000E0042067
:10085000042874D002F5C07303EB00131B6803F087
:10086000010402F5C07303EB00131C600B7A7BB923
:100870004B7A0C8843EA445302F5C07404EB00142D
:100880002468234302F5C07404EB0014236010E0D5
:100890000B7A4C6843EAC4034C7A234302F5C074D4
:1008A00004EB00142468234302F5C07404EB001425
:1008B00023608B7A03F00F038B7202F5C07303EB96
:1008C00000135B6823F00F0402F5C07303EB001301
:1008D0005C6002F5C07303EB00135B688C7A234302
:1008E00002F5C07404EB001463608B7B1C064B7B29
:1008F00044EA03440B7B44EA0323CC7A234302F506
:10090000C07404EB0014A3608B7C1C064B7C44EA8F
:1009100003440B7C44EA0323CC7B234302F5C074DD
:1009200004EB0014E36002F5C07303EB00131B68D3
:1009300043F0010402F5C07303EB00131C6010BD0B
:1009400010B502460B46002100BF04E052F821001A
:10095000034C2060491C9942F8D30148006810BD3F
:100960000030024001200149886070470030024099
:1009700070B504460D460948046004200749887292
:100980000846C0F80B5002E005480068804703495C
:100990000448FFF742FF0428F6D070BD0C00002089
:1009A00020000020006800402DE9F8430446082795
:1009B000DFF8E88014B93A48009000E0009400980D
:1009C00000F0EAFB10B10020BDE8F8830221684680
:1009D00002F0D4FE05460421684602F0CFFE3149FC
:1009E000098800EB01460221684602F0C7FE06288E
:1009F00050D2DFE800F00345464F47482A48864278
:100A000001DA0020E0E7A22024490B390860C8F889
:100A10000060042088721CB9084600F01FFD07E042
:100A200000BF1E490B392148FFF7F7FE0428F8D014
:100A3000A3201A490B39086000271CE002216846F0
:100A400002F09CFEC2B238467F1C14490A54082F9B
:100A500000D085B911490B398F7200271CB908469F
:100A600000F0FCFC07E000BF0C490B390F48FFF712
:100A7000D4FE0428F8D0281EA5F10105DED109E036
:100A800008E007E000BF0421684602F077FE054950
:100A9000086000BF00BF4FF0FF3095E7170000204F
:100AA0007800002038000020008000080068004026
:100AB00021B1026842F00102026003E0026822F004
:100AC000010202607047000010B590B0044601A812
:100AD00000F02AF90121880500F09EFE244800F06C
:100AE0004BF84FF000600190224802906068006867
:100AF000039040200490002005900A904FF40030AD
:100B00000B90002006904FF4806007900020089022
:100B100009900E900F9001A9154800F0D9F8012115
:100B20001348FFF7C5FF1248783800F025F84FF05A
:100B3000006001900F480290206800680390002038
:100B400004904FF40070059040100A9001A90848E5
:100B5000783800F0BDF8012105487838FFF7A8FF84
:100B60000122C0210348001F01F07BF810B010BD26
:100B7000B864024004100140016821F001010160E5
:100B80000021016041608160C160016121214161FA
:100B90004A49884204D13D21484A103A91608CE08C
:100BA00046491831884205D14FF47461434A103ADE
:100BB000916082E041493031884205D14FF474118F
:100BC0003E4A103A916078E03C494831884205D16C
:100BD0004FF07461394A103A91606EE037496031E4
:100BE000884204D13649354A103AD16065E033492C
:100BF0007831884204D13349304A103AD1605CE000
:100C00002E499031884204D12F492C4A103AD160A4
:100C100053E02A49A831884205D14FF03D51274A77
:100C2000103AD16049E02949884204D13D21274A40
:100C3000083A116041E025491831884205D14FF446
:100C40007461224A083A116037E020493031884205
:100C500005D14FF474111D4A083A11602DE01B496B
:100C60004831884205D14FF07461184A083A116042
:100C700023E016496031884204D11149134A121FFA
:100C800011601AE011497831884204D10D490F4AA8
:100C9000121F116011E00D499031884204D10A49B8
:100CA0000A4A121F116008E00849A831884204D19D
:100CB0004FF03D51054A121F11607047106002400D
:100CC0003D000020400F002000003D201064024045
:100CD00010B500220268134B1A40CC680B682343FE
:100CE0004C6923438C692343CC6923430C6A234317
:100CF0004C6A23438C6A23434C6B23438C6B234302
:100D00001A430260426922F00702D1E90B342343FF
:100D10001A4342610B6943604B6883608B68C36010
:100D200010BD00003F801CF0002101604160816027
:100D3000C160016141618161C161016241628162A1
:100D4000C16201634163816370470000014908602B
:100D5000704700000C3C024070B504460A4600266D
:100D6000082502B909E0012A01D1160205E0022A8C
:100D700001D1160201E04FF4407600F0DFF805469D
:100D8000082D28D11548006820F4407013490860E8
:100D900008460068304308600846006820F0F80004
:100DA00008600846006844F0020108430B490860E7
:100DB0000846006840F48030086000F0BFF805463F
:100DC0000648006820F002000449086008460068F0
:100DD00020F0F8000860284670BD0000103C02407A
:100DE00008201049096801F48031B1F5803F01D134
:100DF000012015E00B49096801F0100109B1052037
:100E00000EE00849096801F0EF0109B1062007E08A
:100E10000449096801F0020109B1072000E0082037
:100E2000704700000C3C02400348006840F000405E
:100E30000149086070470000103C0240002004494E
:100E40000978AA2901D0012000E0002070470000A5
:100E5000153C024000B508220548007840F0020029
:100E60000349087000F06AF80246104600BD000011
:100E7000143C02400348006840F00100014908604A
:100E800070470000143C024010B50246082400F0F0
:100E900055F80446082C01D10148027010BD00002D
:100EA000153C02400548006800F0010028B10448E4
:100EB00002490C390860034808607047143C02403E
:100EC0003B2A19087F6E5D4C30B502460C4608255A
:100ED00000F034F80546082D19D10E48006820F4BA
:100EE00040700C4908600846006840F400700860D3
:100EF0000846006840F001000860146000F01EF829
:100F000005460448006820F00100024908602846B0
:100F100030BD0000103C02400548006800F0004071
:100F200028B1044802490C3908600348086070473A
:100F3000103C024023016745AB89EFCD08B508207E
:100F40000090FFF74DFF009002E0FFF749FF00908F
:100F50009DF800000128F8D09DF8000008BD0000B1
:100F600010B5ADF5996DA8A9002002F0AFF80028E2
:100F70002ED101221BA121A802F0BEF840BB002403
:100F800007E000F01CFF082101EBC40000F034F87A
:100F9000641C052CF5DB0FE000F011FF21AA802175
:100FA00001A802F06BF83F220DF105011148FFF78F
:100FB0001BF90020FFF7F8FCDDE92301884201D18D
:100FC000012000E000200028E6D0002001F072FDA2
:100FD00021A802F048F80021084602F077F80DF544
:100FE000996D10BD50666D364374726C2E686578CD
:100FF000000000007800002070B50446ACB1082C59
:1010000013D0102C11D0182C0FD0202C0DD0282C40
:101010000BD0302C09D0382C07D0402C05D0482CD0
:1010200003D0502C01D0582C00D114B94FF0FF3010
:1010300070BDFFF771FFF320FFF788FE00BF0221AC
:101040002046FFF789FE0546012DF8D0082D01D175
:101050000020EDE72846EBE773B50546042201A919
:101060002846FFF7CDF808B900207CBD0C48854222
:1010700002D24FF0FF30F8E7FFF74EFFF320FFF703
:1010800065FE00BF28460199FFF71EFF0446012CAC
:10109000F8D0082C01D10020E7E72046E5E7000062
:1010A000E47F0008F0B50A4600210023002400BFB9
:1010B0003DE0012505FA01F3156805EA03049C42A9
:1010C00034D105684F000326BE40B543056015794D
:1010D0004E00B5400668354305601579012D02D0F4
:1010E0001579022D16D185684F000326BE40B54301
:1010F000856055794E00B540866835438560456802
:1011000001268E40B5434560456896798E40B6B25B
:1011100035434560C5684F000326BE40B543C560F2
:10112000D5794E00B540C6683543C560491C1029C5
:10113000BFD3F0BDF0B5002300244D07ED0E02FA39
:1011400005F3CE1000F1200555F826504E07F70E96
:101150000F26BE40B543CF1000F1200646F82750B9
:10116000CE1000F1200555F8265045EA0304CE10B4
:1011700000F1200545F82640F0BD018370474FF689
:10118000FF7101600021017141718171C17170476E
:1011900042694A404261704731B50221684602F017
:1011A000EDFA05462C4604E00221684602F0E6FA14
:1011B000044428466D1E10F1050FF5DCE0B238BD81
:1011C0004CF6CC40014908607047000000300040F8
:1011D00001460020034AD2680A400AB1012000E01B
:1011E00000207047003000404AF6AA2001490860FC
:1011F000704700000030004001494860704700001F
:101200000030004001498860704700000030004015
:1012100001490860704700000030004010B58AB0F6
:10122000044601A8FFF7ABFF02208DF8080001205B
:101230008DF80B002020019001A94A48FFF732FFEA
:1012400001208DF80A004003019001A94548FFF7ED
:1012500029FF092205214348FFF76CFF09220D21D0
:101260004048FFF767FF0121480600F0E5FA012139
:10127000880600F0E1FA07A8FFF7BFFA3A48FFF73F
:101280000BF900208DF8220001208DF823000020AA
:101290008DF824008DF825008DF8260001208DF8AA
:1012A000270014B18DF81E0002E000208DF81E000A
:1012B00003208DF81F0009208DF8200003208DF8F1
:1012C00021000420ADF81C0007A92748FFF784F986
:1012D00001208DF817008DF818000020ADF81200DD
:1012E000ADF80E0001208DF819000020ADF81400B3
:1012F0004FF4A350ADF80C004FF4A250ADF810001D
:101300000E208DF8160003A8FFF7E2F84FF4A05066
:10131000ADF80C004FF4A150ADF810000F208DF87F
:10132000160003A8FFF7D4F84FF4A450ADF80C0052
:101330004FF4A550ADF8100010208DF8160003A84A
:10134000FFF7C6F84FF4A650ADF80C004FF4A750C5
:10135000ADF8100011208DF8160003A8FFF7B8F8BB
:101360000AB010BD000402400068004000B589B01A
:101370004FF40071084600F0AFFE2E4908602E4879
:10138000096808612D482B490968C86001211020AF
:1013900000F072FA0121084600F03EFA07A8FFF7B4
:1013A000EEFE02208DF8200000208DF822000120A2
:1013B0008DF823004FF4C060079007A92048FFF77D
:1013C00071FE072209211E48FFF7B4FE07220A21F9
:1013D0001B48FFF7AFFE17480068FFF775FB0020BA
:1013E000ADF81400ADF816004FF40070ADF8180019
:1013F0000020ADF81A0005A9124800F016FC4FF4C1
:10140000612001900020ADF80800ADF80A00ADF8A9
:101410000C00ADF810000C20ADF80E0001A9094831
:1014200000F05AFC0121074800F00FFC0148006859
:1014300009B000BD3C000020811F0008291F0008E2
:101440000000024000100140024A0A400243024BE1
:101450001A60704780FFFF1F08ED00E070B586B08E
:1014600005464FF0FF362DB11422294601A8FEF79C
:10147000A9FE10E000216C48FFF738F910B930469A
:1014800006B070BD01AA00216748FFF73EF90421AC
:101490006648FFF77DFE0198A03808287ED2DFE875
:1014A00000F00456101FA006659A00F009FD9DF893
:1014B0000F0001F0FFFA064615B9304600F08AFA2F
:1014C00094E0DDF80F005A49086008460068594961
:1014D0000968884203DA564800685649086085E082
:1014E0009DF80E4006E052480068015D0DF10F00C6
:1014F0000155641C082CF6DBDDF80F104C48006821
:10150000FFF7AAFD06464A480068001D48490860E2
:1015100049480068401C484908609DF80E000428AE
:1015200006DDDDF8131042480068FFF795FD06431D
:101530003F480068001D3E4908603F480068401C65
:101540003D49086015B9304600F044FA4EE00020ED
:101550003949086000F033FCDDF80F00FFF74CFD5F
:10156000064615B9304600F035FA3FE000240CE09D
:101570000DF10F00005D3149314A12688854641C36
:101580002F480068401C2E4908609DF80E00A042BC
:1015900003DD2B4800688028EADB00E025E02848CE
:1015A0000068401E2549085C78B125480068401E47
:1015B000085C0D2809D022480068401E085C0A28F3
:1015C00003D01F480068802804D100201C4908600F
:1015D000FFF7EAF90AE0002615B9002000F0FAF951
:1015E00004E09DF80F6001AD00E000BF00BFCDB189
:1015F000701CB8B113490968491C124A08461160A9
:10160000C91700EBD1614911A0EB411111B90EA02E
:1016100000F0FAFB1EB10DA000F0F6FB02E00CA0FA
:1016200000F0F2FB30462BE700680040000C02405F
:101630002C00002004000020000000207800002082
:1016400030000020340000200D0A00003F000000A0
:101650002D000000F8B5544801F0A2FF322847D011
:1016600008DC19280FD01A282BD01B2878D0312855
:1016700074D128E0332845D039283ED03A287CD090
:101680003F28F5D143E000BF00BF00BF00BF00BF4F
:10169000BFF34F8F00BF00BF00BF4448006800F495
:1016A000E06043490843001D4049086000BF00BF97
:1016B00000BFBFF34F8F00BF00BF00BF00BF00BF20
:1016C000FDE700BFFEE700260FE0082000EBC601A3
:1016D000A120FFF74DF9002503E036480068804758
:1016E0006D1CB5F57A7FF8DB761C052EEDDB58E036
:1016F0000021A520FFF73CF953E00921A520FFF7C1
:1017000037F94EE00021A020FFF732F949E001212E
:10171000080300F081F8FFF725F92748274A101A37
:1017200081082548FFF70CF9074625A30A22012165
:10173000009026A000F068FB20491C312DA000F08D
:1017400063FB1E4C002505E054F8011B2EA000F0A1
:101750005BFB6D1C082DF7DB23E001E020E00CE0D3
:101760002B48006800F0804010B90120FFF756FDBB
:101770000021A720FFF7FCF813E000BF0A4801F0A2
:101780000FFF0746002100F0FBFE0446002CF5D0B9
:1017900021462048FEF741FD0020FFF705F900E053
:1017A00000BF00BFF8BD0000640000200CED00E0A9
:1017B0000000FA052000002000000008E47F000877
:1017C0004A616E2031302032303139000D50464DA3
:1017D0003620626F6F746C6F616465722076256469
:1017E0002E253032642025732C203C253038583E7D
:1017F0000D0A00007369676E61747572652025308B
:1018000038583A0D0A000000253038580D0A0000FB
:101810001C6800407800002029B1064A1268024383
:10182000044B1A6004E0034A12688243014B1A60B9
:10183000704700003038024029B1064A126802435E
:10184000044B1A6004E0034A12688243014B1A6099
:10185000704700004038024029B1064A126802432E
:10186000044B1A6004E0034A12688243014B1A6079
:10187000704700002038024029B1064A126802432E
:10188000044B1A6004E0034A12688243014B1A6059
:1018900070470000443802400348006840F0807000
:1018A000014908607047000074380240F0B500211B
:1018B00000220024022500260223324F3F6807F051
:1018C0000C0121B1042905D0082937D105E02E4F9C
:1018D000076036E02D4F076033E02A4F3F1F3F6817
:1018E000C7F38056274F3F1F3F6807F03F036EB195
:1018F000264FB7FBF3F7DFF88CC0ACF1040CDCF833
:1019000000C0CCF3881C07FB0CF40CE01E4FB7FBA7
:10191000F3F7DFF870C0ACF1040CDCF800C0CCF3D6
:10192000881C07FB0CF4174F3F1F3F68C7F30147A4
:101930007F1C7D00B4FBF5F7076002E0124F0760E3
:1019400000BF00BF0F4F3F6807F0F0010909104FBB
:101950007A5C0768D74047600A4F3F6807F4E05158
:10196000890A0B4F7A5C4768D7408760054F3F680C
:1019700007F46041490B064F7A5C4768D740C7605F
:10198000F0BD0000083802400024F40000127A0084
:101990004800002010B501460022002300204A1113
:1019A000012A02D10A4C236808E0022A03D1084C1C
:1019B0007034236802E0064C7434236801F01F027F
:1019C000012494401C400CB1012000E0002010BD17
:1019D0000038024010B5044608210C48FFF7D8FB38
:1019E0004FF0FF300A490860A4200A49086001202E
:1019F0008872CC7202E008480068804705490748B1
:101A0000FEF70BFF0428F6D010BD0000000C0240CA
:101A1000080000200C00002020000020006800408A
:101A20000CB50020019000902D48006840F48030F3
:101A30002B49086000BF2A48006800F4003000907D
:101A40000198401C0190009818B90198B0F5A06F5A
:101A5000F1D12348006800F4003010B1012000905B
:101A600001E0002000900098012838D11C4808307F
:101A700000681B49083108600846006840F40040CF
:101A800008600846006840F4A05008601548091F27
:101A90000860081F006840F08070091F086000BFE0
:101AA0000F48006800F000700028F9D040F2037081
:101AB0000D4908600A480830006820F00300084912
:101AC000083108600846006840F00200086000BF66
:101AD00003480830006800F00C000828F8D10CBD5D
:101AE00000380240083C4005003C024002480068C3
:101AF000401C014908607047240000201FB568465B
:101B0000FFF7D4FE4FF47A710198B0FBF1F4601E38
:101B1000B0F1807F00D30FE0601E4FF0E0214861FC
:101B20000F214FF0FF3000F0B7F900204FF0E02117
:101B300088610720086100BF0321081F00F0ACF98D
:101B40001FBD000010B51048006840F001000E49AC
:101B5000086000200C49083108600B4800680B49F8
:101B60000840094908600A48091D0860081F006804
:101B700020F48020091F0860002003490C31086010
:101B8000FFF74EFF10BD000000380240FFFFF6FED9
:101B90001030002408B520211A4800F06BF878B105
:101BA000184800F003F9009040F22551154800F064
:101BB0002DF81549096801220868694600F06DFA98
:101BC0008021104800F056F8D0B140F227710D483E
:101BD00000F01CF8002000900B49096801224868B9
:101BE000694600F03EFA28B1009881B2054800F03D
:101BF000E2F805E0002240F22771024800F047F8C1
:101C000008BD0000004800404000002010B5002240
:101C1000002340F66A14A14200D100BF0A12012439
:101C20009440A3B2DC43048010BD10B502460020EE
:101C3000108A20F470600B884C8823438C882343DF
:101C4000CC8823431843108210BD21B1828942F40D
:101C50000052828104E082894DF6FF731A4082812E
:101C600070471AB1838A0B43838202E0838A8B43D5
:101C70008382704702460020B1F5007F00D100BF8B
:101C800013880B400BB1012000E000207047F0B535
:101C90000346002400260025002040F66A17B942BA
:101CA00000D100BF1846C1F3421401F01F060127FE
:101CB00007FA06F5012C01D10C3004E0022C01D109
:101CC000103000E014301AB107682F43076002E0BB
:101CD0000768AF430760F0BD2DE9FF4705460E4694
:101CE0000024A14600BFA046B08900B100BF2C8AE5
:101CF00024F44054F08804432C82AC8941F20C60F7
:101D00008443B08831890843718908430443AC8116
:101D1000AC8A24F44074B0890443AC826846FFF76F
:101D2000C5FD2048854202D01F48854202D1DDF81A
:101D30000C9001E0DDF80890A88900F4004040B163
:101D400009EBC90000EB091031684900B0FBF1F75D
:101D500007E009EBC90000EB091031688900B0FB0E
:101D6000F1F76420B7FBF0F004012009642101FBC6
:101D70001078A88900F4004040B1322000EBC80080
:101D8000B0FBF1F000F00700044308E0322000EB64
:101D900008106421B0FBF1F000F00F0004432C8127
:101DA000BDE8FF870010014000140140014688880B
:101DB000C0F308007047C1F308028280704710B575
:101DC00045F25550FFF724FAFFF70EFA0020FFF70F
:101DD0001FFA10BD10B5044645F25550FFF718FA2A
:101DE0000320FFF709FAA0B2FFF70CFA00BF0220A8
:101DF000FFF7EEF90028FAD0FFF7F6F9FFF7E0F960
:101E00000020FFF705FA10BD0FB4054B10B503A96C
:101E1000044A029800F082F910BC5DF814FB00003F
:101E20007D3400086800002010B517480068174985
:101E3000096888421FD015480068134908600846A1
:101E40000068642190FBF1F201FB120038B9012116
:101E50000F48FFF79DF90C210D48FFF78EF90A484E
:101E600000684FF47A7190FBF1F00A4909688842E2
:101E700001D100F025F8FFF7EDFB0020FFF7EEFAA7
:101E8000FFF79DFF10BD0000280000202400002067
:101E9000000C02400800002010B5002804DB0A07EF
:101EA000130E054A135406E00A07140E034A00F005
:101EB0000F031B1FD45410BD00E400E018ED00E038
:101EC00000BF00BF00BFBFF34F8F00BF00BF00BF08
:101ED0000948006800F4E06008490843001D06490D
:101EE000086000BF00BF00BFBFF34F8F00BF00BF3F
:101EF00000BF00BF00BFFDE70CED00E00000FA05E9
:101F0000004870476C00002018B50446002000907F
:101F100001226946204600F0A4F808B1009818BDD7
:101F20004FF0FF30FBE7000038B50446002000907A
:101F30000B48006838B10A4960690968401A21688D
:101F40000844606001E02068606001226946204624
:101F500000F087F808B1009838BD4FF0FF30FBE77C
:101F60004464024013B50446012201A9204600F052
:101F700094F8012801D101981CBD4FF0FF30FBE718
:101F800070B502462248006810B90020214B186045
:101F90002048006840F2FF13984202D14FF0FF3012
:101FA00070BD1B48001F006820F00100184B1B1F6C
:101FB000186000BF1648001F006800F001000028EC
:101FC000F8D1134B10681B68124C2468E31A1844AC
:101FD0000F4B083318600E480068401C0C4B18600B
:101FE0000C48146805680068401C0A4E3060615552
:101FF0004FF07460064BB03B18600548001F006846
:1020000040F00100024B1B1F18600846C8E70000A3
:10201000BC6402404400002002E008C8121F08C14E
:10202000002AFAD170477047002001E001C1121F59
:10203000002AFBD1704770B5054618210120FEF734
:10204000F5F804465CB101212846FEF7EFF8A060E0
:10205000606020606561206808B1204670BD002086
:10206000FCE7F0B503460C460020996825460BE0D6
:1020700011F801CB0646401C05F806C05F691E68D2
:102080003E448E4200D11968161EA2F1010202D010
:102090005E688E42ECD19960F0BD70B503460C4687
:1020A0001546224659680FE012F8010B01F8010BA2
:1020B0005E6918683044884200D11968986888427F
:1020C00002D14FF0FF3070BD281EA5F10105EBD104
:1020D000596012F8010CF6E770B506460D46182156
:1020E0000120FEF7A3F804468CB10A4820610A4893
:1020F000E0603046FFF79FFF20602846FFF79BFF18
:102100006060206818B1606808B1204670BD00208A
:10211000FCE70000651F0008091F00082DE9FF4FBC
:102120008DB00F460546002606E025280BD0DDE9D8
:102130000F1290476D1C761C28780028F5D111B03D
:102140003046BDE8F08F0024A246A1460122EC49AA
:1021500000E0044315F8013F203B02FA03F0084277
:10216000F7D128782A2810D06FF02F022878A0F114
:102170003001092914D80AEB8A0102EB410144F02D
:10218000020400EB010A6D1CF0E701CF5FEA000AD0
:1021900003D544F40054CAF1000A44F002046D1C53
:1021A00028782E2817D115F8010F44F004042A28A6
:1021B0000ED06FF02F022878A0F1300109290AD83B
:1021C00009EB890102EB410100EB01096D1CF2E70B
:1021D00057F8049B6D1C28786C280FD006DC4C281F
:1021E00017D068280DD06A2814D104E0742810D0C4
:1021F0007A280FD10DE044F400140AE044F480146E
:1022000001E044F440146978814202D104F580145D
:102210006D1C6D1C2A786E2A1FD00CDC632A31D00D
:1022200004DC002A8BD0582A11D1A3E0642A68D09C
:10223000692A0CD165E0732A2ED004DC6F2A73D092
:10224000702A04D19BE0752A6FD0782A6ED0104690
:10225000DDE90F129047761C50E1C4F302500228CA
:1022600006D0032809D0042801CF09D0066045E133
:1022700001CFF117C0E9006140E101CF06803DE1E7
:1022800006703BE117F8040B8DF8000000208DF874
:102290000100EB46012003E057F804BB4FF0FF308C
:1022A00061074FF0000102D40DE008F101018846FA
:1022B00049450FDA8045F8DB1BF808100029F4D1F6
:1022C00008E008F1010188468142FADB1BF808109A
:1022D0000029F6D1DDE90F23AAEB0800814621464B
:1022E00000F036F9304400EB080604E0DDE90F1297
:1022F0001BF8010B9047B8F10108F7D22146484678
:10230000F7E00A21C4F302534FF0000B0891022BAF
:1023100004D001CFC117032B09D00AE0FF1D27F01D
:102320000707F7E8020108E032E01FE020E000B212
:10233000C117042B01D140B2C117031E71F1000374
:1023400007DA4FF0000CD0EB0C006CEB01012D23F1
:1023500002E0230504D52B238DF82430012303E06C
:10236000E30701D02023F7E7984658E00A2110E060
:1023700010210EE010204FF0000B08900CE010210F
:102380004FF0000B44F004044FF00809089103E0FB
:1023900008214FF0000B0891C4F30253022B04D024
:1023A00001CF0021032B06D006E0FF1D27F0070711
:1023B000F7E8020103E080B2042B00D1C0B24FF075
:1023C000000823072BD5702A07D0DDF820C08CF039
:1023D000100C5CEA0B0C05D00EE040238DF8243085
:1023E000012308E050EA010306D030238DF82430A1
:1023F0008DF8252002239846DDF820C08CF0080CCB
:102400005CEA0B0C0BD150EA010301D1630706D53E
:1024100030238DF824304FF00108A9F10109582A22
:1024200004D038A20B9208AA0A920BE03AA2F9E76C
:102430005B46089AFDF741FF0B9B9B5C0A9A521E74
:102440000A92137050EA0102F2D10A98ADEB000033
:1024500000F1200B600702D524F4803401E04FF036
:102460000109D94502DDA9EB0B0000E0002000EBDB
:102470000B0141440890AAEB010AE00306D4DDE910
:102480000F232146504600F063F806444FF0000940
:1024900008E009A911F80900DDE90F12904709F1D8
:1024A0000109761CC145F4DBE0030CD5DDE90F23FF
:1024B0002146504600F04CF8064404E0DDE90F12D6
:1024C00030209047761C0899481E08900029F5DCBA
:1024D00008E00A980A990078491C0A91DDE90F1270
:1024E0009047761CBBF10001ABF1010BF1DC2146FA
:1024F0005046DDE90F2300F019F806446D1C1BE679
:1025000009280100303132333435363738396162C9
:10251000636465660000000030313233343536378D
:102520003839414243444546000000002DE9F0415E
:10253000044600251E461746880404D405E03946A3
:102540002020B0476D1C641EF9D52846BDE8F081F7
:102550002DE9F041044600251E469046C80301D5EA
:10256000302700E02027880404D505E0414638469E
:10257000B0476D1C641EF9D52846BDE8F081000007
:1025800070B505460E462E48006884684CB92C4943
:10259000096809684869FFF74EFD2949096804463A
:1025A00088600A2D0DD005DCB5F1FF3F07D0082D5E
:1025B0001CD10EE00D2D03D07F2D17D10AE03BE09A
:1025C00000BF0020616808702068A060606020681B
:1025D00070BD00BFD4E90101884206D06068401E8A
:1025E000606016B117A0FFF70FFC25E06069401E80
:1025F000216808446168884204D06268501C6060A9
:10260000157005E061680D7016B10FA0FFF7FCFBB7
:102610008EB1FDF7D3FD0068405D00F03E0020B1B3
:1026200029460AA0FFF7F0FB05E03E232A463C219D
:1026300007A0FFF7E9FB00BF00BF0020C8E70000CC
:102640006400002008200800080000002563000046
:1026500025632530325825630000000070B504461C
:102660000D46607801232A4604F1280100F0C4FCDD
:1026700008B1032070BD94F8261294F8270241EAAD
:1026800000204AF65521884201D00220F2E794F852
:102690006100010694F8600041EA004194F85F008F
:1026A00041EA002094F85E10084320F07F400E4974
:1026B000884201D10020DDE794F87D00010694F8FE
:1026C0007C0041EA004194F87B0041EA002094F844
:1026D0007A10084320F07F400349884201D100204E
:1026E000C8E70120C6E7000046415400024600E06A
:1026F000521C107810B110788842F9D110787047C8
:102700002DE9F74F88B0089800680190019800788B
:10271000A0F1300BBBF1090F0AD8019840783A2894
:1027200006D10198801C019008990198086002E088
:102730009F4890F800B0002109980160BBF1020F9A
:1027400003D30B200BB0BDE8F08F9A4850F82B4014
:102750000CB90C20F6E709980460207850B1607835
:1027600000F07EFC0790079800F0010010B900BF50
:102770000020E7E70020207084F801B0607800F0C6
:1027800031FC0790079800F0010008B10320D9E759
:1027900000BF0020014606902046FFF75FFF054678
:1027A00000BF012D21D14FF00009B9F1000F03D076
:1027B000A9F1010000F0FF094FF4DF7000EB0911EF
:1027C00004F128000F18387978B1F87A0106B87A40
:1027D00041EA0041787A41EA0020397A08430690BC
:1027E00020460699FFF73AFF0546032D01D1012047
:1027F000A8E70DB10D20A5E73320015D94F8340062
:1028000041EA0020B0F5007F01D00D209AE73E207C
:10281000015D94F83F0041EA0028B8F1000F0ED1A5
:1028200094F84F00010694F84E0041EA004194F8F4
:102830004D0041EA002094F84C1040EA0108C4F829
:1028400014803820065DE670012E03D0022E01D0E0
:102850000D2077E708FB06F83520005D0646A070DE
:1028600016B1701E304008B10D206BE73920015DB4
:1028700094F83A0041EA00202081207A00F00F000D
:1028800008B10D205EE73B20015D94F83C0041EA71
:1028900000200590059870B994F84B00010694F853
:1028A0004A0041EA004194F8490041EA002094F8C6
:1028B0004810084305903620015D94F8370041EA3E
:1028C00000200290029808B90D203BE7029840448E
:1028D000218900EB11100490DDE90401814201D24D
:1028E0000D202FE7DDE90410401AA178B0FBF1FAC2
:1028F000BAF1000F01D10D2024E7012540F6F67052
:10290000824500D302254FF6F670824500D3032599
:102910000AF1020020610499069808442062029995
:1029200006980844A061032D16D1208908B10D2016
:1029300008E794F85700010694F8560041EA004170
:1029400094F8550041EA002094F854100843E061DF
:1029500020698000039014E0208908B90D20F1E679
:10296000A0694044E061022D02D12069400007E0E7
:10297000207C00F00100216901EB410100EB5100D6
:1029800003906169039800F2FF10B1EB502F01D260
:102990000D20D7E6257008480088401C80B2064903
:1029A0000880E080002060622071E06000BFC9E61E
:1029B0006200002058000020600000200246891EAE
:1029C0001069801E884201D8002070479378106AF1
:1029D00001FB0300F9E700002DE9F04705460C462E
:1029E000207820F04000401E00EB800101EBC00683
:1029F00000274FF0010800BF1A48C05D205C19494C
:102A0000C95D2144497840EA0129B8F1000F10D08E
:102A1000484600F09BFC8046FF2E07D23146761CCC
:102A200035F8110000F092FC404508D00020BDE8C8
:102A3000F0874FF6FF70814501D00020F7E7781C42
:102A400007460D28D8D3207800F0400038B1B8F1FF
:102A5000000F04D035F8160008B10020E7E7012088
:102A6000E5E70000F637000810B501210803FEF77E
:102A7000D3FEFDF777FF03210D48FDF761FF0C49F9
:102A8000091F0968884210D1FDF76CFF084A1168D8
:102A9000074A08321068FDF753FF04460448001D3A
:102AA0000068A04201D1002010BD4FF0FF30FBE7CD
:102AB000E87F000870B505464FF0FF340121080398
:102AC000FEF7AAFE35B14FF460401C4908601C486F
:102AD0001C4908601948006870B30820FEF78CFA9A
:102AE0000446FDF73FFF1548016816480068FDF7EA
:102AF00027FF0646314612481438FEF7ADFA044364
:102B00000E4801680E481838FEF7A6FA04430D482F
:102B100001680B481038FEF79FFA0443FDF722FFC7
:102B2000032107481838FDF70BFF064631460448D5
:102B30001C38FEF791FA0443204670BD00000020C7
:102B400000800008040000202DE9F34F83B0814687
:102B500004980068019002E00198401C01900198DF
:102B600000782F28F8D0019800785C28F4D0D9F8A4
:102B70001C700025A84600BF404608F101080199D5
:102B80000C5C202C03DB2F2C01D05C2C00D11CE032
:102B9000FF2D03D3062005B0BDE8F08FE4B201217C
:102BA000204600F0ADFB04460CB90620F3E7802C6C
:102BB00006DA214684A0FFF799FD08B10620EAE76E
:102BC00028466D1C27F81040D6E700BF019800EB9F
:102BD000080104980160202C01DA042000E00020A4
:102BE0000646012D04D1681E37F810002E280BD0A0
:102BF000022D24D1681E37F810002E281FD1A81EE0
:102C000037F810002E281AD1002027F81500834627
:102C10000AE0AB4501D22E2000E02020D9F81810A0
:102C200001F80B000BF1010BBBF10B0FF1D346F0D8
:102C30002000D9F8181001F80B000020ABE708E0DD
:102C4000681E37F81040202C02D02E2C00D002E055
:102C50006D1E002DF4D100BF0DB906209BE70020AA
:102C600027F815000B222021D9F8180000F068FD84
:102C70004FF0000801E008F1010837F8180020289B
:102C8000F9D037F818002E28F5D0B8F1000F01D090
:102C900046F0030600E06D1E25B1681E37F81000EF
:102CA0002E28F8D14FF0000AD3460820029000BF2A
:102CB000404608F1010837F8104004B954E0202CD0
:102CC00003D02E2C04D1A84502D046F00306EFE72E
:102CD0000298834501D2A84516D102980B2802D14B
:102CE00046F0030640E0A84501D046F00306A8459B
:102CF00000D939E0A8464FF0080B0B2002904FEAAC
:102D00008A604FEA106AD3E7802C0BDB0021204653
:102D100000F0F6FA04461CB1A4F180002D490C5CC9
:102D200046F0020600BF24B121462BA0FFF7DEFCCF
:102D300018B15F2446F003060FE0412C04DB5A2C47
:102D400002DC4AF0020A08E0612C06DB7A2C04DC83
:102D50004AF0010AA4F1200084B258460BF1010B9D
:102D6000D9F818301C54A3E700BFD9F81800007830
:102D7000E52803D10520D9F8181008700298082812
:102D800003D14FEA8A604FEA106A0AF00C000C285F
:102D900003D00AF00300032801D146F0020606F032
:102DA000020058B90AF00300012801D146F01006CC
:102DB0000AF00C00042801D146F00806D9F81800E2
:102DC000C6720020E7E60000222A3A3C3E3F7C7FA4
:102DD00000000000033800082B2C3B3D5B5D000029
:102DE0002DE9F04704460021204600F0ADF80746E3
:102DF00017B13846BDE8F0874FF0FF09CA4600BF5B
:102E00002169206800F0A6FC074607B154E0656917
:102E10002E780EB904274FE0E87A00F03F08E52E3F
:102E200005D008F0080028B1B8F10F0F02D04FF01C
:102E3000FF093AE0B8F10F0F1CD1E069A0B306F02A
:102E4000400030B195F80DA026F04006B146E0886C
:102E500020844E450AD1687B504507D12946E06958
:102E6000FFF7BAFD10B1A9F1010000E0FF2000F06A
:102E7000FF091AE0B9F1000F05D1284600F091FCD6
:102E8000504500D118E04FF0FF094FF6FF70208445
:102E9000A069C07A00F0010030B90B222846A16970
:102EA00000F02EFC00B907E0FFE70021204600F00B
:102EB00006F80746002FA3D000BF38469AE72DE951
:102EC000F04104460F4600BFE088401C86B20EB1B8
:102ED000206910B90420BDE8F08106F00F0048BB5E
:102EE0002069401C2061E06828B920680089B04250
:102EF00020DC0420EFE720688078401E00EA1610EE
:102F0000C0B9E168206800F0D9FA0546012D01D862
:102F10000220E0E7681C08B90120DCE720680069AE
:102F2000A84201D80420D6E7E56029462068FFF7CB
:102F300045FD2061E6802068283006F00F0100EB97
:102F4000411060610020C6E72DE9F04104460E46BD
:102F5000E680A568012D03D020680069A84202D848
:102F60000220BDE8F0812DB920680078032801D146
:102F70002068C56965B9E56020680089B04201DC58
:102F80000220EEE72068C06900EB1610206120E007
:102F900020688078070112E02946206800F08EFA48
:102FA0000546681C08B90120DBE7022D03D3206821
:102FB0000069A84201D80220D3E7F01B86B2BE42C6
:102FC000EADAE56029462068FFF7F8FC00EB161006
:102FD00020612068283006F00F0100EB411060618D
:102FE0000020BEE710B50446FDF796FFF320FDF77D
:102FF000ADFE002010BD00002DE9F0478246884656
:10300000164699460025154C06E0D4F80002B04259
:1030100000D1254604F50174D4F80002401C0028B4
:10302000F3D105B12C464546002703E002CCC84346
:1030300001C57F1C802FF9DBA9F10100C0B2B0F1FE
:10304000000907D0701C064602464B4629465046EA
:10305000FFF7D2FF0020BDE8F08700000000040861
:1030600001460020704770B50446204600F0A9FBD9
:1030700005460DB900202060284670BD2DE9FC47AB
:1030800007468846914600243E4611E06B460122E1
:1030900001A9484600F076F80098012800D00BE01E
:1030A0009DF8045006F8015B641C0A2D00D103E072
:1030B000A8F10100A042E9DC00BF0020307014B18B
:1030C0003846BDE8FC870020FBE700000246022AE4
:1030D00001DB0B207047074850F822300BB100206D
:1030E000187009B100200870024840F82210002032
:1030F000F0E7000058000020F7B5ADF50C7D044660
:1031000017461CB909200DF50F7DF0BD0020206089
:1031100007F00107002283A98DA8FFF7F1FA064600
:10312000002E2DD180A88990CDF828D283A88D9922
:1031300000F04CF90646889D46B9889D0DB90626D3
:1031400004E0E87A00F0100000B10426C6B9A771C7
:103150002946839800F026FA2061E87F0106A87FBF
:1031600041EA0041687F41EA0020297F0843E0608E
:103170000020A060A061839820608398C088A08010
:103180003046C0E72DE9FF4F83B004461546994607
:10319000049800900020C9F80000204600F011FBC0
:1031A0000290029818B1029807B0BDE8F08FA0799C
:1031B00000F0800008B10220F6E7A07900F00100DD
:1031C00008B90720F0E7D4E90210401A01900198ED
:1031D000854200D9019D8DE02089C0F308000028B8
:1031E00069D120688078401EA16800EA512000F073
:1031F000FF08B8F1000F1DD1A06810B9D4F810B0C5
:1032000004E06169206800F059F98346BBF1020FC0
:1032100005D2A07940F08000A0710220C4E70BF134
:10322000010028B9A07940F08000A0710120BBE71F
:10323000C4F814B061692068FFF7C0FB07462FB9D6
:10324000A07940F08000A0710220ADE747444FEA2A
:10325000552ABAF1000F1BD008EB0A0021688978C3
:10326000884203D920688078A0EB080A0AF0FF039F
:10327000216848783A460099FFF7BEFE28B1A07948
:1032800040F08000A07101208EE74FEA4A2625E039
:10329000A069B8420ED02168487801233A4604F16B
:1032A0001C01FFF7A9FE28B1A07940F08000A071B1
:1032B000012079E7A7612089C0F30800C0F50076F6
:1032C000AE4200D92E462089C0F3080204F11C004A
:1032D00011183246009800F026FA00BF00983044DA
:1032E0000090A0683044A060D9F800003044C9F8CC
:1032F0000000AD1B002D7FF46FAF002054E70000ED
:1033000010B50246802A01DA10461BE051B1FF2AAF
:1033100001DD002304E0A2F180030B4C34F81330EC
:1033200018460FE0002007E0074B33F810309342B7
:1033300000D103E0431C98B28028F5DB00BF00F108
:103340008003D8B210BD0000843800080246002176
:1033500000E0491C094830F8110020B1074830F856
:1033600011009042F5D1054830F8110018B1044819
:1033700030F8110070471046FCE70000843900085F
:10338000643B000870B505460E48006860B10D4A00
:10339000126810680B4A1268D16888470446601C9E
:1033A00008B1204670BD00BF0748006838B1064A22
:1033B00012681068044A1268D1688847F2E74FF033
:1033C000FF30EFE73C000020400000202DE9F341F2
:1033D0000446019800782F2803D0019800785C28D3
:1033E00005D10198401C01900020A06002E02068F7
:1033F000C068A06001980078202807D200212046EC
:10340000FFF7A2FD05460020606133E000BF01A97F
:103410002046FFF799FB054605B12AE02046FFF755
:10342000DFFC0546A069C67A95B1042D00D020E0E6
:1034300006F0200038B10020A0606061002506F091
:10344000040020B9E3E706F0040000B9052510E008
:1034500006F0040000B10CE06769F87A00F0100093
:1034600008B9052505E03946206800F09BF8A06002
:10347000CDE700BF2846BDE8FC81000070B50446DA
:103480000D460C48006838B10A490968486809497E
:1034900009680A69214690470748006838B106491B
:1034A00009684868044909680A6921469047204626
:1034B00070BD00003C000020400000202DE9F041DC
:1034C00005460C46022C02D32869A04202D80120EE
:1034D000BDE8F0812878012804D002282CD00328E8
:1034E0005AD13DE0274607EB5707A86900EB572163
:1034F000284600F02FF900B14EE0C7F3080105F1AE
:10350000280010F801807F1CA86900EB572128468D
:1035100000F020F900B13FE0C7F3080105F12800F1
:10352000405C48EA002804F0010010B14FEA18108E
:10353000CEE7C8F30B00CBE7A86900EB14212846BF
:1035400000F008F900B127E040F2FF1000EA440162
:1035500005F128000E183078717840EA0120B7E7AD
:10356000A86900EBD411284600F0F4F800B113E08C
:1035700040F2FF1000EA840105F128000E18F078EF
:103580000006B17840EA0140717840EA01203178C4
:10359000084320F070409BE700BF4FF0FF3097E7F3
:1035A000FFF7F0BE10B502468C7ECB7E44EA0320C6
:1035B0001378032B05D10C7D4B7D44EA032340EAAD
:1035C000034010BD1CB52F48046801217F20FEF781
:1035D00023F9FDF733FC01280CD0FDF79DFCFDF726
:1035E00061FC5520FDF750FCFDF734FCFDF742FC73
:1035F000FDF71AFC4FF47A60FEF7ECFB6846FDF726
:10360000BEFD01208DF8040000208DF8060030205A
:10361000009030211C48FDF7B0FD69461A48FDF7BF
:1036200041FD0D20009001208DF806000D21174866
:10363000FDF7A3FD69461548FDF734FD7C20FEF734
:10364000A9F970B1FFF710FA58B9A4F100614FF071
:103650000060FDF7F9FE01CC80F3088800BF206808
:103660008047FCF7EBFE7E20FEF794F918B1FEF7D9
:1036700013F9FDF775FCFEF70FF902E00448006846
:103680008047FBE7F07F000800100240000C02407A
:1036900020000020F0B50B30154D20F0070100246C
:1036A000144A0FE003688B420BD38B4205D95E1A94
:1036B00043184768C3E9006700E04368136002C02D
:1036C00004E0021D10680028ECD12046002802D139
:1036D000286808B10020F0BD064A07481060074A74
:1036E000121A22F00702C0E9002401202860D7E75F
:1036F0007400002070000020FC000020F830002042
:10370000F0B503461C460D46002000BF161EA2F170
:10371000010207D014F8017B15F801CBA7EB0C06CA
:10372000301EF3D0F0BD70B503460C4603E014F82C
:10373000015B03F8015B151EA2F10102F7D170BD18
:1037400030B5034601E003F8011B141EA2F101028B
:10375000F9D130BD70B504460D46666AAE420BD055
:1037600055B1607801232A4604F12801FFF744FC93
:1037700008B1012070BD65620020FBE77FB50446FB
:103780000D462A4668462168FCF72EFD002141556A
:1037900020682844206010226846FCF755FD04B0DC
:1037A00070BD30B5014600200B2200BF431003EB73
:1037B000C01411F8015B6319D8B2531E1A1EF5D15B
:1037C00030BD70B505462C46206838B120680078B9
:1037D00020B12068C088A188884201D0092070BD2E
:1037E00021684878FFF73CFC00F0010008B1032095
:1037F000F5E70020F3E701030507090E1012141680
:10380000181C1E808182838485868788898A8B8C98
:103810008D8E8F909192939495969798998A9B8C80
:103820008D8E8FA0A1A2A3A4A5A6A7A8A9AAABAC80
:10383000ADAEAFB0B1B2A3B4B5B6B7B8A5AABBBC74
:10384000BDBCAFC0C1C2C3C4C5C6C7C8C9CACBCC42
:10385000CDCECFD0D1D2D3D4D5D6D7D8D9DADBDC20
:10386000DDDEDFC0C1C2C3C4C5C6C7C8C9CACBCCB0
:10387000CDCECFD0D1D2D3D4D5D6F7D8D9DADBDCE0
:10388000DDDEFF00AC2000001A2000001E202620F4
:103890002020212000003020600139205A016401DD
:1038A0007D0179010000182019201C201D202220F4
:1038B000132014200000222161013A205B016501E0
:1038C0007E017A01A000C702D8024101A4000401D0
:1038D000A600A700A800A9005E01AB00AC00AD00E7
:1038E000AE007B01B000B100DB024201B400B500C4
:1038F000B600B700B80005015F01BB003D01DD0265
:103900003E017C015401C100C2000201C400390122
:103910000601C7000C01C9001801CB001A01CD0037
:10392000CE000E01100143014701D300D400500125
:10393000D600D70058016E01DA007001DC00DD000E
:103940006201DF005501E100E2000301E4003A01F9
:103950000701E7000D01E9001901EB001B01ED0073
:10396000EE000F01110144014801F300F400510180
:10397000F600F70059016F01FA007101FC00FD002B
:103980006301D902610062006300640065006600A3
:103990006700680069006A006B006C006D006E00D3
:1039A0006F00700071007200730074007500760083
:1039B0007700780079007A00A100A200A300A5009A
:1039C000AC00AF00E000E100E200E300E400E5004D
:1039D000E600E700E800E900EA00EB00EC00ED009B
:1039E000EE00EF00F000F100F200F300F400F5004B
:1039F000F600F800F900FA00FB00FC00FD00FE00F4
:103A0000FF00010103010501070109010B010D017F
:103A10000F01110113011501170119011B011D01EE
:103A20001F01210123012501270129012B012D015E
:103A30002F0131013301350137013A013C013E01CB
:103A4000400142014401460148014B014D014F0133
:103A5000510153015501570159015B015D015F019E
:103A6000610163016501670169016B016D016F010E
:103A700071017301750177017A017C017E01920168
:103A8000B103B203B303B403B503B603B703B8037A
:103A9000B903BA03BB03BC03BD03BE03BF03C0032A
:103AA000C103C303C403C503C603C703C803C903D3
:103AB000CA033004310432043304340435043604B8
:103AC0003704380439043A043B043C043D043E0402
:103AD0003F044004410442044304440445044604B2
:103AE0004704480449044A044B044C044D044E0462
:103AF0004F0451045204530454045504560457040B
:103B0000580459045A045B045C045E045F04702189
:103B100071217221732174217521762177217821F9
:103B200079217A217B217C217D217E217F2141FF0A
:103B300042FF43FF44FF45FF46FF47FF48FF49FF61
:103B40004AFF4BFF4CFF4DFF4EFF4FFF50FF51FF11
:103B500052FF53FF54FF55FF56FF57FF58FF59FFC1
:103B60005AFF000041004200430044004500460067
:103B70004700480049004A004B004C004D004E00F1
:103B80004F005000510052005300540055005600A1
:103B90005700580059005A002100E0FFE1FFE5FFFF
:103BA000E2FFE3FFC000C100C200C300C400C500C3
:103BB000C600C700C800C900CA00CB00CC00CD00B9
:103BC000CE00CF00D000D100D200D300D400D50069
:103BD000D600D800D900DA00DB00DC00DD00DE0012
:103BE0007801000102010401060108010A010C012B
:103BF0000E01100112011401160118011A011C0115
:103C00001E01200122012401260128012A012C0184
:103C10002E01300132013401360139013B013D01F1
:103C20003F0141014301450147014A014C014E0159
:103C3000500152015401560158015A015C015E01C4
:103C4000600162016401660168016A016C016E0134
:103C5000700172017401760179017B017D0191018E
:103C60009103920393039403950396039703980398
:103C700099039A039B039C039D039E039F03A00348
:103C8000A103A303A403A503A603A703A803A903F1
:103C9000AA031004110412041304140415041604D6
:103CA0001704180419041A041B041C041D041E0420
:103CB0001F042004210422042304240425042604D0
:103CC0002704280429042A042B042C042D042E0480
:103CD0002F04010402040304040405040604070479
:103CE000080409040A040B040C040E040F046021E8
:103CF0006121622163216421652166216721682198
:103D000069216A216B216C216D216E216F2121FFB8
:103D100022FF23FF24FF25FF26FF27FF28FF29FF7F
:103D20002AFF2BFF2CFF2DFF2EFF2FFF30FF31FF2F
:103D300032FF33FF34FF35FF36FF37FF38FF39FFDF
:103D40003AFF000000404040404040404040414178
:103D50004141414040404040404040404040404060
:103D600040404040400502020202020202020202FA
:103D700002020202022020202020202020202002F7
:103D80000202020202029090909090901010101087
:103D90001010101010101010101010101010101023
:103DA00002020202020288888888888808080808B7
:103DB0000808080808080808080808080808080883
:103DC0000202020240000000453D0008EC3D0008F0
:103DD000000000207800000018200008643E000861
:103DE000780000208050000028200008000000001B
:103DF000FFFFFF7F03000000A400000000000000A0
:103E0000000001000000000000000000291E000862
:103E100000000000000000000000000000000000A2
:103E20000000000000000000000000000000000092
:103E3000000000000000000001020304010203046E
:103E40000607080900000000000000000000000054
:103E50000000000000000000000000000000000062
:043E6000000000005E
:040000050800018569
:00000001FF
